{"count":142,"next":"https://safe-transaction-mainnet.safe.global/api/v1/safes/0x91c32893216dE3eA0a55ABb9851f581d4503d39b/all-transactions/?executed=true&limit=20&offset=40&queued=true&trusted=true","previous":"https://safe-transaction-mainnet.safe.global/api/v1/safes/0x91c32893216dE3eA0a55ABb9851f581d4503d39b/all-transactions/?executed=true&limit=20&queued=true&trusted=true","results":[{"executionDate":"2023-12-05T22:40:23Z","to":"0x54B0146eC61d56D2b2a786287fc00fF36ADfE830","data":"0xe19c2253000000000000000000000000000000000000000000000000000000000000008000000000000000000000000000000000000000000000000000000000000002e0000000000000000000000000000000000000000000000000000000000000054000000000000000000000000000000000000000000000000000000000000007a00000000000000000000000000000000000000000000000000000000000000012000000000000000000000000d998d87c46a6c5524dcebd5e56f898393ee4c42d000000000000000000000000d998d87c46a6c5524dcebd5e56f898393ee4c42d000000000000000000000000a23a2e3ba8da5ec0143e325addbb071c76cfb829000000000000000000000000d998d87c46a6c5524dcebd5e56f898393ee4c42d0000000000000000000000001bdfb4a34ac73503b320a1e95875b9ed9ec082ff0000000000000000000000001bdfb4a34ac73503b320a1e95875b9ed9ec082ff0000000000000000000000001bdfb4a34ac73503b320a1e95875b9ed9ec082ff000000000000000000000000d998d87c46a6c5524dcebd5e56f898393ee4c42d000000000000000000000000a23a2e3ba8da5ec0143e325addbb071c76cfb8290000000000000000000000001bdfb4a34ac73503b320a1e95875b9ed9ec082ff000000000000000000000000a23a2e3ba8da5ec0143e325addbb071c76cfb829000000000000000000000000a23a2e3ba8da5ec0143e325addbb071c76cfb829000000000000000000000000d998d87c46a6c5524dcebd5e56f898393ee4c42d000000000000000000000000ce262a2db3d88055718fb7c838bf2ecb8efef0aa000000000000000000000000a23a2e3ba8da5ec0143e325addbb071c76cfb8290000000000000000000000001bdfb4a34ac73503b320a1e95875b9ed9ec082ff0000000000000000000000001bdfb4a34ac73503b320a1e95875b9ed9ec082ff000000000000000000000000ce262a2db3d88055718fb7c838bf2ecb8efef0aa000000000000000000000000000000000000000000000000000000000000001200000000000000000000000022f9d18b2d6cbd5ec8bd837d0a98cbf9f508a26c000000000000000000000000063ea9a84b21e8862e2eb0193fabacc9c7ae5a49000000000000000000000000d8cc0304de58fce5147796606db14500d94b5ef2000000000000000000000000406c22b8740ae955b04fd11c2061e053807e2a69000000000000000000000000785af8d990be8e59f732ecc92bfe0f61772b565d00000000000000000000000091c32893216de3ea0a55abb9851f581d4503d39b000000000000000000000000bcc1a7a668db1a4d8f27504eec985d07bcfe0e89000000000000000000000000ee801de2e6e887cd4ebb6bb7b1430c74e8ea76fc000000000000000000000000ed5748cbb09d3a588cb88c652c72cab5efc033fe000000000000000000000000c64d1436fb53867ae10133c527cb9be931beb27d000000000000000000000000d06a5d3bae616fdaf9fd0fe9dcdd14b2aa097155000000000000000000000000380529d1188e001bd2ffd34c7d851dc50e318cdd0000000000000000000000001ac9607d160efaaa24a13c3abfd267b79f47d453000000000000000000000000aa44498e419c44e34c7a45c0ce21b744ed2dddf50000000000000000000000004b9fcd8da4ada1bb89d16186026ad385b60d510c0000000000000000000000006cb346d585637fa0f1d9b2079de2583d479a3e9000000000000000000000000037672dda85f3cb8da4098baac5d84e00960cb081000000000000000000000000db06fb03d0d1b22a43f7264e8812d4eeffec44eb00000000000000000000000000000000000000000000000000000000000000120000000000000000000000008a51a197394463f00fecd46a81d0ba331c3fb7b200000000000000000000000077c5e176336a7964a523c46297dd92a9adca5c490000000000000000000000006dfab05b0f0b4ea1490e7cde348b6d7ef4678b84000000000000000000000000151fcb0d7c3655d872440fcde74308045fa8fe7b0000000000000000000000005e66a050732347b1211af1d3d5e484369be0b7950000000000000000000000008f7a61c9e0cd12558d8657b918ffe3e461b869c1000000000000000000000000d3d0d9dc74629baa4906bcf7c7ee4cf8af440f5600000000000000000000000072821eaaa9d291371d2b8f278d010794c89fbdfe00000000000000000000000052bb2b0a500e7c0c2f1693f4959e97bd2972bd4c0000000000000000000000003da8fe34f60eb3f94f04d5471bea4a819285d4c40000000000000000000000008c00292dd6606e3bf93396095dad51ecb5fd5a9e0000000000000000000000009d45f61489c3f300e56f2e50fd1e693c6f33f73000000000000000000000000079f44b6a4a3dbc70d2bd5f0cf672eb086f574876000000000000000000000000ed66ed003ce771c83e6e6e72f26d4f5aaff0ffb700000000000000000000000005e09b6aaee666e6934e653da80c2196e8ad7ef9000000000000000000000000831ee9cd762b21e49accf7661c57011af07d63bf000000000000000000000000b212003bdc665898ea36023335ae474524dba4a30000000000000000000000003255dab7a2b7f1d939e686593b32c593d875218f000000000000000000000000000000000000000000000000000000000000001200000000000000000000000000000000000000000000000002c68af0bb14000000000000000000000000000000000000000000000000000075f610f70ed2000000000000000000000000000000000000000000000000000000000004cc855cb10000000000000000000000000000000000000000000000000148027417cf040000000000000000000000000000000000000000000000000000000017bfac7c0000000000000000000000000000000000000000000000000000000022ecb25c0000000000000000000000000000000000000000000000000000000006fc23ac000000000000000000000000000000000000000000000000000de0b6b3a764000000000000000000000000000000000000000000000000000000000002540be400000000000000000000000000000000000000000000000000000000027c1ac83c0000000000000000000000000000000000000000000000000000001ca134d1dd000000000000000000000000000000000000000000000000000000003b9aca000000000000000000000000000000000000000000000000000853a0d2313c000000000000000000000000000000000000000000000000021e19e0c9bab2400000000000000000000000000000000000000000000000000000000000022fa0c5400000000000000000000000000000000000000000000000000000000009c55f90000000000000000000000000000000000000000000000000000000111ff267e800000000000000000000000000000000000000000000152d02c7e14af6800000","txHash":"0x94df9c5fa18da460e5b5e79bb049737ea9427b9f22161c5094d9a09e7c1bb925","blockNumber":18723183,"transfers":[{"type":"ERC20_TRANSFER","executionDate":"2023-12-05T22:40:23Z","blockNumber":18723183,"transactionHash":"0x94df9c5fa18da460e5b5e79bb049737ea9427b9f22161c5094d9a09e7c1bb925","to":"0x8F7A61c9e0Cd12558d8657b918fFe3e461B869C1","value":"150000000000","tokenId":null,"tokenAddress":"0x1Bdfb4A34ac73503B320A1E95875B9Ed9EC082Ff","transferId":"e94df9c5fa18da460e5b5e79bb049737ea9427b9f22161c5094d9a09e7c1bb925160","tokenInfo":{"type":"ERC20","address":"0x1Bdfb4A34ac73503B320A1E95875B9Ed9EC082Ff","name":"USDC","symbol":"USDC","decimals":6,"logoUri":"https://safe-transaction-assets.safe.global/tokens/logos/0x1Bdfb4A34ac73503B320A1E95875B9Ed9EC082Ff.png","trusted":false},"from":"0x91c32893216dE3eA0a55ABb9851f581d4503d39b"}],"txType":"ETHEREUM_TRANSACTION","from":"0x831474A240e50F598449eEb56D659CbD15903283"},{"executionDate":"2023-12-02T10:34:35Z","to":"0x948F63e4A2C8C8D52020eDF0DE00AD1dB5668f45","data":"0xa9059cbb00000000000000000000000000000000000000000000000000000000000000a000000000000000000000000000000000000000000000000000000000000008400000000000000000000000000000000000000000000000000000000000000fe000000000000000000000000000000000000000000000000000000000000017800000000000000000000000000000000000000000000000000000000000001f20000000000000000000000000000000000000000000000000000000000000003c000000000000000000000000c61e895a89f4450a55d9b62690a725d9a8e3194300000000000000000000000023272925929fe22406347e9f570db4a84cdd067400000000000000000000000023272925929fe22406347e9f570db4a84cdd0674000000000000000000000000e25a90b8989d6f7a5e6b9f666cac76a6d59cb0e60000000000000000000000008ec73532e19572a771da63d327db6d496b5ee721000000000000000000000000df92127d72ddbef3d9481dd095521696e5218eaf0000000000000000000000003788c728af6cb5cce05467bbf4f18ff97cce58ee0000000000000000000000007096fbf74f8708ab85d1514c897e9a9b366886ba000000000000000000000000c981bf605a0f5f71dde0545145fed0b4d478e29a00000000000000000000000038aec2139633db0daf40fefb4c5d9c938cd832ed000000000000000000000000e270af7a2acbaf80ae86bef46cf8c03cd56d9f40000000000000000000000000da8a6f5e5fcdf29a2f27fa6947f5fe864a457eb70000000000000000000000001309c007567a71b393094c21e70bd2647356a352000000000000000000000000a31da00017f0f1c5d057a321027a0c57c1637c4d0000000000000000000000000008d343091ef8bd3efa730f6aae5a26a285c7a20000000000000000000000000ca757275746adb72fe7b3911b957ad065fc6d8a000000000000000000000000745755a6d22fe58ef109aab24d6df66a55c074fd000000000000000000000000df2f6d102b97b18e68c1ea598bd61c0a8c86f359000000000000000000000000128efbad8ea0dba3e2a3f3618b9eaac62658f8920000000000000000000000002ab7172d7f17ef7e19abe8bb177dcfabf332c80e000000000000000000000000d2855638a52a478d67d6eaba6969fd650f4b299b00000000000000000000000091c32893216de3ea0a55abb9851f581d4503d39b00000000000000000000000038414c0534b1d03e3dfb3054b0c4dd68cabdd0ea000000000000000000000000599d77de326fa5b1a0fa52cac7ec7818e659a0ad00000000000000000000000039e2434bb6a9d14e166cda16d02e05501bad9551000000000000000000000000a4e21542b3c0815b1449c51f73e2c37b8822e83b00000000000000000000000038414c0534b1d03e3dfb3054b0c4dd68cabdd0ea00000000000000000000000047b6e39adc0c3508877aaefe06e0d1a73aefe4d80000000000000000000000008c68a9a2e5b8eb98eab76f691ca26c8c4056e5fe0000000000000000000000007007ef6caf91299b2587fee1d1a220d3ce0a22a2000000000000000000000000450231268fd14911a9f9525038d594fa67ce32620000000000000000000000003fca599b725e1d6811cca3a7a2e65bb531d0fe8d0000000000000000000000000d06a817584ac378849f03df6f11a9ad67dd786d0000000000000000000000007c341973468a0f1e93b3f860a714ecd8bd95eed600000000000000000000000009be0cd1c763e454374b62f8d3aa358db5f6472200000000000000000000000092f65d0a8b9c30ed109e61e674f8a4706ea9e63d0000000000000000000000000ca757275746adb72fe7b3911b957ad065fc6d8a000000000000000000000000ab782bc7d4a2b306825de5a7730034f8f63ee1bc00000000000000000000000000349c42e261da59a01641460e91debb2dbe9af20000000000000000000000002ab7172d7f17ef7e19abe8bb177dcfabf332c80e0000000000000000000000002acf7263cfc7746e90b911364cf48dc7d0c5cb32000000000000000000000000aead78e74fccf70a1bb7eadd774a6c503232098e0000000000000000000000005bdf85216ec1e38d6458c870992a69e38e03f7ef00000000000000000000000047e8cddfb952149375fc1f16f24ef03238ccd3c70000000000000000000000004ed9321940de29d96f4c0b0f2c3cd46351c24d6a000000000000000000000000f3ce6997f78405b171f2e3a270523c7808766b650000000000000000000000003cc14fb96983aade13812a7efaca1b59eafafbd40000000000000000000000002ab7172d7f17ef7e19abe8bb177dcfabf332c80e00000000000000000000000004e1b198a18dd76e8f50bb708ae854881c45889100000000000000000000000047e8cddfb952149375fc1f16f24ef03238ccd3c700000000000000000000000094816b47c7e306aa085ee2e1c6deb3678672c7c200000000000000000000000013828e80acb4764ae5e19340617d444504cf6f2f0000000000000000000000005092019a3e0334586273a21a701f1bd859ecabd600000000000000000000000095789e033b93dcf4db865c3b516f40e3eb375bf20000000000000000000000007b5753f81f73d160583083c33b0f863837197fb3000000000000000000000000a75150f840642b537048242568de9601a56fdfd4000000000000000000000000ab782bc7d4a2b306825de5a7730034f8f63ee1bc000000000000000000000000f32dac721085f4cd5f21cd293e0aec92653cedbf00000000000000000000000064a40f604d42726ff4cf5dc84ac201e69b00893f00000000000000000000000089f2ab029dcd11bd5a00ed6a77ccbe46315212e8000000000000000000000000000000000000000000000000000000000000003c000000000000000000000000aa5cc9f552a3ccd9c409efdd2a97738a80b0c1090000000000000000000000001aa1beefdaa815bed5d28866ff950837346c22ce00000000000000000000000046e3e26e3fb687ba17e039c32de3a5296df875e1000000000000000000000000ffe977f3a3dc4ef50a806c5307adcc2857d43ede000000000000000000000000b272e1f904f82ddc3f7c1724b093bce29d7b26ab000000000000000000000000a7e5187e090fc88f2892a395e384d86dea2b7fbe000000000000000000000000a3010ac4ddd4aa580ff89bc86e9c3397502dcf72000000000000000000000000aa7fad1c31343fb044b20107197c3fa7de1ff606000000000000000000000000bb34dfeeba491ecf06ccc077154ef74c27f7889c000000000000000000000000d1192108a5c59211d3d4641b516b340019fb8c2c000000000000000000000000a22e1f376c3194a30083cbee767fb33442b0d192000000000000000000000000242d8fc2a9845bca5048f8f753d83efbde89d518000000000000000000000000cc9bc0ce6ad4e1875a96f8c1cb8d68004ebd6df20000000000000000000000004c579a1808d3517973af2785e75ef2df20fa290f000000000000000000000000c58cd6ca4569683c37f0eeb2430351bd3623542a0000000000000000000000004a7e4e05ea0541c8e008d84a92877890e88e52fe000000000000000000000000368d64a9466c4e49e16e13dd4a697f5b108b7afd000000000000000000000000dd07fb72351a5f0df2497ab0930544904d0b2db8000000000000000000000000cfc13d41b0ab92b798ba55aa4a34d40fe37e0c70000000000000000000000000b143f05e81288bb50badfe2f00b9d571a0607e3b0000000000000000000000000cf37c7a961ef0667c079727b61d702751481e20000000000000000000000000b1c3de469b59204028109b3f05698edb18250ab00000000000000000000000001fe9b3a4220bc952c95ac431482a2fb2858f35ec0000000000000000000000008194d0eeb74532818d6b0e2ad52a78b2c7e53a1300000000000000000000000053551f6c0edee2ffff2a801143ab55fb58bb389a000000000000000000000000080faf9c8075189cbde18eb0bcaf1fdd96cb160e000000000000000000000000a0c2159dae4b1b04c68c85e21705e598cfee386a000000000000000000000000e83b5a45447163023928fc79b21b5c33225bb7a5000000000000000000000000aeadcbf53c512687bc6e52aadd52944acfc9098e00000000000000000000000016ab4c5d470ddefd25588b267ce866f53f04c84e0000000000000000000000000a7c1eeecd20c8e836a4e5cdd7e693f744cf0cd500000000000000000000000072dc16a3045b9bcc8b552cfac1dee2a304fba951000000000000000000000000c8d69cdb10f23df15f587619f22602a42b869dc3000000000000000000000000f29b72b0fb8a405b9465c93536d5d0cd13efc563000000000000000000000000f3ce460e7839a80e021397e64589be9ebb146b650000000000000000000000007388a58fd7ea0dddf06b8dd39575361f2131d682000000000000000000000000b68913e8de254b35cd70b0faa2b99dc00a9e943e0000000000000000000000008712d82a1e6b15a772e66a5fbeee539ca6853de00000000000000000000000005660174881eafff9bac1db4c0620f70ec893589500000000000000000000000006527778c2dfa4b1cf42a140565733e6366678d3000000000000000000000000848010df1df8deaca87304eaa1e14770f825f68d000000000000000000000000bb40691ccb7e82557edbd6242f426ac40af64b68000000000000000000000000d1f67ab6d2c3cc551e578f1ec84b4b253af9d95b000000000000000000000000e74ce609083fbba812a4b6d9ad10e13dfce338cc000000000000000000000000f250b5d4c4b471e887a69a3e6810a32785032ffc0000000000000000000000008fdff7cc795b83e64030bf277e04a45eb40d6afa00000000000000000000000009716691a1ebe0e7d69df836f14cf6b96b5a4e5a000000000000000000000000105a6672fe3a5d63a7bc17461975d4d041a9e5a40000000000000000000000003da399f39feddc6a90b5b2e0d00bdeabf4ff8a4700000000000000000000000083f0f1e754a8dc9113f1fadc08acb0f8ae417f5a000000000000000000000000b650315139f4f5fd7f460b44ad09f70b7db91f0f000000000000000000000000ffb795d907e471f47e6fe0f20479506bc08e1903000000000000000000000000db21274ce3bfac7ad7e5d3eed29bbb1b05fdf0000000000000000000000000000c6774caf8c5747f0cc1475db7bccb2fa05aec5e000000000000000000000000967a27c307822a2b10e3b953b8624976ffbc1534000000000000000000000000e15fc229e284ad1b17375262e2fd0dbffea37323000000000000000000000000be9ac1aabfccbd03d098442234f1689473b906330000000000000000000000007e8bbceb97bb786a67b9a17db97f80ce1ae4ba43000000000000000000000000b859adf8b3aa8aed79fed44358da976876697124000000000000000000000000a346eb030465cbce8297abdec922354d6a73ff1a000000000000000000000000000000000000000000000000000000000000003c0000000000000000000000006e27223571be70471ae57447dd00b85c42b0eefe000000000000000000000000eea7dba31d8231796f29840dbabdfaa6abca46c6000000000000000000000000eea7dba31d8231796f29840dbabdfaa6abca46c60000000000000000000000006e27223571be70471ae57447dd00b85c42b0eefe0000000000000000000000006e27223571be70471ae57447dd00b85c42b0eefe0000000000000000000000006e27223571be70471ae57447dd00b85c42b0eefe0000000000000000000000006e27223571be70471ae57447dd00b85c42b0eefe000000000000000000000000eea7dba31d8231796f29840dbabdfaa6abca46c60000000000000000000000006e27223571be70471ae57447dd00b85c42b0eefe0000000000000000000000006e27223571be70471ae57447dd00b85c42b0eefe000000000000000000000000eea7dba31d8231796f29840dbabdfaa6abca46c6000000000000000000000000eea7dba31d8231796f29840dbabdfaa6abca46c6000000000000000000000000eea7dba31d8231796f29840dbabdfaa6abca46c60000000000000000000000006e27223571be70471ae57447dd00b85c42b0eefe000000000000000000000000eea7dba31d8231796f29840dbabdfaa6abca46c60000000000000000000000006e27223571be70471ae57447dd00b85c42b0eefe000000000000000000000000eea7dba31d8231796f29840dbabdfaa6abca46c60000000000000000000000006e27223571be70471ae57447dd00b85c42b0eefe000000000000000000000000eea7dba31d8231796f29840dbabdfaa6abca46c6000000000000000000000000eea7dba31d8231796f29840dbabdfaa6abca46c60000000000000000000000006e27223571be70471ae57447dd00b85c42b0eefe000000000000000000000000eea7dba31d8231796f29840dbabdfaa6abca46c60000000000000000000000006e27223571be70471ae57447dd00b85c42b0eefe000000000000000000000000eea7dba31d8231796f29840dbabdfaa6abca46c60000000000000000000000009c037419d34db38a57bdfb78a9e2df039583a2fa0000000000000000000000006e27223571be70471ae57447dd00b85c42b0eefe0000000000000000000000006e27223571be70471ae57447dd00b85c42b0eefe0000000000000000000000006e27223571be70471ae57447dd00b85c42b0eefe0000000000000000000000006e27223571be70471ae57447dd00b85c42b0eefe000000000000000000000000eea7dba31d8231796f29840dbabdfaa6abca46c60000000000000000000000006e27223571be70471ae57447dd00b85c42b0eefe000000000000000000000000eea7dba31d8231796f29840dbabdfaa6abca46c6000000000000000000000000eea7dba31d8231796f29840dbabdfaa6abca46c60000000000000000000000006e27223571be70471ae57447dd00b85c42b0eefe0000000000000000000000006e27223571be70471ae57447dd00b85c42b0eefe000000000000000000000000eea7dba31d8231796f29840dbabdfaa6abca46c60000000000000000000000006e27223571be70471ae57447dd00b85c42b0eefe000000000000000000000000eea7dba31d8231796f29840dbabdfaa6abca46c6000000000000000000000000eea7dba31d8231796f29840dbabdfaa6abca46c6000000000000000000000000eea7dba31d8231796f29840dbabdfaa6abca46c60000000000000000000000006e27223571be70471ae57447dd00b85c42b0eefe0000000000000000000000006e27223571be70471ae57447dd00b85c42b0eefe0000000000000000000000009c037419d34db38a57bdfb78a9e2df039583a2fa000000000000000000000000eea7dba31d8231796f29840dbabdfaa6abca46c60000000000000000000000006e27223571be70471ae57447dd00b85c42b0eefe0000000000000000000000006e27223571be70471ae57447dd00b85c42b0eefe0000000000000000000000006e27223571be70471ae57447dd00b85c42b0eefe000000000000000000000000eea7dba31d8231796f29840dbabdfaa6abca46c60000000000000000000000006e27223571be70471ae57447dd00b85c42b0eefe000000000000000000000000eea7dba31d8231796f29840dbabdfaa6abca46c60000000000000000000000006e27223571be70471ae57447dd00b85c42b0eefe000000000000000000000000eea7dba31d8231796f29840dbabdfaa6abca46c6000000000000000000000000eea7dba31d8231796f29840dbabdfaa6abca46c60000000000000000000000006e27223571be70471ae57447dd00b85c42b0eefe0000000000000000000000006e27223571be70471ae57447dd00b85c42b0eefe0000000000000000000000006e27223571be70471ae57447dd00b85c42b0eefe000000000000000000000000eea7dba31d8231796f29840dbabdfaa6abca46c60000000000000000000000006e27223571be70471ae57447dd00b85c42b0eefe000000000000000000000000eea7dba31d8231796f29840dbabdfaa6abca46c6000000000000000000000000eea7dba31d8231796f29840dbabdfaa6abca46c6000000000000000000000000000000000000000000000000000000000000003c000000000000000000000000000000000000000000000000010ed69114a77d40000000000000000000000000000000000000000000000000001aa535d3d0c0000000000000000000000000000000000000000000000000000027147114878000000000000000000000000000000000000000000000000000002386f26fc100000000000000000000000000000000000000000000000000000011c37937e080000000000000000000000000000000000000000000000000000069ec95a3fa7000000000000000000000000000000000000000000000000000002be04272f9e00000000000000000000000000000000000000000000000000000dfd22a8cd9800000000000000000000000000000000000000000000000000000013e32f4cbe24000000000000000000000000000000000000000000000000001cb13161c9620000000000000000000000000000000000000000000000000000005543df729c000000000000000000000000000000000000000000000000000001d06925bd0a00000000000000000000000000000000000000000000000000000b1a2bc2ec5000000000000000000000000000000000000000000000000000006f05b59d3b200000000000000000000000000000000000000000000000000000003328b944c400000000000000000000000000000000000000000000000000000005af3107a400000000000000000000000000000000000000000000000000006ccb91f9399db00000000000000000000000000000000000000000000000000063e66c7138a8b0000000000000000000000000000000000000000000000000000470de4df820000000000000000000000000000000000000000000000000000000110d9316ec00000000000000000000000000000000000000000000000000003b2d496ac4a1640000000000000000000000000000000000000000000000000000aa87bee5380000000000000000000000000000000000000000000000000000001c3f6dc2cb8000000000000000000000000000000000000000000000000001354ee1e9c1e8000000000000000000000000000000000000000000000004373a04692650e958000000000000000000000000000000000000000000000000000000ddb07829fc0000000000000000000000000000000000000000000000000000003a0579d130400000000000000000000000000000000000000000000000000017508f1956a80000000000000000000000000000000000000000000000000000df607ab840b00000000000000000000000000000000000000000000000000000011c37937e0800000000000000000000000000000000000000000000000000000037fda2f1a900000000000000000000000000000000000000000000000000000b1a2bc2ec5000000000000000000000000000000000000000000000000000000038d7ea4c680000000000000000000000000000000000000000000000000000008f2ca2f072c000000000000000000000000000000000000000000000000000106e69ba16100000000000000000000000000000000000000000000000000000000040f1f87960000000000000000000000000000000000000000000000000000044364c5bb00000000000000000000000000000000000000000000000000000001e5064782594000000000000000000000000000000000000000000000000000f8b0a10e47000000000000000000000000000000000000000000000000000000071afd498d00000000000000000000000000000000000000000000000000000005543df729c000000000000000000000000000000000000000000000000000049f0dbc56348000000000000000000000000000000000000000000000000a9654fb4199ca0000000000000000000000000000000000000000000000000000000003b1dfde910000000000000000000000000000000000000000000000000000000fe5fd215eb0000000000000000000000000000000000000000000000000000106e69ba161000000000000000000000000000000000000000000000000000006e2c35c43700c000000000000000000000000000000000000000000000000000002386f26fc1000000000000000000000000000000000000000000000000000065a0615240650000000000000000000000000000000000000000000000000000003d1b4f1223000000000000000000000000000000000000000000000000000002386f26fc10000000000000000000000000000000000000000000000000000002aa1efb94e000000000000000000000000000000000000000000000000000000154e2d126494000000000000000000000000000000000000000000000000000000013a52453c0000000000000000000000000000000000000000000000000000ca8132b0328000000000000000000000000000000000000000000000000000000aa87bee538000000000000000000000000000000000000000000000000000000284d4ed25500000000000000000000000000000000000000000000000000001fa2f4df8845000000000000000000000000000000000000000000000000000001669a36607b00000000000000000000000000000000000000000000000000000044cd169d0a5800000000000000000000000000000000000000000000000000000000000000000","txHash":"0x1827cdb471e5cb7563b817d3e7331b5e7b5eaba70c01849f51e27fc8428c3631","blockNumber":18698153,"transfers":[{"type":"ERC20_TRANSFER","executionDate":"2023-12-02T10:34:35Z","blockNumber":18698153,"transactionHash":"0x1827cdb471e5cb7563b817d3e7331b5e7b5eaba70c01849f51e27fc8428c3631","to":"0xb1c3dE469B59204028109b3f05698EDb18250Ab0","value":"3000000000000000","tokenId":null,"tokenAddress":"0xEea7DBA31d8231796F29840DbabdfaA6ABca46c6","transferId":"e1827cdb471e5cb7563b817d3e7331b5e7b5eaba70c01849f51e27fc8428c3631414","tokenInfo":{"type":"ERC20","address":"0xEea7DBA31d8231796F29840DbabdfaA6ABca46c6","name":"UЅD Coin","symbol":"UЅDC","decimals":12,"logoUri":"https://safe-transaction-assets.safe.global/tokens/logos/0xEea7DBA31d8231796F29840DbabdfaA6ABca46c6.png","trusted":false},"from":"0x91c32893216dE3eA0a55ABb9851f581d4503d39b"}],"txType":"ETHEREUM_TRANSACTION","from":"0x92801aBaE6f269dD52845d9D307dbacF46b6cBdD"},{"executionDate":"2023-12-01T22:35:47Z","to":"0xa555405C6F7eA5A232828b3C2120ebE2Ce76024F","data":"0xd48e983d00000000000000000000000000000000000000000000000000000000000000200000000000000000000000000000000000000000000000000000000000000019000000000000000000000000291b089a6f9c744385792c828a407200d9aca0b5000000000000000000000000d8a28ac64dd40dbacbfc5d8b9e80d04f43971f7d000000000000000000000000dac17f958d2ee523a2206206994597c13d831ec70000000000000000000000000ff58ac7b5b2495978ccd82a88264e9f31a7e817000000000000000000000000360c1e36804d59427a7a7ca951d8059e926ecf3b000000000000000000000000dac17f958d2ee523a2206206994597c13d831ec70000000000000000000000005ddef523996387adb2f45380a0a74f26ecae4df1000000000000000000000000aaf5a7dd18ed179fa650e143b8e0b262f929919f000000000000000000000000dac17f958d2ee523a2206206994597c13d831ec7000000000000000000000000954818f9a752eeb5ac4deefd4cff0868ff8f8f830000000000000000000000006b9eb2dd213172de407127ecaadb6fdf1a897910000000000000000000000000a0b86991c6218b36c1d19d4a2e9eb0ce3606eb48000000000000000000000000aead78e74fccf70a1bb7eadd774a6c503232098e000000000000000000000000bb444f2c619e1d7d04eb71ed5c76d31cd8334b68000000000000000000000000dac17f958d2ee523a2206206994597c13d831ec7000000000000000000000000da8a6f5e5fcdf29a2f27fa6947f5fe864a457eb700000000000000000000000024222d5cd5988c4989ae5e9266b30a0b881ad518000000000000000000000000a0b86991c6218b36c1d19d4a2e9eb0ce3606eb480000000000000000000000007333ee1b57c9127efdb3a1657477a77b41526b260000000000000000000000005acd3161bef43484b4cadede159bb91d717f01bf000000000000000000000000dac17f958d2ee523a2206206994597c13d831ec700000000000000000000000091c32893216de3ea0a55abb9851f581d4503d39b000000000000000000000000b1c9705b16178d29db554170b5770169e4770ab0000000000000000000000000a0b86991c6218b36c1d19d4a2e9eb0ce3606eb48000000000000000000000000291b089a6f9c744385792c828a407200d9aca0b50000000000000000000000006c9b2ab5413e4e1956f704dbbd2a47b1a530f25e000000000000000000000000dac17f958d2ee523a2206206994597c13d831ec7000000000000000000000000954818f9a752eeb5ac4deefd4cff0868ff8f8f830000000000000000000000000e936fecd9ca7c6346bdd6d9b20c7065eb4d1082000000000000000000000000a0b86991c6218b36c1d19d4a2e9eb0ce3606eb480000000000000000000000002d944d8f12a29345a3c9adbb51112e16a50dd4b30000000000000000000000001a68b0fc3536967041ac5a60508ac625e6227b0f000000000000000000000000dac17f958d2ee523a2206206994597c13d831ec7000000000000000000000000291b089a6f9c744385792c828a407200d9aca0b500000000000000000000000077751dd9dab59a2c90fd793b798ebd6cf86d2d51000000000000000000000000dac17f958d2ee523a2206206994597c13d831ec70000000000000000000000002ab7172d7f17ef7e19abe8bb177dcfabf332c80e0000000000000000000000000656704d5e1fa8a249a1213b75115052cb9b78d3000000000000000000000000a0b86991c6218b36c1d19d4a2e9eb0ce3606eb480000000000000000000000003fca599b725e1d6811cca3a7a2e65bb531d0fe8d00000000000000000000000072d58559f6940dfbf4f1e2dd0f1a5dc793ffa951000000000000000000000000a0b86991c6218b36c1d19d4a2e9eb0ce3606eb48000000000000000000000000954818f9a752eeb5ac4deefd4cff0868ff8f8f830000000000000000000000005f7e0030b5313e0461fb6860d5045e88540ee6e4000000000000000000000000a0b86991c6218b36c1d19d4a2e9eb0ce3606eb48000000000000000000000000954818f9a752eeb5ac4deefd4cff0868ff8f8f83000000000000000000000000149ba10b5576d352de3acafb83473ff73d5374c9000000000000000000000000a0b86991c6218b36c1d19d4a2e9eb0ce3606eb48000000000000000000000000291b089a6f9c744385792c828a407200d9aca0b5000000000000000000000000ea472646818de853c55f513370194bd5b73befb7000000000000000000000000dac17f958d2ee523a2206206994597c13d831ec70000000000000000000000002ab7172d7f17ef7e19abe8bb177dcfabf332c80e0000000000000000000000000656704d5e1fa8a249a1213b75115052cb9b78d3000000000000000000000000a0b86991c6218b36c1d19d4a2e9eb0ce3606eb48000000000000000000000000954818f9a752eeb5ac4deefd4cff0868ff8f8f8300000000000000000000000019052e6b1e2b866a3db9143a95508c73ea70d5cd000000000000000000000000a0b86991c6218b36c1d19d4a2e9eb0ce3606eb48000000000000000000000000954818f9a752eeb5ac4deefd4cff0868ff8f8f830000000000000000000000009b14e08e55440111026dada0da370ba1d2ea47fb000000000000000000000000a0b86991c6218b36c1d19d4a2e9eb0ce3606eb480000000000000000000000003cc14fb96983aade13812a7efaca1b59eafafbd4000000000000000000000000097dc73c0f77387f7d8e9c5213e423b9c29d4e5a000000000000000000000000dac17f958d2ee523a2206206994597c13d831ec7000000000000000000000000954818f9a752eeb5ac4deefd4cff0868ff8f8f830000000000000000000000002ecfc9397c5c5336750628c20c5e8689e19b08dc000000000000000000000000a0b86991c6218b36c1d19d4a2e9eb0ce3606eb48000000000000000000000000abc02266e32dba984bc324c04930dd6c9267811a0000000000000000000000001628542c1fb6db1d26cd57bb2e727ef52d1e54d1000000000000000000000000dac17f958d2ee523a2206206994597c13d831ec7000000000000000000000000d59d53250e6dc0efad7bc1e6b5e6a14f7525a155000000000000000000000000e9eb1a015898b2830b22820afbbbf184def7febc000000000000000000000000dac17f958d2ee523a2206206994597c13d831ec7000000000000000000000000291b089a6f9c744385792c828a407200d9aca0b5000000000000000000000000d9a36ccedf4e3e78e22ba0f4fe5e0f39f32d25a4000000000000000000000000dac17f958d2ee523a2206206994597c13d831ec7","txHash":"0x6ff4b1850d8fa100faada631f6557facbc1aa2a67b6f14626129d6cccc06b53b","blockNumber":18694580,"transfers":[{"type":"ERC20_TRANSFER","executionDate":"2023-12-01T22:35:47Z","blockNumber":18694580,"transactionHash":"0x6ff4b1850d8fa100faada631f6557facbc1aa2a67b6f14626129d6cccc06b53b","to":"0xb1C9705B16178D29DB554170b5770169e4770aB0","value":"0","tokenId":null,"tokenAddress":"0xA0b86991c6218b36c1d19D4a2e9Eb0cE3606eB48","transferId":"e6ff4b1850d8fa100faada631f6557facbc1aa2a67b6f14626129d6cccc06b53b142","tokenInfo":{"type":"ERC20","address":"0xA0b86991c6218b36c1d19D4a2e9Eb0cE3606eB48","name":"USD Coin","symbol":"USDC","decimals":6,"logoUri":"https://safe-transaction-assets.safe.global/tokens/logos/0xA0b86991c6218b36c1d19D4a2e9Eb0cE3606eB48.png","trusted":true},"from":"0x91c32893216dE3eA0a55ABb9851f581d4503d39b"}],"txType":"ETHEREUM_TRANSACTION","from":"0x5C2960b3C4Ea38c808F4f8eF2603e35cAfeEDCd3"},{"executionDate":"2023-12-01T22:31:47Z","to":"0x461580CdAA29FF517282894819A650a47980fD9E","data":"0xe19c2253000000000000000000000000000000000000000000000000000000000000008000000000000000000000000000000000000000000000000000000000000001a000000000000000000000000000000000000000000000000000000000000002c000000000000000000000000000000000000000000000000000000000000003e00000000000000000000000000000000000000000000000000000000000000008000000000000000000000000402f8b4ae6de0a1755c6b9bc025c4cfcc4835007000000000000000000000000402f8b4ae6de0a1755c6b9bc025c4cfcc483500700000000000000000000000032fcd470af65e24e5ee0463d61426eaf0fc15820000000000000000000000000ce2e46afcc50c29daeb29cc3e5a6a5e45cd2f39700000000000000000000000032fcd470af65e24e5ee0463d61426eaf0fc15820000000000000000000000000402f8b4ae6de0a1755c6b9bc025c4cfcc4835007000000000000000000000000ce2e46afcc50c29daeb29cc3e5a6a5e45cd2f397000000000000000000000000ce2e46afcc50c29daeb29cc3e5a6a5e45cd2f3970000000000000000000000000000000000000000000000000000000000000008000000000000000000000000954818f9a752eeb5ac4deefd4cff0868ff8f8f8300000000000000000000000091c32893216de3ea0a55abb9851f581d4503d39b0000000000000000000000008884e23ca7f8b2fd0dcf6528a9047c81f8a9ab690000000000000000000000005ddef523996387adb2f45380a0a74f26ecae4df1000000000000000000000000b585c5ea594b4f8e372e7561fbb20a5d4656aeee00000000000000000000000047ee50b84e4e7964c75d56b3aef6e2eb01075f0d000000000000000000000000291b089a6f9c744385792c828a407200d9aca0b5000000000000000000000000a8177b35cea28114945efa85d2fa09f45e575ec100000000000000000000000000000000000000000000000000000000000000080000000000000000000000005f77221c9fdadf3a95b2388185386620a50ee6e4000000000000000000000000b1c758d03263d7b8914a6d864aa89b1a7e770ab000000000000000000000000055e8cdd9a2749242bcf1ca0a77d52096bfcc9337000000000000000000000000aaf4f74d5a92e4d1cf67ef8c10a8d549b429919f000000000000000000000000acb660371e27959184d615b0504cd9d458fd78690000000000000000000000003c551787656b37ecfa1ba9219c63610075ec853e000000000000000000000000ea411af826cc8effbbe18f13231c8ddf553befb70000000000000000000000004b0ccf6c704b97465655dc494c491b0bfda953c20000000000000000000000000000000000000000000000000000000000000008000000000000000000000000000000000000000000000000000000000f05370000000000000000000000000000000000000000000000000000000000b2d05e0000000000000000000000000000000000000000000000000001dc6b3d50614000000000000000000000000000000000000000000000000000000000000cd0a3c0000000000000000000000000000000000000000000000000231c5d9871bd0000000000000000000000000000000000000000000000000000000000012a05f20000000000000000000000000000000000000000000000000000000000c41b3782000000000000000000000000000000000000000000000000000000020000ff80","txHash":"0xf4b6445f01f7d0874aec6d5e836ba4a075a3ca0fce57db5c31700178d5882542","blockNumber":18694560,"transfers":[{"type":"ERC20_TRANSFER","executionDate":"2023-12-01T22:31:47Z","blockNumber":18694560,"transactionHash":"0xf4b6445f01f7d0874aec6d5e836ba4a075a3ca0fce57db5c31700178d5882542","to":"0xB1C758D03263d7b8914a6d864aA89b1a7E770ab0","value":"3000000000","tokenId":null,"tokenAddress":"0x402F8b4aE6De0A1755C6B9bc025C4CfCc4835007","transferId":"ef4b6445f01f7d0874aec6d5e836ba4a075a3ca0fce57db5c31700178d5882542181","tokenInfo":{"type":"ERC20","address":"0x402F8b4aE6De0A1755C6B9bc025C4CfCc4835007","name":"USDC","symbol":"USDC","decimals":6,"logoUri":"https://safe-transaction-assets.safe.global/tokens/logos/0x402F8b4aE6De0A1755C6B9bc025C4CfCc4835007.png","trusted":false},"from":"0x91c32893216dE3eA0a55ABb9851f581d4503d39b"}],"txType":"ETHEREUM_TRANSACTION","from":"0x3b34eF70C46E31825dd6812A7946D5D32Da1eE89"},{"safe":"0x91c32893216dE3eA0a55ABb9851f581d4503d39b","to":"0xA0b86991c6218b36c1d19D4a2e9Eb0cE3606eB48","value":"0","data":"0xa9059cbb000000000000000000000000b1c376b6a13fc92009b4b512c46a872c62770ab000000000000000000000000000000000000000000000000000000000b2d05e00","operation":0,"gasToken":"0x0000000000000000000000000000000000000000","safeTxGas":0,"baseGas":0,"gasPrice":"0","refundReceiver":"0x0000000000000000000000000000000000000000","nonce":66,"executionDate":"2023-12-01T22:28:59Z","submissionDate":"2023-11-30T19:07:38.723836Z","modified":"2023-12-01T22:29:17.739297Z","blockNumber":18694546,"transactionHash":"0x0ed4c558e28b0a1ba979a31fbfaff8dd5b7d387baadb619cae608962e32ab6ac","safeTxHash":"0x44062edf5e098a46436ad67c6c84499ac07d3d0efc9076a53879d7618c19f592","proposer":"0x70B8769B09aF7447886620c20854c8B9119b5FeE","executor":"0x0Cb456037eF2843c5503879Bb8F9282673dc6005","isExecuted":true,"isSuccessful":true,"ethGasPrice":"30209369601","maxFeePerGas":"46500000000","maxPriorityFeePerGas":"882219096","gasUsed":123030,"fee":"3716658742011030","origin":"{}","dataDecoded":{"method":"transfer","parameters":[{"name":"to","type":"address","value":"0xb1C376b6a13fc92009b4B512c46a872c62770ab0"},{"name":"value","type":"uint256","value":"3000000000"}]},"confirmationsRequired":3,"confirmations":[{"owner":"0x70B8769B09aF7447886620c20854c8B9119b5FeE","submissionDate":"2023-11-30T19:07:38.754223Z","transactionHash":null,"signature":"0x6cc806f3a5d6fbf1c0ad4df49812d16b21897f0fc16f249d119b23110dd568972ce602ea7cd3a40ef881e3c6d7c8a1036c3138855d669b5f25b57a39e4ce14d91c","signatureType":"EOA"},{"owner":"0x7024E5e2241eE7C6d09048547A410a3c4294b884","submissionDate":"2023-11-30T19:11:10.401880Z","transactionHash":null,"signature":"0x7d51fc9811821b576553369f025370c9fe6195919db0ffab0097f0b840a103cb583f892d62ec652e52f5e4d29b2e2bec934f9779c643974bca3a6ee858d880621b","signatureType":"EOA"},{"owner":"0xb8c2C29ee19D8307cb7255e1Cd9CbDE883A267d5","submissionDate":"2023-12-01T15:23:06.156123Z","transactionHash":null,"signature":"0x4d6b6ccb277e1ecaab84588601dfd9087c64c4a8f76bb368377415bda77e1e783391cf82c3ab40f3d1a9594681276395264b82c1471feeb9780ae6bb6a1b8fb11b","signatureType":"EOA"}],"trusted":true,"signatures":"0x7d51fc9811821b576553369f025370c9fe6195919db0ffab0097f0b840a103cb583f892d62ec652e52f5e4d29b2e2bec934f9779c643974bca3a6ee858d880621b6cc806f3a5d6fbf1c0ad4df49812d16b21897f0fc16f249d119b23110dd568972ce602ea7cd3a40ef881e3c6d7c8a1036c3138855d669b5f25b57a39e4ce14d91c4d6b6ccb277e1ecaab84588601dfd9087c64c4a8f76bb368377415bda77e1e783391cf82c3ab40f3d1a9594681276395264b82c1471feeb9780ae6bb6a1b8fb11b","transfers":[{"type":"ERC20_TRANSFER","executionDate":"2023-12-01T22:28:59Z","blockNumber":18694546,"transactionHash":"0x0ed4c558e28b0a1ba979a31fbfaff8dd5b7d387baadb619cae608962e32ab6ac","to":"0xb1C376b6a13fc92009b4B512c46a872c62770ab0","value":"3000000000","tokenId":null,"tokenAddress":"0xA0b86991c6218b36c1d19D4a2e9Eb0cE3606eB48","transferId":"e0ed4c558e28b0a1ba979a31fbfaff8dd5b7d387baadb619cae608962e32ab6ac193","tokenInfo":{"type":"ERC20","address":"0xA0b86991c6218b36c1d19D4a2e9Eb0cE3606eB48","name":"USD Coin","symbol":"USDC","decimals":6,"logoUri":"https://safe-transaction-assets.safe.global/tokens/logos/0xA0b86991c6218b36c1d19D4a2e9Eb0cE3606eB48.png","trusted":true},"from":"0x91c32893216dE3eA0a55ABb9851f581d4503d39b"}],"txType":"MULTISIG_TRANSACTION"},{"executionDate":"2023-11-30T14:02:11Z","to":"0x9279B5d5c550BDD9Af968aE561c6BA4Bf74093CB","data":"0x2c4167760000000000000000000000000000000000000000000000000000000000000020000000000000000000000000000000000000000000000000000000000000000a000000000000000000000000000000000000000000000000000000000000014000000000000000000000000000000000000000000000000000000000000003400000000000000000000000000000000000000000000000000000000000000540000000000000000000000000000000000000000000000000000000000000074000000000000000000000000000000000000000000000000000000000000009400000000000000000000000000000000000000000000000000000000000000b400000000000000000000000000000000000000000000000000000000000000d400000000000000000000000000000000000000000000000000000000000000f40000000000000000000000000000000000000000000000000000000000000114000000000000000000000000000000000000000000000000000000000000013400000000000000000000000000000000000000000000000000000000000000080000000000000000000000000000000000000000000000000000000000000001c3843f7f84e94063dd81cc3eaddb287def96242b647e6e0c26cdd44914ad7663e086cb9730ef8f8e7e43a62529bf5397b7926cebc2c10f2e66e3b4c2c6fc44ae200000000000000000000000000000000000000000000000000000000000000e0000000000000000000000000000000000000000000000000000000000000014000000000000000000000000091c32893216de3ea0a55abb9851f581d4503d39b000000000000000000000000a7860e99e3ce0752d1ac53b974e309fff80277c6000000000000000000000000a0b86991c6218b36c1d19d4a2e9eb0ce3606eb480000000000000000000000000000000000000000000000000000000147d357000000000000000000000000000000000000000000000000000000000000000000000000000000000000000000000000000000000000000000000000000000002434346361643138302d663666332d343463642d393162382d64353236376264626537653900000000000000000000000000000000000000000000000000000000000000000000000000000000000000000000000000000000000000000000001c35202d202831312f33302f323032332030393a303020414d20455429000000000000000000000000000000000000000000000000000000000000000000000080000000000000000000000000000000000000000000000000000000000000001b81b1c03f4504db9d0030f0dbb571555b4eb8b6e97d0a91c0104caedcc84792af60d7c02e379a579ea4b5f2d824e60d40f00a7a7d9f17cd3f18ff006b97566fbb00000000000000000000000000000000000000000000000000000000000000e0000000000000000000000000000000000000000000000000000000000000014000000000000000000000000091c32893216de3ea0a55abb9851f581d4503d39b000000000000000000000000d2cc2e47c2aecd01c87b83290c0ee76ba67a7211000000000000000000000000a0b86991c6218b36c1d19d4a2e9eb0ce3606eb48000000000000000000000000000000000000000000000000000000010c388d000000000000000000000000000000000000000000000000000000000000000000000000000000000000000000000000000000000000000000000000000000002464643737346565392d346339352d346530382d393263642d34363865623161303731366300000000000000000000000000000000000000000000000000000000000000000000000000000000000000000000000000000000000000000000001b31202d202831322f312f323032332030393a303020414d2045542900000000000000000000000000000000000000000000000000000000000000000000000080000000000000000000000000000000000000000000000000000000000000001cc18b2a3db554fb6b5e726b395c842481a7df56d6c19fd46191c7078f1dbf52ff4f30d95ca9ad50f1dec4ae060554af79f706dbfa94078d948fb00ea11e990f2200000000000000000000000000000000000000000000000000000000000000e0000000000000000000000000000000000000000000000000000000000000014000000000000000000000000091c32893216de3ea0a55abb9851f581d4503d39b00000000000000000000000054becc7560a7be76d72ed76a1f5fee6c5a2a7ab6000000000000000000000000a0b86991c6218b36c1d19d4a2e9eb0ce3606eb48000000000000000000000000000000000000000000000000000000010c388d000000000000000000000000000000000000000000000000000000000000000000000000000000000000000000000000000000000000000000000000000000002461343662623961622d313565612d346330302d396462662d35623161373632306233383700000000000000000000000000000000000000000000000000000000000000000000000000000000000000000000000000000000000000000000001b32202d202831322f312f323032332030393a303020414d2045542900000000000000000000000000000000000000000000000000000000000000000000000080000000000000000000000000000000000000000000000000000000000000001c17f33e71bf3ff12c6093b0730e533e6171c0bd8ecf3227e0e1e25976aded79d93ec4ca67a3d826af6daf4736ae1bc33514687b7a29b7fa72ed13dae98b95b4a500000000000000000000000000000000000000000000000000000000000000e0000000000000000000000000000000000000000000000000000000000000014000000000000000000000000091c32893216de3ea0a55abb9851f581d4503d39b0000000000000000000000001d921dff757610fbdb0073479e12c0a07d382677000000000000000000000000a0b86991c6218b36c1d19d4a2e9eb0ce3606eb48000000000000000000000000000000000000000000000000000000010c388d000000000000000000000000000000000000000000000000000000000000000000000000000000000000000000000000000000000000000000000000000000002432633763313065622d653164662d346566372d613537652d64636530353138386561643000000000000000000000000000000000000000000000000000000000000000000000000000000000000000000000000000000000000000000000001b33202d202831322f312f323032332030393a303020414d2045542900000000000000000000000000000000000000000000000000000000000000000000000080000000000000000000000000000000000000000000000000000000000000001bbc22ee87a3526189f1c42aac889430ccf54bd1e0e1b52b767db1d2de1f5265da2a60cb3a2d7286bd519e239df091000cd9f5aaa6c05123bda18afdc514b754d300000000000000000000000000000000000000000000000000000000000000e0000000000000000000000000000000000000000000000000000000000000014000000000000000000000000091c32893216de3ea0a55abb9851f581d4503d39b0000000000000000000000007024e5e2241ee7c6d09048547a410a3c4294b884000000000000000000000000a0b86991c6218b36c1d19d4a2e9eb0ce3606eb480000000000000000000000000000000000000000000000000000000147d357000000000000000000000000000000000000000000000000000000000000000000000000000000000000000000000000000000000000000000000000000000002432663935393534382d316165612d346465652d383337612d64666165656634356632306100000000000000000000000000000000000000000000000000000000000000000000000000000000000000000000000000000000000000000000001c34202d202831312f33302f323032332030393a303020414d20455429000000000000000000000000000000000000000000000000000000000000000000000080000000000000000000000000000000000000000000000000000000000000001b1e3f74e6657189c2170965de5e3bc45c9003aa2f4da3e1fdc4283ba68ada3945159310f237b655b19f63cc1bf67087b22cd775f59c0224f5ff91f8bd37c2ae0800000000000000000000000000000000000000000000000000000000000000e0000000000000000000000000000000000000000000000000000000000000014000000000000000000000000091c32893216de3ea0a55abb9851f581d4503d39b000000000000000000000000f413a13c4f2c213ee403eef16eff41d29a907222000000000000000000000000a0b86991c6218b36c1d19d4a2e9eb0ce3606eb48000000000000000000000000000000000000000000000000000000010c388d000000000000000000000000000000000000000000000000000000000000000000000000000000000000000000000000000000000000000000000000000000002462643734653034662d653664352d343764612d386633642d33306231316635306131626400000000000000000000000000000000000000000000000000000000000000000000000000000000000000000000000000000000000000000000001c36202d202831312f33302f323032332030393a303020414d20455429000000000000000000000000000000000000000000000000000000000000000000000080000000000000000000000000000000000000000000000000000000000000001ccb5b38937b9525b7fd4d986ece4a0f9a34abd489259afea87124162b580c7d1c0de9382caf1e2109aaf7abd5e5d2fe711a72b7b289a145ee2ca9f1f00da2fd6500000000000000000000000000000000000000000000000000000000000000e0000000000000000000000000000000000000000000000000000000000000014000000000000000000000000091c32893216de3ea0a55abb9851f581d4503d39b000000000000000000000000b9a0fb254aea7bcec79c7bd8052dcd902a5388ff000000000000000000000000a0b86991c6218b36c1d19d4a2e9eb0ce3606eb480000000000000000000000000000000000000000000000000000000147d357000000000000000000000000000000000000000000000000000000000000000000000000000000000000000000000000000000000000000000000000000000002435366462663134392d373362612d346462312d626439312d66326132623134326533336300000000000000000000000000000000000000000000000000000000000000000000000000000000000000000000000000000000000000000000001c37202d202831312f33302f323032332030393a303020414d20455429000000000000000000000000000000000000000000000000000000000000000000000080000000000000000000000000000000000000000000000000000000000000001cf0c357b7de68813daa3d77250eb9b4b20be3a8a29b818082c84d155b6fd7f54f037aa476374539d1ab4ece377b8d9c9bb78cc62aefc309ffe3711af2841e478900000000000000000000000000000000000000000000000000000000000000e0000000000000000000000000000000000000000000000000000000000000014000000000000000000000000091c32893216de3ea0a55abb9851f581d4503d39b000000000000000000000000a7860e99e3ce0752d1ac53b974e309fff80277c6000000000000000000000000a0b86991c6218b36c1d19d4a2e9eb0ce3606eb4800000000000000000000000000000000000000000000000000000000ee6b28000000000000000000000000000000000000000000000000000000000000000000000000000000000000000000000000000000000000000000000000000000002465636438306639342d623233392d346230622d613132612d35346361326263333336613600000000000000000000000000000000000000000000000000000000000000000000000000000000000000000000000000000000000000000000001c38202d202831312f33302f323032332030393a303020414d20455429000000000000000000000000000000000000000000000000000000000000000000000080000000000000000000000000000000000000000000000000000000000000001b46c85f54c80c91f5f541903783055f7bdfe5a27db6fbb10e71632a6fc37a94ee29d68a9b6438b28234340270d79c9642d872912f39f80332a9d3d7b7c3b33bda00000000000000000000000000000000000000000000000000000000000000e0000000000000000000000000000000000000000000000000000000000000014000000000000000000000000091c32893216de3ea0a55abb9851f581d4503d39b000000000000000000000000c28de09ad1a20737b92834943558ddfcc88d020d000000000000000000000000a0b86991c6218b36c1d19d4a2e9eb0ce3606eb4800000000000000000000000000000000000000000000000000000000ee6b28000000000000000000000000000000000000000000000000000000000000000000000000000000000000000000000000000000000000000000000000000000002465303562636565662d336637632d343731322d386338372d33373538323062616463656300000000000000000000000000000000000000000000000000000000000000000000000000000000000000000000000000000000000000000000001c39202d202831312f33302f323032332030393a303020414d20455429000000000000000000000000000000000000000000000000000000000000000000000080000000000000000000000000000000000000000000000000000000000000001befcddf314fcd73aa6d29fa9452e78e4715f2e8503d81062d69ad00a5b92b1f43775335989a3c241fc37a82b9dd478effb1bf542f88ae927a91412a28f067a1ac00000000000000000000000000000000000000000000000000000000000000e0000000000000000000000000000000000000000000000000000000000000014000000000000000000000000013aee52c1c688d3554a15556c5353cb0c3696ea200000000000000000000000060dbf50076206f60bcc2edf9295f5734561b8d77000000000000000000000000a0b86991c6218b36c1d19d4a2e9eb0ce3606eb480000000000000000000000000000000000000000000000000000000059682f000000000000000000000000000000000000000000000000000000000000000000000000000000000000000000000000000000000000000000000000000000002437656664333031632d616161652d346339622d386431662d37623561303837393534663300000000000000000000000000000000000000000000000000000000000000000000000000000000000000000000000000000000000000000000001c31202d202831312f33302f323032332030393a303020414d2045542900000000","txHash":"0x50c1b5605007d96a0f3e7814ee817372f594769c448852d259835fd448079f1d","blockNumber":18684885,"transfers":[{"type":"ERC20_TRANSFER","executionDate":"2023-11-30T14:02:11Z","blockNumber":18684885,"transactionHash":"0x50c1b5605007d96a0f3e7814ee817372f594769c448852d259835fd448079f1d","to":"0xf413a13C4F2c213eE403eEF16EfF41D29A907222","value":"4500000000","tokenId":null,"tokenAddress":"0xA0b86991c6218b36c1d19D4a2e9Eb0cE3606eB48","transferId":"e50c1b5605007d96a0f3e7814ee817372f594769c448852d259835fd448079f1d118","tokenInfo":{"type":"ERC20","address":"0xA0b86991c6218b36c1d19D4a2e9Eb0cE3606eB48","name":"USD Coin","symbol":"USDC","decimals":6,"logoUri":"https://safe-transaction-assets.safe.global/tokens/logos/0xA0b86991c6218b36c1d19D4a2e9Eb0cE3606eB48.png","trusted":true},"from":"0x91c32893216dE3eA0a55ABb9851f581d4503d39b"},{"type":"ERC20_TRANSFER","executionDate":"2023-11-30T14:02:11Z","blockNumber":18684885,"transactionHash":"0x50c1b5605007d96a0f3e7814ee817372f594769c448852d259835fd448079f1d","to":"0x1d921dff757610FbDB0073479e12c0a07d382677","value":"4500000000","tokenId":null,"tokenAddress":"0xA0b86991c6218b36c1d19D4a2e9Eb0cE3606eB48","transferId":"e50c1b5605007d96a0f3e7814ee817372f594769c448852d259835fd448079f1d114","tokenInfo":{"type":"ERC20","address":"0xA0b86991c6218b36c1d19D4a2e9Eb0cE3606eB48","name":"USD Coin","symbol":"USDC","decimals":6,"logoUri":"https://safe-transaction-assets.safe.global/tokens/logos/0xA0b86991c6218b36c1d19D4a2e9Eb0cE3606eB48.png","trusted":true},"from":"0x91c32893216dE3eA0a55ABb9851f581d4503d39b"},{"type":"ERC20_TRANSFER","executionDate":"2023-11-30T14:02:11Z","blockNumber":18684885,"transactionHash":"0x50c1b5605007d96a0f3e7814ee817372f594769c448852d259835fd448079f1d","to":"0x54BeCc7560a7Be76d72ED76a1f5fee6C5a2A7Ab6","value":"4500000000","tokenId":null,"tokenAddress":"0xA0b86991c6218b36c1d19D4a2e9Eb0cE3606eB48","transferId":"e50c1b5605007d96a0f3e7814ee817372f594769c448852d259835fd448079f1d112","tokenInfo":{"type":"ERC20","address":"0xA0b86991c6218b36c1d19D4a2e9Eb0cE3606eB48","name":"USD Coin","symbol":"USDC","decimals":6,"logoUri":"https://safe-transaction-assets.safe.global/tokens/logos/0xA0b86991c6218b36c1d19D4a2e9Eb0cE3606eB48.png","trusted":true},"from":"0x91c32893216dE3eA0a55ABb9851f581d4503d39b"},{"type":"ERC20_TRANSFER","executionDate":"2023-11-30T14:02:11Z","blockNumber":18684885,"transactionHash":"0x50c1b5605007d96a0f3e7814ee817372f594769c448852d259835fd448079f1d","to":"0xd2cc2e47c2Aecd01C87B83290c0Ee76BA67a7211","value":"4500000000","tokenId":null,"tokenAddress":"0xA0b86991c6218b36c1d19D4a2e9Eb0cE3606eB48","transferId":"e50c1b5605007d96a0f3e7814ee817372f594769c448852d259835fd448079f1d110","tokenInfo":{"type":"ERC20","address":"0xA0b86991c6218b36c1d19D4a2e9Eb0cE3606eB48","name":"USD Coin","symbol":"USDC","decimals":6,"logoUri":"https://safe-transaction-assets.safe.global/tokens/logos/0xA0b86991c6218b36c1d19D4a2e9Eb0cE3606eB48.png","trusted":true},"from":"0x91c32893216dE3eA0a55ABb9851f581d4503d39b"},{"type":"ERC20_TRANSFER","executionDate":"2023-11-30T14:02:11Z","blockNumber":18684885,"transactionHash":"0x50c1b5605007d96a0f3e7814ee817372f594769c448852d259835fd448079f1d","to":"0xA7860E99e3ce0752D1ac53b974E309fFf80277C6","value":"5500000000","tokenId":null,"tokenAddress":"0xA0b86991c6218b36c1d19D4a2e9Eb0cE3606eB48","transferId":"e50c1b5605007d96a0f3e7814ee817372f594769c448852d259835fd448079f1d108","tokenInfo":{"type":"ERC20","address":"0xA0b86991c6218b36c1d19D4a2e9Eb0cE3606eB48","name":"USD Coin","symbol":"USDC","decimals":6,"logoUri":"https://safe-transaction-assets.safe.global/tokens/logos/0xA0b86991c6218b36c1d19D4a2e9Eb0cE3606eB48.png","trusted":true},"from":"0x91c32893216dE3eA0a55ABb9851f581d4503d39b"},{"type":"ERC20_TRANSFER","executionDate":"2023-11-30T14:02:11Z","blockNumber":18684885,"transactionHash":"0x50c1b5605007d96a0f3e7814ee817372f594769c448852d259835fd448079f1d","to":"0xA7860E99e3ce0752D1ac53b974E309fFf80277C6","value":"4000000000","tokenId":null,"tokenAddress":"0xA0b86991c6218b36c1d19D4a2e9Eb0cE3606eB48","transferId":"e50c1b5605007d96a0f3e7814ee817372f594769c448852d259835fd448079f1d122","tokenInfo":{"type":"ERC20","address":"0xA0b86991c6218b36c1d19D4a2e9Eb0cE3606eB48","name":"USD Coin","symbol":"USDC","decimals":6,"logoUri":"https://safe-transaction-assets.safe.global/tokens/logos/0xA0b86991c6218b36c1d19D4a2e9Eb0cE3606eB48.png","trusted":true},"from":"0x91c32893216dE3eA0a55ABb9851f581d4503d39b"},{"type":"ERC20_TRANSFER","executionDate":"2023-11-30T14:02:11Z","blockNumber":18684885,"transactionHash":"0x50c1b5605007d96a0f3e7814ee817372f594769c448852d259835fd448079f1d","to":"0xB9a0fB254Aea7Bcec79c7bd8052dcd902a5388Ff","value":"5500000000","tokenId":null,"tokenAddress":"0xA0b86991c6218b36c1d19D4a2e9Eb0cE3606eB48","transferId":"e50c1b5605007d96a0f3e7814ee817372f594769c448852d259835fd448079f1d120","tokenInfo":{"type":"ERC20","address":"0xA0b86991c6218b36c1d19D4a2e9Eb0cE3606eB48","name":"USD Coin","symbol":"USDC","decimals":6,"logoUri":"https://safe-transaction-assets.safe.global/tokens/logos/0xA0b86991c6218b36c1d19D4a2e9Eb0cE3606eB48.png","trusted":true},"from":"0x91c32893216dE3eA0a55ABb9851f581d4503d39b"},{"type":"ERC20_TRANSFER","executionDate":"2023-11-30T14:02:11Z","blockNumber":18684885,"transactionHash":"0x50c1b5605007d96a0f3e7814ee817372f594769c448852d259835fd448079f1d","to":"0xc28de09AD1a20737B92834943558DdfcC88d020D","value":"4000000000","tokenId":null,"tokenAddress":"0xA0b86991c6218b36c1d19D4a2e9Eb0cE3606eB48","transferId":"e50c1b5605007d96a0f3e7814ee817372f594769c448852d259835fd448079f1d124","tokenInfo":{"type":"ERC20","address":"0xA0b86991c6218b36c1d19D4a2e9Eb0cE3606eB48","name":"USD Coin","symbol":"USDC","decimals":6,"logoUri":"https://safe-transaction-assets.safe.global/tokens/logos/0xA0b86991c6218b36c1d19D4a2e9Eb0cE3606eB48.png","trusted":true},"from":"0x91c32893216dE3eA0a55ABb9851f581d4503d39b"},{"type":"ERC20_TRANSFER","executionDate":"2023-11-30T14:02:11Z","blockNumber":18684885,"transactionHash":"0x50c1b5605007d96a0f3e7814ee817372f594769c448852d259835fd448079f1d","to":"0x7024E5e2241eE7C6d09048547A410a3c4294b884","value":"5500000000","tokenId":null,"tokenAddress":"0xA0b86991c6218b36c1d19D4a2e9Eb0cE3606eB48","transferId":"e50c1b5605007d96a0f3e7814ee817372f594769c448852d259835fd448079f1d116","tokenInfo":{"type":"ERC20","address":"0xA0b86991c6218b36c1d19D4a2e9Eb0cE3606eB48","name":"USD Coin","symbol":"USDC","decimals":6,"logoUri":"https://safe-transaction-assets.safe.global/tokens/logos/0xA0b86991c6218b36c1d19D4a2e9Eb0cE3606eB48.png","trusted":true},"from":"0x91c32893216dE3eA0a55ABb9851f581d4503d39b"}],"txType":"ETHEREUM_TRANSACTION","from":"0x902c0954eB12B2e351199604AB488E24092dfA31"},{"executionDate":"2023-11-20T18:35:35Z","to":"0x323A76393544d5ecca80cd6ef2A560C6a395b7E3","data":"0x2656227d000000000000000000000000000000000000000000000000000000000000008000000000000000000000000000000000000000000000000000000000000001600000000000000000000000000000000000000000000000000000000000000240239f886792ab67679b60fb4a3ea149d0535513a38c092f656714b0ee023e57ad0000000000000000000000000000000000000000000000000000000000000006000000000000000000000000a0b86991c6218b36c1d19d4a2e9eb0ce3606eb48000000000000000000000000a0b86991c6218b36c1d19d4a2e9eb0ce3606eb4800000000000000000000000091c32893216de3ea0a55abb9851f581d4503d39b000000000000000000000000c18360217d8f7ab5e7c516566761ea12ce7f9d72000000000000000000000000a0b86991c6218b36c1d19d4a2e9eb0ce3606eb48000000000000000000000000cd42b4c4d102cc22864e3a1341bb0529c17fd87d0000000000000000000000000000000000000000000000000000000000000006000000000000000000000000000000000000000000000000000000000000000000000000000000000000000000000000000000000000000000000000000000000000000000000000000000000000000000000000000000022b1c8c1227a0000000000000000000000000000000000000000000000000000000000000000000000000000000000000000000000000000000000000000000000000000000000000000000000000000000000000000000000000000000000001e5b8fa8fe2ac0000000000000000000000000000000000000000000000000000000000000000000600000000000000000000000000000000000000000000000000000000000000c0000000000000000000000000000000000000000000000000000000000000014000000000000000000000000000000000000000000000000000000000000001c000000000000000000000000000000000000000000000000000000000000001e0000000000000000000000000000000000000000000000000000000000000026000000000000000000000000000000000000000000000000000000000000002e00000000000000000000000000000000000000000000000000000000000000044a9059cbb0000000000000000000000002686a8919df194aa7673244549e68d42c1685d030000000000000000000000000000000000000000000000000000005f3a4cba00000000000000000000000000000000000000000000000000000000000000000000000000000000000000000000000000000000000000000000000044a9059cbb00000000000000000000000091c32893216de3ea0a55abb9851f581d4503d39b000000000000000000000000000000000000000000000000000000578b58b0000000000000000000000000000000000000000000000000000000000000000000000000000000000000000000000000000000000000000000000000000000000000000000000000000000000000000000000000000000000000000044a9059cbb00000000000000000000000091c32893216de3ea0a55abb9851f581d4503d39b000000000000000000000000000000000000000000000b13304d66b961b00000000000000000000000000000000000000000000000000000000000000000000000000000000000000000000000000000000000000000000000000044a9059cbb000000000000000000000000cd42b4c4d102cc22864e3a1341bb0529c17fd87d00000000000000000000000000000000000000000000000000000032cdf8cf00000000000000000000000000000000000000000000000000000000000000000000000000000000000000000000000000000000000000000000000000","txHash":"0x7eadcd845362e160fa4a6f1918132c1b2c918fdb25e81cc3358ca11ef8daa1fe","blockNumber":18614820,"transfers":[{"type":"ERC20_TRANSFER","executionDate":"2023-11-20T18:35:35Z","blockNumber":18614820,"transactionHash":"0x7eadcd845362e160fa4a6f1918132c1b2c918fdb25e81cc3358ca11ef8daa1fe","to":"0x91c32893216dE3eA0a55ABb9851f581d4503d39b","value":"52300000000000000000000","tokenId":null,"tokenAddress":"0xC18360217D8F7Ab5e7c516566761Ea12Ce7F9D72","transferId":"e7eadcd845362e160fa4a6f1918132c1b2c918fdb25e81cc3358ca11ef8daa1fe185","tokenInfo":{"type":"ERC20","address":"0xC18360217D8F7Ab5e7c516566761Ea12Ce7F9D72","name":"Ethereum Name Service","symbol":"ENS","decimals":18,"logoUri":"https://safe-transaction-assets.safe.global/tokens/logos/0xC18360217D8F7Ab5e7c516566761Ea12Ce7F9D72.png","trusted":true},"from":"0xFe89cc7aBB2C4183683ab71653C4cdc9B02D44b7"},{"type":"ERC20_TRANSFER","executionDate":"2023-11-20T18:35:35Z","blockNumber":18614820,"transactionHash":"0x7eadcd845362e160fa4a6f1918132c1b2c918fdb25e81cc3358ca11ef8daa1fe","to":"0x91c32893216dE3eA0a55ABb9851f581d4503d39b","value":"376000000000","tokenId":null,"tokenAddress":"0xA0b86991c6218b36c1d19D4a2e9Eb0cE3606eB48","transferId":"e7eadcd845362e160fa4a6f1918132c1b2c918fdb25e81cc3358ca11ef8daa1fe181","tokenInfo":{"type":"ERC20","address":"0xA0b86991c6218b36c1d19D4a2e9Eb0cE3606eB48","name":"USD Coin","symbol":"USDC","decimals":6,"logoUri":"https://safe-transaction-assets.safe.global/tokens/logos/0xA0b86991c6218b36c1d19D4a2e9Eb0cE3606eB48.png","trusted":true},"from":"0xFe89cc7aBB2C4183683ab71653C4cdc9B02D44b7"},{"type":"ETHER_TRANSFER","executionDate":"2023-11-20T18:35:35Z","blockNumber":18614820,"transactionHash":"0x7eadcd845362e160fa4a6f1918132c1b2c918fdb25e81cc3358ca11ef8daa1fe","to":"0x91c32893216dE3eA0a55ABb9851f581d4503d39b","value":"40000000000000000000","tokenId":null,"tokenAddress":null,"transferId":"i7eadcd845362e160fa4a6f1918132c1b2c918fdb25e81cc3358ca11ef8daa1fe2,2","tokenInfo":null,"from":"0xFe89cc7aBB2C4183683ab71653C4cdc9B02D44b7"}],"txType":"ETHEREUM_TRANSACTION","from":"0xe52C39327FF7576bAEc3DBFeF0787bd62dB6d726"},{"safe":"0x91c32893216dE3eA0a55ABb9851f581d4503d39b","to":"0x91c32893216dE3eA0a55ABb9851f581d4503d39b","value":"0","data":null,"operation":0,"gasToken":"0x0000000000000000000000000000000000000000","safeTxGas":0,"baseGas":0,"gasPrice":"0","refundReceiver":"0x0000000000000000000000000000000000000000","nonce":65,"executionDate":"2023-11-07T14:25:47Z","submissionDate":"2023-11-03T17:04:44.670419Z","modified":"2023-11-07T14:26:00.911241Z","blockNumber":18520660,"transactionHash":"0x0d1e3ad51ece2ca39d3f45a86f2ef842c9ac89d855e01f6934769ddff045bc54","safeTxHash":"0x68535fce5d2168d9236d02cf71a425c271227ca3e7dd426ffe4335470a413fc4","proposer":"0x0B8B1ed2594B36aedbF44DD17674f4686eDFeE6B","executor":"0x0B8B1ed2594B36aedbF44DD17674f4686eDFeE6B","isExecuted":true,"isSuccessful":true,"ethGasPrice":"35000000000","maxFeePerGas":"35000000000","maxPriorityFeePerGas":"1500000000","gasUsed":70458,"fee":"2466030000000000","origin":"{}","dataDecoded":null,"confirmationsRequired":3,"confirmations":[{"owner":"0x0B8B1ed2594B36aedbF44DD17674f4686eDFeE6B","submissionDate":"2023-11-03T17:04:44.707285Z","transactionHash":null,"signature":"0x0000000000000000000000000b8b1ed2594b36aedbf44dd17674f4686edfee6b000000000000000000000000000000000000000000000000000000000000000001","signatureType":"APPROVED_HASH"},{"owner":"0x70B8769B09aF7447886620c20854c8B9119b5FeE","submissionDate":"2023-11-03T17:17:18.045182Z","transactionHash":null,"signature":"0xc79f2593bf1546a046815237ed4f7cd17a15c087b5ed968034ccc0d0dc51d0943dedb2e0847331e32e6ed250df8bbecdab3fcd889dcf8f443c9da2814448a17f1c","signatureType":"EOA"},{"owner":"0x7024E5e2241eE7C6d09048547A410a3c4294b884","submissionDate":"2023-11-07T14:19:46.788773Z","transactionHash":null,"signature":"0x77de7a2d092bf74df1420c2330674881f73690890303b7dfd7ada080793ffb9670d68ae864dc7fef8fe6d92cb31e54571b8562af9df42c6d3578942aab7884481b","signatureType":"EOA"}],"trusted":true,"signatures":"0x0000000000000000000000000b8b1ed2594b36aedbf44dd17674f4686edfee6b00000000000000000000000000000000000000000000000000000000000000000177de7a2d092bf74df1420c2330674881f73690890303b7dfd7ada080793ffb9670d68ae864dc7fef8fe6d92cb31e54571b8562af9df42c6d3578942aab7884481bc79f2593bf1546a046815237ed4f7cd17a15c087b5ed968034ccc0d0dc51d0943dedb2e0847331e32e6ed250df8bbecdab3fcd889dcf8f443c9da2814448a17f1c","transfers":[],"txType":"MULTISIG_TRANSACTION"},{"safe":"0x91c32893216dE3eA0a55ABb9851f581d4503d39b","to":"0x91c32893216dE3eA0a55ABb9851f581d4503d39b","value":"0","data":null,"operation":0,"gasToken":"0x0000000000000000000000000000000000000000","safeTxGas":0,"baseGas":0,"gasPrice":"0","refundReceiver":"0x0000000000000000000000000000000000000000","nonce":64,"executionDate":"2023-11-07T14:24:59Z","submissionDate":"2023-11-03T17:04:14.564866Z","modified":"2023-11-07T14:25:18.207451Z","blockNumber":18520656,"transactionHash":"0x89b54ccaa74e614d887795717d9d68b17ea0d85e10db71918ceb9440707a7442","safeTxHash":"0x54e2e4612202be5b3003e761186b7d9a7bd8c080f3ae25b29023b03974635035","proposer":"0x0B8B1ed2594B36aedbF44DD17674f4686eDFeE6B","executor":"0x0B8B1ed2594B36aedbF44DD17674f4686eDFeE6B","isExecuted":true,"isSuccessful":true,"ethGasPrice":"34326703298","maxFeePerGas":"37000000000","maxPriorityFeePerGas":"1500000000","gasUsed":70446,"fee":"2418178940530908","origin":"{}","dataDecoded":null,"confirmationsRequired":3,"confirmations":[{"owner":"0x0B8B1ed2594B36aedbF44DD17674f4686eDFeE6B","submissionDate":"2023-11-03T17:04:14.604231Z","transactionHash":null,"signature":"0x0000000000000000000000000b8b1ed2594b36aedbf44dd17674f4686edfee6b000000000000000000000000000000000000000000000000000000000000000001","signatureType":"APPROVED_HASH"},{"owner":"0x70B8769B09aF7447886620c20854c8B9119b5FeE","submissionDate":"2023-11-03T17:16:48.236503Z","transactionHash":null,"signature":"0x5a395ef6285482f01df6bed3a99000bfdfd4a77b48ad85f23428a448a4a142dc2b5c9596e782b79296b8e372b8fca1c4736112feda3d3b5410ee1577b15027421c","signatureType":"EOA"},{"owner":"0x7024E5e2241eE7C6d09048547A410a3c4294b884","submissionDate":"2023-11-07T14:19:37.218170Z","transactionHash":null,"signature":"0xbdc933c483754bfa9c6b421bcb2b436c9d58cf5952c6cf7cc1887c295760d90960e61606469487536144f9e113ef71fa651996b68fe83c1177a5c36e0af4fc751c","signatureType":"EOA"}],"trusted":true,"signatures":"0x0000000000000000000000000b8b1ed2594b36aedbf44dd17674f4686edfee6b000000000000000000000000000000000000000000000000000000000000000001bdc933c483754bfa9c6b421bcb2b436c9d58cf5952c6cf7cc1887c295760d90960e61606469487536144f9e113ef71fa651996b68fe83c1177a5c36e0af4fc751c5a395ef6285482f01df6bed3a99000bfdfd4a77b48ad85f23428a448a4a142dc2b5c9596e782b79296b8e372b8fca1c4736112feda3d3b5410ee1577b15027421c","transfers":[],"txType":"MULTISIG_TRANSACTION"},{"safe":"0x91c32893216dE3eA0a55ABb9851f581d4503d39b","to":"0x91c32893216dE3eA0a55ABb9851f581d4503d39b","value":"0","data":null,"operation":0,"gasToken":"0x0000000000000000000000000000000000000000","safeTxGas":0,"baseGas":0,"gasPrice":"0","refundReceiver":"0x0000000000000000000000000000000000000000","nonce":63,"executionDate":"2023-11-07T14:22:47Z","submissionDate":"2023-11-03T17:03:44.166216Z","modified":"2023-11-07T14:23:11.642704Z","blockNumber":18520645,"transactionHash":"0x68c5322125e6591db25b5db8afb009f9dd0f381312ae9cd00fe13f27dc1c9fe3","safeTxHash":"0xf0da836b628b38dc2b343eb5e8ed5d0d0e8d9cd828698c1495bbeed949e442ba","proposer":"0x0B8B1ed2594B36aedbF44DD17674f4686eDFeE6B","executor":"0x0B8B1ed2594B36aedbF44DD17674f4686eDFeE6B","isExecuted":true,"isSuccessful":true,"ethGasPrice":"34113121656","maxFeePerGas":"36000000000","maxPriorityFeePerGas":"1500000000","gasUsed":70458,"fee":"2403542325638448","origin":"{}","dataDecoded":null,"confirmationsRequired":3,"confirmations":[{"owner":"0x0B8B1ed2594B36aedbF44DD17674f4686eDFeE6B","submissionDate":"2023-11-03T17:03:44.200070Z","transactionHash":null,"signature":"0x0000000000000000000000000b8b1ed2594b36aedbf44dd17674f4686edfee6b000000000000000000000000000000000000000000000000000000000000000001","signatureType":"APPROVED_HASH"},{"owner":"0x70B8769B09aF7447886620c20854c8B9119b5FeE","submissionDate":"2023-11-03T17:16:31.845471Z","transactionHash":null,"signature":"0xee9d8b87b8754ab9611d4603d6625868ee705f21d8b70d805eac54fe93d613714b9a2c6a3df83708f72fffeb7f6477164c158e113b38108e92df9a2b0ea23b341c","signatureType":"EOA"},{"owner":"0x7024E5e2241eE7C6d09048547A410a3c4294b884","submissionDate":"2023-11-07T14:19:30.635121Z","transactionHash":null,"signature":"0xef521d73890b64a75ee17d330e7a770fc5073e4fee5298993fe169ceb48064e001c714db991d32af17bfd377e19f30dfd046ea955133dc023cfe3cca94efadab1c","signatureType":"EOA"}],"trusted":true,"signatures":"0x0000000000000000000000000b8b1ed2594b36aedbf44dd17674f4686edfee6b000000000000000000000000000000000000000000000000000000000000000001ef521d73890b64a75ee17d330e7a770fc5073e4fee5298993fe169ceb48064e001c714db991d32af17bfd377e19f30dfd046ea955133dc023cfe3cca94efadab1cee9d8b87b8754ab9611d4603d6625868ee705f21d8b70d805eac54fe93d613714b9a2c6a3df83708f72fffeb7f6477164c158e113b38108e92df9a2b0ea23b341c","transfers":[],"txType":"MULTISIG_TRANSACTION"},{"safe":"0x91c32893216dE3eA0a55ABb9851f581d4503d39b","to":"0x91c32893216dE3eA0a55ABb9851f581d4503d39b","value":"0","data":null,"operation":0,"gasToken":"0x0000000000000000000000000000000000000000","safeTxGas":0,"baseGas":0,"gasPrice":"0","refundReceiver":"0x0000000000000000000000000000000000000000","nonce":62,"executionDate":"2023-11-07T14:20:47Z","submissionDate":"2023-11-03T17:01:45.747909Z","modified":"2023-11-07T14:21:04.706810Z","blockNumber":18520635,"transactionHash":"0x93c0d82724d1bb1cb32460250f086ebaed432555947572b549620e7764895729","safeTxHash":"0xec8daa7c958a589e3d95c97e00405c266fa5ab12dbe958f1d2c9fd177e001662","proposer":"0x0B8B1ed2594B36aedbF44DD17674f4686eDFeE6B","executor":"0x0B8B1ed2594B36aedbF44DD17674f4686eDFeE6B","isExecuted":true,"isSuccessful":true,"ethGasPrice":"31425876292","maxFeePerGas":"34000000000","maxPriorityFeePerGas":"1500000000","gasUsed":70458,"fee":"2214204391781736","origin":"{}","dataDecoded":null,"confirmationsRequired":3,"confirmations":[{"owner":"0x0B8B1ed2594B36aedbF44DD17674f4686eDFeE6B","submissionDate":"2023-11-03T17:01:45.782587Z","transactionHash":null,"signature":"0x0000000000000000000000000b8b1ed2594b36aedbf44dd17674f4686edfee6b000000000000000000000000000000000000000000000000000000000000000001","signatureType":"APPROVED_HASH"},{"owner":"0x70B8769B09aF7447886620c20854c8B9119b5FeE","submissionDate":"2023-11-03T17:16:16.677182Z","transactionHash":null,"signature":"0x2e4bbd02f24267895c547c9bd0b6cd7089bce808e744b6de626c940ec2e351ad210e556168bbf9d4cec4809343bfa574cb1053fcd330e3baaeba9866874eff951b","signatureType":"EOA"},{"owner":"0x7024E5e2241eE7C6d09048547A410a3c4294b884","submissionDate":"2023-11-07T14:18:51.848165Z","transactionHash":null,"signature":"0x66bac2feee481d4ae2cf92019d7c039601acb485a10faf5d71865f2087ece26c76a3fa9c2a2ce40b6165152e8cc2c072c89440a3c16f0884c10cc60c2082baa61c","signatureType":"EOA"}],"trusted":true,"signatures":"0x0000000000000000000000000b8b1ed2594b36aedbf44dd17674f4686edfee6b00000000000000000000000000000000000000000000000000000000000000000166bac2feee481d4ae2cf92019d7c039601acb485a10faf5d71865f2087ece26c76a3fa9c2a2ce40b6165152e8cc2c072c89440a3c16f0884c10cc60c2082baa61c2e4bbd02f24267895c547c9bd0b6cd7089bce808e744b6de626c940ec2e351ad210e556168bbf9d4cec4809343bfa574cb1053fcd330e3baaeba9866874eff951b","transfers":[],"txType":"MULTISIG_TRANSACTION"},{"safe":"0x91c32893216dE3eA0a55ABb9851f581d4503d39b","to":"0x91c32893216dE3eA0a55ABb9851f581d4503d39b","value":"0","data":null,"operation":0,"gasToken":"0x0000000000000000000000000000000000000000","safeTxGas":0,"baseGas":0,"gasPrice":"0","refundReceiver":"0x0000000000000000000000000000000000000000","nonce":61,"executionDate":"2023-11-07T14:19:47Z","submissionDate":"2023-11-03T16:20:55.628072Z","modified":"2023-11-07T14:20:05.584214Z","blockNumber":18520630,"transactionHash":"0xda438dc77f84a6f8bb024f046d7323265350dba22b114ca7f26a90be875ef499","safeTxHash":"0x92151550963d7acb8917359f408c72805141cab49eed14dafddf72400fb78c4d","proposer":"0x70B8769B09aF7447886620c20854c8B9119b5FeE","executor":"0x0B8B1ed2594B36aedbF44DD17674f4686eDFeE6B","isExecuted":true,"isSuccessful":true,"ethGasPrice":"31000000000","maxFeePerGas":"31000000000","maxPriorityFeePerGas":"1500000000","gasUsed":70446,"fee":"2183826000000000","origin":"{}","dataDecoded":null,"confirmationsRequired":3,"confirmations":[{"owner":"0x70B8769B09aF7447886620c20854c8B9119b5FeE","submissionDate":"2023-11-03T16:20:55.663142Z","transactionHash":null,"signature":"0x22a4c0285c212ad3a01e6e3ce956c5f88f3e9d493105d59f12275180b627b16e534a9041a430b707ae7c9e14b3faf16c377e21b1e88d1cdb9f17f7a6e36dc20f1b","signatureType":"EOA"},{"owner":"0x0B8B1ed2594B36aedbF44DD17674f4686eDFeE6B","submissionDate":"2023-11-03T17:02:56.978978Z","transactionHash":null,"signature":"0x0000000000000000000000000b8b1ed2594b36aedbf44dd17674f4686edfee6b000000000000000000000000000000000000000000000000000000000000000001","signatureType":"APPROVED_HASH"},{"owner":"0x7024E5e2241eE7C6d09048547A410a3c4294b884","submissionDate":"2023-11-07T14:16:48.069120Z","transactionHash":null,"signature":"0x251ad876743b549c528f7cf26716661edc224685726df60feee484a6429cea807c181977a85e6decbb8b009c73340bd793e07d9602d3e729e0bb7f82c5d296211b","signatureType":"EOA"}],"trusted":true,"signatures":"0x0000000000000000000000000b8b1ed2594b36aedbf44dd17674f4686edfee6b000000000000000000000000000000000000000000000000000000000000000001251ad876743b549c528f7cf26716661edc224685726df60feee484a6429cea807c181977a85e6decbb8b009c73340bd793e07d9602d3e729e0bb7f82c5d296211b22a4c0285c212ad3a01e6e3ce956c5f88f3e9d493105d59f12275180b627b16e534a9041a430b707ae7c9e14b3faf16c377e21b1e88d1cdb9f17f7a6e36dc20f1b","transfers":[],"txType":"MULTISIG_TRANSACTION"},{"safe":"0x91c32893216dE3eA0a55ABb9851f581d4503d39b","to":"0x91c32893216dE3eA0a55ABb9851f581d4503d39b","value":"0","data":null,"operation":0,"gasToken":"0x0000000000000000000000000000000000000000","safeTxGas":0,"baseGas":0,"gasPrice":"0","refundReceiver":"0x0000000000000000000000000000000000000000","nonce":60,"executionDate":"2023-11-07T14:16:35Z","submissionDate":"2023-11-03T16:20:25.734382Z","modified":"2023-11-07T14:16:35Z","blockNumber":18520614,"transactionHash":"0xf2bcac8758b01e870d7e6b9c782dbc1fe5012e1ef010b9bc7b4b274aefaa7b65","safeTxHash":"0x7511c681a00cce82c1c72052fcb260be8c5be1d66f6eed8294f75d41b82568f6","proposer":"0x70B8769B09aF7447886620c20854c8B9119b5FeE","executor":"0x7024E5e2241eE7C6d09048547A410a3c4294b884","isExecuted":true,"isSuccessful":true,"ethGasPrice":"28963509637","maxFeePerGas":"29000000000","maxPriorityFeePerGas":"1500000000","gasUsed":70446,"fee":"2040363399888102","origin":"{}","dataDecoded":null,"confirmationsRequired":3,"confirmations":[{"owner":"0x70B8769B09aF7447886620c20854c8B9119b5FeE","submissionDate":"2023-11-03T16:20:25.847421Z","transactionHash":null,"signature":"0xebd692090e75207c4fe4a2ca8a9f26863251c20440ce4e6c19b6462036840b9b6419fc1ec60073fc32a1739d1e8e1684f35e0d1240b1b703f4fca360e44023751b","signatureType":"EOA"},{"owner":"0x0B8B1ed2594B36aedbF44DD17674f4686eDFeE6B","submissionDate":"2023-11-03T17:02:30.815900Z","transactionHash":null,"signature":"0x10d0af1d8d15ff924b650bf41aee18bbfaaf21f891ef441698da7a07f64e30b57173678c2e418137b72db8425c46a76e3b47f14145a0323287832a4d025cad901c","signatureType":"EOA"},{"owner":"0x7024E5e2241eE7C6d09048547A410a3c4294b884","submissionDate":"2023-11-07T14:16:35Z","transactionHash":null,"signature":"0x0000000000000000000000007024e5e2241ee7c6d09048547a410a3c4294b884000000000000000000000000000000000000000000000000000000000000000001","signatureType":"APPROVED_HASH"}],"trusted":true,"signatures":"0x10d0af1d8d15ff924b650bf41aee18bbfaaf21f891ef441698da7a07f64e30b57173678c2e418137b72db8425c46a76e3b47f14145a0323287832a4d025cad901c0000000000000000000000007024e5e2241ee7c6d09048547a410a3c4294b884000000000000000000000000000000000000000000000000000000000000000001ebd692090e75207c4fe4a2ca8a9f26863251c20440ce4e6c19b6462036840b9b6419fc1ec60073fc32a1739d1e8e1684f35e0d1240b1b703f4fca360e44023751b","transfers":[],"txType":"MULTISIG_TRANSACTION"},{"executionDate":"2023-10-31T13:02:11Z","to":"0x9279B5d5c550BDD9Af968aE561c6BA4Bf74093CB","data":"0x2c4167760000000000000000000000000000000000000000000000000000000000000020000000000000000000000000000000000000000000000000000000000000000a000000000000000000000000000000000000000000000000000000000000014000000000000000000000000000000000000000000000000000000000000003400000000000000000000000000000000000000000000000000000000000000540000000000000000000000000000000000000000000000000000000000000074000000000000000000000000000000000000000000000000000000000000009400000000000000000000000000000000000000000000000000000000000000b400000000000000000000000000000000000000000000000000000000000000d400000000000000000000000000000000000000000000000000000000000000f40000000000000000000000000000000000000000000000000000000000000118000000000000000000000000000000000000000000000000000000000000013c00000000000000000000000000000000000000000000000000000000000000080000000000000000000000000000000000000000000000000000000000000001b2476af569553b1bff3b763719f7f620f60d1ad47f59fce4c2fcb89ff1a483c121d507ad85ec00f3f7f99d1b38836a1b72f88be926c3519c57be42b72bdcce90000000000000000000000000000000000000000000000000000000000000000e0000000000000000000000000000000000000000000000000000000000000014000000000000000000000000091c32893216de3ea0a55abb9851f581d4503d39b000000000000000000000000a7860e99e3ce0752d1ac53b974e309fff80277c6000000000000000000000000a0b86991c6218b36c1d19d4a2e9eb0ce3606eb480000000000000000000000000000000000000000000000000000000147d357000000000000000000000000000000000000000000000000000000000000000000000000000000000000000000000000000000000000000000000000000000002434373932353230612d643536362d343130352d613732332d38633563646435313639373100000000000000000000000000000000000000000000000000000000000000000000000000000000000000000000000000000000000000000000001c35202d202831302f33312f323032332030393a303020414d20455429000000000000000000000000000000000000000000000000000000000000000000000080000000000000000000000000000000000000000000000000000000000000001c4ea9f128386033e2b88891712980639770e2e963f159345081f28ed80a697b447e9f72cb1333190eed2736625c463fabf563684db08aea5a89f143dd7e22fac800000000000000000000000000000000000000000000000000000000000000e0000000000000000000000000000000000000000000000000000000000000014000000000000000000000000091c32893216de3ea0a55abb9851f581d4503d39b0000000000000000000000007024e5e2241ee7c6d09048547a410a3c4294b884000000000000000000000000a0b86991c6218b36c1d19d4a2e9eb0ce3606eb4800000000000000000000000000000000000000000000000000000000ee6b28000000000000000000000000000000000000000000000000000000000000000000000000000000000000000000000000000000000000000000000000000000002431336166663230312d316635662d346365332d626531342d36643630623762393036363300000000000000000000000000000000000000000000000000000000000000000000000000000000000000000000000000000000000000000000001c34202d202831302f33312f323032332030393a303020414d20455429000000000000000000000000000000000000000000000000000000000000000000000080000000000000000000000000000000000000000000000000000000000000001b9a8712b4f35d59341290dc85d5ab5dc8913afcd273fabe08d95d92c699ce065d272ab6d3ad6514c4ee83f0327e3ae9042bc9b8a1d987159245acd97b5b56a29700000000000000000000000000000000000000000000000000000000000000e0000000000000000000000000000000000000000000000000000000000000014000000000000000000000000091c32893216de3ea0a55abb9851f581d4503d39b000000000000000000000000f413a13c4f2c213ee403eef16eff41d29a907222000000000000000000000000a0b86991c6218b36c1d19d4a2e9eb0ce3606eb4800000000000000000000000000000000000000000000000000000000d09dc3000000000000000000000000000000000000000000000000000000000000000000000000000000000000000000000000000000000000000000000000000000002431346330623533332d366336352d343935382d386234352d39636638343936636230303400000000000000000000000000000000000000000000000000000000000000000000000000000000000000000000000000000000000000000000001c36202d202831302f33312f323032332030393a303020414d20455429000000000000000000000000000000000000000000000000000000000000000000000080000000000000000000000000000000000000000000000000000000000000001cdcc41a53a53e74c5635ab75ff4cc22ab3d6c01ed892592b4ec11a497574f90c231132c2ec58977d86f88e46e0d65b0349a07d2d7c47c8881e2d28124d3b202b000000000000000000000000000000000000000000000000000000000000000e0000000000000000000000000000000000000000000000000000000000000014000000000000000000000000091c32893216de3ea0a55abb9851f581d4503d39b000000000000000000000000b9a0fb254aea7bcec79c7bd8052dcd902a5388ff000000000000000000000000a0b86991c6218b36c1d19d4a2e9eb0ce3606eb4800000000000000000000000000000000000000000000000000000001836e21000000000000000000000000000000000000000000000000000000000000000000000000000000000000000000000000000000000000000000000000000000002432666664643966352d323435612d346637302d613335382d37393365613434633665326400000000000000000000000000000000000000000000000000000000000000000000000000000000000000000000000000000000000000000000001c37202d202831302f33312f323032332030393a303020414d20455429000000000000000000000000000000000000000000000000000000000000000000000080000000000000000000000000000000000000000000000000000000000000001b238225560a195e209178c9ee8f130d3891d4471bb129e183b4b4bcf8eddc415a758233f97338136461f0e41fe62ac3b517bb7c5fc1ef680e566b579b7fa1d5b400000000000000000000000000000000000000000000000000000000000000e0000000000000000000000000000000000000000000000000000000000000014000000000000000000000000091c32893216de3ea0a55abb9851f581d4503d39b000000000000000000000000a7860e99e3ce0752d1ac53b974e309fff80277c6000000000000000000000000a0b86991c6218b36c1d19d4a2e9eb0ce3606eb4800000000000000000000000000000000000000000000000000000000b2d05e000000000000000000000000000000000000000000000000000000000000000000000000000000000000000000000000000000000000000000000000000000002430383136623932312d666636342d346533612d623865392d63313335386530626137366300000000000000000000000000000000000000000000000000000000000000000000000000000000000000000000000000000000000000000000001c38202d202831302f33312f323032332030393a303020414d20455429000000000000000000000000000000000000000000000000000000000000000000000080000000000000000000000000000000000000000000000000000000000000001be31fc492dd2387249ec374ee1286b8d708d2d2295d364f804908e13381c98c4637706b36412cb19e0ef95050247a721e8187eafe46f1417395f6b17244a71b7200000000000000000000000000000000000000000000000000000000000000e0000000000000000000000000000000000000000000000000000000000000014000000000000000000000000091c32893216de3ea0a55abb9851f581d4503d39b000000000000000000000000c28de09ad1a20737b92834943558ddfcc88d020d000000000000000000000000a0b86991c6218b36c1d19d4a2e9eb0ce3606eb4800000000000000000000000000000000000000000000000000000000b2d05e000000000000000000000000000000000000000000000000000000000000000000000000000000000000000000000000000000000000000000000000000000002466336239343862612d633132352d346662392d613333382d66666131363366313939336100000000000000000000000000000000000000000000000000000000000000000000000000000000000000000000000000000000000000000000001c39202d202831302f33312f323032332030393a303020414d20455429000000000000000000000000000000000000000000000000000000000000000000000080000000000000000000000000000000000000000000000000000000000000001c63fc2a3a2b73ace12c4954ee6ebd3e39df0c4c3d7f46ab1e33bed1c7df3d76b04c7991dd4374f7fe18a74b2f521b7e21bec338b3c97e98f0a82f58009b76e6a200000000000000000000000000000000000000000000000000000000000000e0000000000000000000000000000000000000000000000000000000000000014000000000000000000000000013aee52c1c688d3554a15556c5353cb0c3696ea200000000000000000000000060dbf50076206f60bcc2edf9295f5734561b8d77000000000000000000000000a0b86991c6218b36c1d19d4a2e9eb0ce3606eb480000000000000000000000000000000000000000000000000000000059682f000000000000000000000000000000000000000000000000000000000000000000000000000000000000000000000000000000000000000000000000000000002439366132303431332d386131612d343266612d613635332d39616538613730373937343700000000000000000000000000000000000000000000000000000000000000000000000000000000000000000000000000000000000000000000001c31202d202831302f33312f323032332030393a303020414d20455429000000000000000000000000000000000000000000000000000000000000000000000080000000000000000000000000000000000000000000000000000000000000001c099286191b8406f06aae11e280f2519f1715f3928a63b79c03732447b0fd89e33b9b13d8a25dc8b4f34a4c98d0d7aa6a0f23d872948f9a4e2f683e2152577f1d00000000000000000000000000000000000000000000000000000000000000e0000000000000000000000000000000000000000000000000000000000000014000000000000000000000000091c32893216de3ea0a55abb9851f581d4503d39b000000000000000000000000d2cc2e47c2aecd01c87b83290c0ee76ba67a7211000000000000000000000000a0b86991c6218b36c1d19d4a2e9eb0ce3606eb4800000000000000000000000000000000000000000000000000000001004ccb000000000000000000000000000000000000000000000000000000000000000000000000000000000000000000000000000000000000000000000000000000002461633264303561632d376132352d346662652d616234392d623130313730383839313632000000000000000000000000000000000000000000000000000000000000000000000000000000000000000000000000000000000000000000000046307864326363326534376332416563643031433837423833323930633045653736424136376137323131202d202831302f33312f323032332030393a303020414d204544542900000000000000000000000000000000000000000000000000000000000000000000000000000000000000000000000000000000000000000080000000000000000000000000000000000000000000000000000000000000001b1e457af4c235f2d83b5059e4ac0786ec6923006372972f4b059ea7d92c11df3116d501706a980732e7801251f2409e06b5612662951f1e33f83594c282263e2a00000000000000000000000000000000000000000000000000000000000000e0000000000000000000000000000000000000000000000000000000000000014000000000000000000000000091c32893216de3ea0a55abb9851f581d4503d39b0000000000000000000000001d921dff757610fbdb0073479e12c0a07d382677000000000000000000000000a0b86991c6218b36c1d19d4a2e9eb0ce3606eb4800000000000000000000000000000000000000000000000000000000773594000000000000000000000000000000000000000000000000000000000000000000000000000000000000000000000000000000000000000000000000000000002434613231336631622d303435612d343764362d383663302d633030373037653465343433000000000000000000000000000000000000000000000000000000000000000000000000000000000000000000000000000000000000000000000046307831643932316466663735373631304662444230303733343739653132633061303764333832363737202d202831302f33312f323032332030393a303020414d204544542900000000000000000000000000000000000000000000000000000000000000000000000000000000000000000000000000000000000000000080000000000000000000000000000000000000000000000000000000000000001cf09a631aed0dab7b4b42c891c2c8bb0accf4048c19e17e723d3181db7d3b71e963e5b164daab30e49a4579db56bb2ec020378efdb217169e4a898f760117cbba00000000000000000000000000000000000000000000000000000000000000e0000000000000000000000000000000000000000000000000000000000000014000000000000000000000000091c32893216de3ea0a55abb9851f581d4503d39b00000000000000000000000054becc7560a7be76d72ed76a1f5fee6c5a2a7ab6000000000000000000000000a0b86991c6218b36c1d19d4a2e9eb0ce3606eb4800000000000000000000000000000000000000000000000000000000773594000000000000000000000000000000000000000000000000000000000000000000000000000000000000000000000000000000000000000000000000000000002462313337313164352d306138362d343866632d393334622d623361653361303838313432000000000000000000000000000000000000000000000000000000000000000000000000000000000000000000000000000000000000000000000046307835344265436337353630613742653736643732454437366131663566656536433561324137416236202d202831302f33312f323032332030393a303020414d20454454290000000000000000000000000000000000000000000000000000","txHash":"0x133aabec356a175e7b5f1dcde661861dd63f8b93875a38cca3b4faa12e903133","blockNumber":18470277,"transfers":[{"type":"ERC20_TRANSFER","executionDate":"2023-10-31T13:02:11Z","blockNumber":18470277,"transactionHash":"0x133aabec356a175e7b5f1dcde661861dd63f8b93875a38cca3b4faa12e903133","to":"0xc28de09AD1a20737B92834943558DdfcC88d020D","value":"3000000000","tokenId":null,"tokenAddress":"0xA0b86991c6218b36c1d19D4a2e9Eb0cE3606eB48","transferId":"e133aabec356a175e7b5f1dcde661861dd63f8b93875a38cca3b4faa12e903133232","tokenInfo":{"type":"ERC20","address":"0xA0b86991c6218b36c1d19D4a2e9Eb0cE3606eB48","name":"USD Coin","symbol":"USDC","decimals":6,"logoUri":"https://safe-transaction-assets.safe.global/tokens/logos/0xA0b86991c6218b36c1d19D4a2e9Eb0cE3606eB48.png","trusted":true},"from":"0x91c32893216dE3eA0a55ABb9851f581d4503d39b"},{"type":"ERC20_TRANSFER","executionDate":"2023-10-31T13:02:11Z","blockNumber":18470277,"transactionHash":"0x133aabec356a175e7b5f1dcde661861dd63f8b93875a38cca3b4faa12e903133","to":"0xA7860E99e3ce0752D1ac53b974E309fFf80277C6","value":"5500000000","tokenId":null,"tokenAddress":"0xA0b86991c6218b36c1d19D4a2e9Eb0cE3606eB48","transferId":"e133aabec356a175e7b5f1dcde661861dd63f8b93875a38cca3b4faa12e903133222","tokenInfo":{"type":"ERC20","address":"0xA0b86991c6218b36c1d19D4a2e9Eb0cE3606eB48","name":"USD Coin","symbol":"USDC","decimals":6,"logoUri":"https://safe-transaction-assets.safe.global/tokens/logos/0xA0b86991c6218b36c1d19D4a2e9Eb0cE3606eB48.png","trusted":true},"from":"0x91c32893216dE3eA0a55ABb9851f581d4503d39b"},{"type":"ERC20_TRANSFER","executionDate":"2023-10-31T13:02:11Z","blockNumber":18470277,"transactionHash":"0x133aabec356a175e7b5f1dcde661861dd63f8b93875a38cca3b4faa12e903133","to":"0x7024E5e2241eE7C6d09048547A410a3c4294b884","value":"4000000000","tokenId":null,"tokenAddress":"0xA0b86991c6218b36c1d19D4a2e9Eb0cE3606eB48","transferId":"e133aabec356a175e7b5f1dcde661861dd63f8b93875a38cca3b4faa12e903133224","tokenInfo":{"type":"ERC20","address":"0xA0b86991c6218b36c1d19D4a2e9Eb0cE3606eB48","name":"USD Coin","symbol":"USDC","decimals":6,"logoUri":"https://safe-transaction-assets.safe.global/tokens/logos/0xA0b86991c6218b36c1d19D4a2e9Eb0cE3606eB48.png","trusted":true},"from":"0x91c32893216dE3eA0a55ABb9851f581d4503d39b"},{"type":"ERC20_TRANSFER","executionDate":"2023-10-31T13:02:11Z","blockNumber":18470277,"transactionHash":"0x133aabec356a175e7b5f1dcde661861dd63f8b93875a38cca3b4faa12e903133","to":"0xf413a13C4F2c213eE403eEF16EfF41D29A907222","value":"3500000000","tokenId":null,"tokenAddress":"0xA0b86991c6218b36c1d19D4a2e9Eb0cE3606eB48","transferId":"e133aabec356a175e7b5f1dcde661861dd63f8b93875a38cca3b4faa12e903133226","tokenInfo":{"type":"ERC20","address":"0xA0b86991c6218b36c1d19D4a2e9Eb0cE3606eB48","name":"USD Coin","symbol":"USDC","decimals":6,"logoUri":"https://safe-transaction-assets.safe.global/tokens/logos/0xA0b86991c6218b36c1d19D4a2e9Eb0cE3606eB48.png","trusted":true},"from":"0x91c32893216dE3eA0a55ABb9851f581d4503d39b"},{"type":"ERC20_TRANSFER","executionDate":"2023-10-31T13:02:11Z","blockNumber":18470277,"transactionHash":"0x133aabec356a175e7b5f1dcde661861dd63f8b93875a38cca3b4faa12e903133","to":"0xB9a0fB254Aea7Bcec79c7bd8052dcd902a5388Ff","value":"6500000000","tokenId":null,"tokenAddress":"0xA0b86991c6218b36c1d19D4a2e9Eb0cE3606eB48","transferId":"e133aabec356a175e7b5f1dcde661861dd63f8b93875a38cca3b4faa12e903133228","tokenInfo":{"type":"ERC20","address":"0xA0b86991c6218b36c1d19D4a2e9Eb0cE3606eB48","name":"USD Coin","symbol":"USDC","decimals":6,"logoUri":"https://safe-transaction-assets.safe.global/tokens/logos/0xA0b86991c6218b36c1d19D4a2e9Eb0cE3606eB48.png","trusted":true},"from":"0x91c32893216dE3eA0a55ABb9851f581d4503d39b"},{"type":"ERC20_TRANSFER","executionDate":"2023-10-31T13:02:11Z","blockNumber":18470277,"transactionHash":"0x133aabec356a175e7b5f1dcde661861dd63f8b93875a38cca3b4faa12e903133","to":"0xA7860E99e3ce0752D1ac53b974E309fFf80277C6","value":"3000000000","tokenId":null,"tokenAddress":"0xA0b86991c6218b36c1d19D4a2e9Eb0cE3606eB48","transferId":"e133aabec356a175e7b5f1dcde661861dd63f8b93875a38cca3b4faa12e903133230","tokenInfo":{"type":"ERC20","address":"0xA0b86991c6218b36c1d19D4a2e9Eb0cE3606eB48","name":"USD Coin","symbol":"USDC","decimals":6,"logoUri":"https://safe-transaction-assets.safe.global/tokens/logos/0xA0b86991c6218b36c1d19D4a2e9Eb0cE3606eB48.png","trusted":true},"from":"0x91c32893216dE3eA0a55ABb9851f581d4503d39b"},{"type":"ERC20_TRANSFER","executionDate":"2023-10-31T13:02:11Z","blockNumber":18470277,"transactionHash":"0x133aabec356a175e7b5f1dcde661861dd63f8b93875a38cca3b4faa12e903133","to":"0xd2cc2e47c2Aecd01C87B83290c0Ee76BA67a7211","value":"4300000000","tokenId":null,"tokenAddress":"0xA0b86991c6218b36c1d19D4a2e9Eb0cE3606eB48","transferId":"e133aabec356a175e7b5f1dcde661861dd63f8b93875a38cca3b4faa12e903133236","tokenInfo":{"type":"ERC20","address":"0xA0b86991c6218b36c1d19D4a2e9Eb0cE3606eB48","name":"USD Coin","symbol":"USDC","decimals":6,"logoUri":"https://safe-transaction-assets.safe.global/tokens/logos/0xA0b86991c6218b36c1d19D4a2e9Eb0cE3606eB48.png","trusted":true},"from":"0x91c32893216dE3eA0a55ABb9851f581d4503d39b"},{"type":"ERC20_TRANSFER","executionDate":"2023-10-31T13:02:11Z","blockNumber":18470277,"transactionHash":"0x133aabec356a175e7b5f1dcde661861dd63f8b93875a38cca3b4faa12e903133","to":"0x1d921dff757610FbDB0073479e12c0a07d382677","value":"2000000000","tokenId":null,"tokenAddress":"0xA0b86991c6218b36c1d19D4a2e9Eb0cE3606eB48","transferId":"e133aabec356a175e7b5f1dcde661861dd63f8b93875a38cca3b4faa12e903133238","tokenInfo":{"type":"ERC20","address":"0xA0b86991c6218b36c1d19D4a2e9Eb0cE3606eB48","name":"USD Coin","symbol":"USDC","decimals":6,"logoUri":"https://safe-transaction-assets.safe.global/tokens/logos/0xA0b86991c6218b36c1d19D4a2e9Eb0cE3606eB48.png","trusted":true},"from":"0x91c32893216dE3eA0a55ABb9851f581d4503d39b"},{"type":"ERC20_TRANSFER","executionDate":"2023-10-31T13:02:11Z","blockNumber":18470277,"transactionHash":"0x133aabec356a175e7b5f1dcde661861dd63f8b93875a38cca3b4faa12e903133","to":"0x54BeCc7560a7Be76d72ED76a1f5fee6C5a2A7Ab6","value":"2000000000","tokenId":null,"tokenAddress":"0xA0b86991c6218b36c1d19D4a2e9Eb0cE3606eB48","transferId":"e133aabec356a175e7b5f1dcde661861dd63f8b93875a38cca3b4faa12e903133240","tokenInfo":{"type":"ERC20","address":"0xA0b86991c6218b36c1d19D4a2e9Eb0cE3606eB48","name":"USD Coin","symbol":"USDC","decimals":6,"logoUri":"https://safe-transaction-assets.safe.global/tokens/logos/0xA0b86991c6218b36c1d19D4a2e9Eb0cE3606eB48.png","trusted":true},"from":"0x91c32893216dE3eA0a55ABb9851f581d4503d39b"}],"txType":"ETHEREUM_TRANSACTION","from":"0x902c0954eB12B2e351199604AB488E24092dfA31"},{"safe":"0x91c32893216dE3eA0a55ABb9851f581d4503d39b","to":"0x40A2aCCbd92BCA938b02010E17A5b8929b49130D","value":"0","data":"0x8d80ff0a0000000000000000000000000000000000000000000000000000000000000020000000000000000000000000000000000000000000000000000000000000044b00c0fde70a65c7569fe919be57492228dee8cdb58500000000000000000000000000000000000000000000000000000000000000000000000000000000000000000000000000000000000000000000000000000284bf6213e4000000000000000000000000000000000000000000000000000000000000000000000000000000000000000000000000000000000000000000000000000000d000000000000000000000000000000000000000000000000000000000631082a000000000000000000000000000000000000000000000005a6d82185546c8624000000000000000000000000000000000000000000000000000000000000000a0000000000000000000000000000000000000000000000000000000000000000ec15cdd147848bbed949f080f57efac2e2676a2a28a6f92087d45d052d2044d2f5f999f7a57e472379338679f672271f24dc5991ba96ea613e0a4ecc7dc4fe8ee368466a9fb0e963298feb59947252d367b513fff7a6abba4d1841451eb6c26c008bf8dc7cf0072fd4ffd728bd857e5033c4d74ae273523f0bd299ace4ff0740c886a8aad53a56304d4b7c4451e6d411a7abfd0527b455c9f52f67c0c9143c5b3cdaebd32b3fe1dadb272a8e402283954a22bfc0ba203e8f4ab5a92ca9c1f4174b12b042814f1960d1790a6b4c90c1aed43056689dc76b6616f3fb485f8de1285363d1e1851930536b6bd183246af198781e7bcb7481417cba401b3c95d45f7685631fe853ce21451206fe2dcfec70f5caac6f65ff45546a85daa589322990c096dca16b959baa757106e0ed68d68de564bf7ba4f19416702df91745d7b4dbb27e88a385c5f28c68d6cb197ff4990db720885240ee80d5a97eec2a765ed04a04e2979e713b020cb0e02a288d0bfcaf2c375eee0154f2c147331b6ac597dc4318ce2b06e3ef3c26a6f4f600b9dd10fb39ce0edf9b7a68a9cfc3c823a9d1c674f0bcdcda7e7a0107576ab65577d5d9ae431cfeec31a94a3da554b3b45f8a8dc454200c0fde70a65c7569fe919be57492228dee8cdb585000000000000000000000000000000000000000000000000000000000000000000000000000000000000000000000000000000000000000000000000000000640087b83ff67353f03924e60b9a228ec28b98713db0f02f5bf71abf4c7c690ac332caf54400000000000000000000000091c32893216de3ea0a55abb9851f581d4503d39b00000000000000000000000000000000ffffffffffffffffffffffffffffffff00a0b937d5c8e32a80e3a8ed4227cd020221544ee6000000000000000000000000000000000000000000000000000000000000000000000000000000000000000000000000000000000000000000000000000000640087b83f6f60c339ae3b74e80d17e7923fd2b24b4c411cb342efc4e658c3e959eef9c8b500000000000000000000000091c32893216de3ea0a55abb9851f581d4503d39b00000000000000000000000000000000ffffffffffffffffffffffffffffffff000000000000000000000000000000000000000000","operation":1,"gasToken":"0x0000000000000000000000000000000000000000","safeTxGas":0,"baseGas":0,"gasPrice":"0","refundReceiver":"0x0000000000000000000000000000000000000000","nonce":59,"executionDate":"2023-10-20T14:24:47Z","submissionDate":"2023-10-17T17:37:03.470964Z","modified":"2023-10-20T14:24:47Z","blockNumber":18392111,"transactionHash":"0x2973dbefd6d445ecfaf6bbdede1d8596eb156ea6f34a01bcf524e44a44b27398","safeTxHash":"0x7661a0646ad093e111c20096f468dd01e42e162c04b265232b70c73fbaf48ad1","proposer":null,"executor":"0x7024E5e2241eE7C6d09048547A410a3c4294b884","isExecuted":true,"isSuccessful":true,"ethGasPrice":"23717106727","maxFeePerGas":"25000000000","maxPriorityFeePerGas":"1500000000","gasUsed":283023,"fee":"6712486697195721","origin":"{\"url\": \"https://governance.safe.global\", \"name\": \"Safe{DAO} Governance\"}","dataDecoded":{"method":"multiSend","parameters":[{"name":"transactions","type":"bytes","value":"0x00c0fde70a65c7569fe919be57492228dee8cdb58500000000000000000000000000000000000000000000000000000000000000000000000000000000000000000000000000000000000000000000000000000284bf6213e4000000000000000000000000000000000000000000000000000000000000000000000000000000000000000000000000000000000000000000000000000000d000000000000000000000000000000000000000000000000000000000631082a000000000000000000000000000000000000000000000005a6d82185546c8624000000000000000000000000000000000000000000000000000000000000000a0000000000000000000000000000000000000000000000000000000000000000ec15cdd147848bbed949f080f57efac2e2676a2a28a6f92087d45d052d2044d2f5f999f7a57e472379338679f672271f24dc5991ba96ea613e0a4ecc7dc4fe8ee368466a9fb0e963298feb59947252d367b513fff7a6abba4d1841451eb6c26c008bf8dc7cf0072fd4ffd728bd857e5033c4d74ae273523f0bd299ace4ff0740c886a8aad53a56304d4b7c4451e6d411a7abfd0527b455c9f52f67c0c9143c5b3cdaebd32b3fe1dadb272a8e402283954a22bfc0ba203e8f4ab5a92ca9c1f4174b12b042814f1960d1790a6b4c90c1aed43056689dc76b6616f3fb485f8de1285363d1e1851930536b6bd183246af198781e7bcb7481417cba401b3c95d45f7685631fe853ce21451206fe2dcfec70f5caac6f65ff45546a85daa589322990c096dca16b959baa757106e0ed68d68de564bf7ba4f19416702df91745d7b4dbb27e88a385c5f28c68d6cb197ff4990db720885240ee80d5a97eec2a765ed04a04e2979e713b020cb0e02a288d0bfcaf2c375eee0154f2c147331b6ac597dc4318ce2b06e3ef3c26a6f4f600b9dd10fb39ce0edf9b7a68a9cfc3c823a9d1c674f0bcdcda7e7a0107576ab65577d5d9ae431cfeec31a94a3da554b3b45f8a8dc454200c0fde70a65c7569fe919be57492228dee8cdb585000000000000000000000000000000000000000000000000000000000000000000000000000000000000000000000000000000000000000000000000000000640087b83ff67353f03924e60b9a228ec28b98713db0f02f5bf71abf4c7c690ac332caf54400000000000000000000000091c32893216de3ea0a55abb9851f581d4503d39b00000000000000000000000000000000ffffffffffffffffffffffffffffffff00a0b937d5c8e32a80e3a8ed4227cd020221544ee6000000000000000000000000000000000000000000000000000000000000000000000000000000000000000000000000000000000000000000000000000000640087b83f6f60c339ae3b74e80d17e7923fd2b24b4c411cb342efc4e658c3e959eef9c8b500000000000000000000000091c32893216de3ea0a55abb9851f581d4503d39b00000000000000000000000000000000ffffffffffffffffffffffffffffffff","valueDecoded":[{"operation":0,"to":"0xC0fde70A65C7569Fe919bE57492228DEE8cDb585","value":"0","data":"0xbf6213e4000000000000000000000000000000000000000000000000000000000000000000000000000000000000000000000000000000000000000000000000000000d000000000000000000000000000000000000000000000000000000000631082a000000000000000000000000000000000000000000000005a6d82185546c8624000000000000000000000000000000000000000000000000000000000000000a0000000000000000000000000000000000000000000000000000000000000000ec15cdd147848bbed949f080f57efac2e2676a2a28a6f92087d45d052d2044d2f5f999f7a57e472379338679f672271f24dc5991ba96ea613e0a4ecc7dc4fe8ee368466a9fb0e963298feb59947252d367b513fff7a6abba4d1841451eb6c26c008bf8dc7cf0072fd4ffd728bd857e5033c4d74ae273523f0bd299ace4ff0740c886a8aad53a56304d4b7c4451e6d411a7abfd0527b455c9f52f67c0c9143c5b3cdaebd32b3fe1dadb272a8e402283954a22bfc0ba203e8f4ab5a92ca9c1f4174b12b042814f1960d1790a6b4c90c1aed43056689dc76b6616f3fb485f8de1285363d1e1851930536b6bd183246af198781e7bcb7481417cba401b3c95d45f7685631fe853ce21451206fe2dcfec70f5caac6f65ff45546a85daa589322990c096dca16b959baa757106e0ed68d68de564bf7ba4f19416702df91745d7b4dbb27e88a385c5f28c68d6cb197ff4990db720885240ee80d5a97eec2a765ed04a04e2979e713b020cb0e02a288d0bfcaf2c375eee0154f2c147331b6ac597dc4318ce2b06e3ef3c26a6f4f600b9dd10fb39ce0edf9b7a68a9cfc3c823a9d1c674f0bcdcda7e7a0107576ab65577d5d9ae431cfeec31a94a3da554b3b45f8a8dc4542","dataDecoded":{"method":"redeem","parameters":[{"name":"curveType","type":"uint8","value":"0"},{"name":"durationWeeks","type":"uint16","value":"208"},{"name":"startDate","type":"uint64","value":"1662026400"},{"name":"amount","type":"uint128","value":"1668097862885505000000"},{"name":"proof","type":"bytes32[]","value":["0xc15cdd147848bbed949f080f57efac2e2676a2a28a6f92087d45d052d2044d2f","0x5f999f7a57e472379338679f672271f24dc5991ba96ea613e0a4ecc7dc4fe8ee","0x368466a9fb0e963298feb59947252d367b513fff7a6abba4d1841451eb6c26c0","0x08bf8dc7cf0072fd4ffd728bd857e5033c4d74ae273523f0bd299ace4ff0740c","0x886a8aad53a56304d4b7c4451e6d411a7abfd0527b455c9f52f67c0c9143c5b3","0xcdaebd32b3fe1dadb272a8e402283954a22bfc0ba203e8f4ab5a92ca9c1f4174","0xb12b042814f1960d1790a6b4c90c1aed43056689dc76b6616f3fb485f8de1285","0x363d1e1851930536b6bd183246af198781e7bcb7481417cba401b3c95d45f768","0x5631fe853ce21451206fe2dcfec70f5caac6f65ff45546a85daa589322990c09","0x6dca16b959baa757106e0ed68d68de564bf7ba4f19416702df91745d7b4dbb27","0xe88a385c5f28c68d6cb197ff4990db720885240ee80d5a97eec2a765ed04a04e","0x2979e713b020cb0e02a288d0bfcaf2c375eee0154f2c147331b6ac597dc4318c","0xe2b06e3ef3c26a6f4f600b9dd10fb39ce0edf9b7a68a9cfc3c823a9d1c674f0b","0xcdcda7e7a0107576ab65577d5d9ae431cfeec31a94a3da554b3b45f8a8dc4542"]}]}},{"operation":0,"to":"0xC0fde70A65C7569Fe919bE57492228DEE8cDb585","value":"0","data":"0x0087b83ff67353f03924e60b9a228ec28b98713db0f02f5bf71abf4c7c690ac332caf54400000000000000000000000091c32893216de3ea0a55abb9851f581d4503d39b00000000000000000000000000000000ffffffffffffffffffffffffffffffff","dataDecoded":{"method":"claimVestedTokensViaModule","parameters":[{"name":"vestingId","type":"bytes32","value":"0xf67353f03924e60b9a228ec28b98713db0f02f5bf71abf4c7c690ac332caf544"},{"name":"beneficiary","type":"address","value":"0x91c32893216dE3eA0a55ABb9851f581d4503d39b"},{"name":"tokensToClaim","type":"uint128","value":"340282366920938463463374607431768211455"}]}},{"operation":0,"to":"0xA0b937D5c8E32a80E3a8ed4227CD020221544ee6","value":"0","data":"0x0087b83f6f60c339ae3b74e80d17e7923fd2b24b4c411cb342efc4e658c3e959eef9c8b500000000000000000000000091c32893216de3ea0a55abb9851f581d4503d39b00000000000000000000000000000000ffffffffffffffffffffffffffffffff","dataDecoded":{"method":"claimVestedTokensViaModule","parameters":[{"name":"vestingId","type":"bytes32","value":"0x6f60c339ae3b74e80d17e7923fd2b24b4c411cb342efc4e658c3e959eef9c8b5"},{"name":"beneficiary","type":"address","value":"0x91c32893216dE3eA0a55ABb9851f581d4503d39b"},{"name":"tokensToClaim","type":"uint128","value":"340282366920938463463374607431768211455"}]}}]}]},"confirmationsRequired":3,"confirmations":[{"owner":"0x70B8769B09aF7447886620c20854c8B9119b5FeE","submissionDate":"2023-10-17T17:37:03.538336Z","transactionHash":null,"signature":"0x06b4e3fed591e9ff0f9539bd91ee5e5ddf531586d6180520f619ee0ca8afca4c020764e3ff22e24019445d3acdff8f89b7751f3c11e9c7659771a3993f3bdd5e1c","signatureType":"EOA"},{"owner":"0x0B8B1ed2594B36aedbF44DD17674f4686eDFeE6B","submissionDate":"2023-10-19T19:59:10.102023Z","transactionHash":null,"signature":"0x40429044b10841bd2d80fb441de0aebe4e4dd6abe828303b804c11ec3393ae933c83bfb6eba37bd3273eacd3669dfb5f7c4a453cb8705de7d7b1e1208cf398b01b","signatureType":"EOA"},{"owner":"0x7024E5e2241eE7C6d09048547A410a3c4294b884","submissionDate":"2023-10-20T14:24:47Z","transactionHash":null,"signature":"0x0000000000000000000000007024e5e2241ee7c6d09048547a410a3c4294b884000000000000000000000000000000000000000000000000000000000000000001","signatureType":"APPROVED_HASH"}],"trusted":true,"signatures":"0x40429044b10841bd2d80fb441de0aebe4e4dd6abe828303b804c11ec3393ae933c83bfb6eba37bd3273eacd3669dfb5f7c4a453cb8705de7d7b1e1208cf398b01b0000000000000000000000007024e5e2241ee7c6d09048547a410a3c4294b88400000000000000000000000000000000000000000000000000000000000000000106b4e3fed591e9ff0f9539bd91ee5e5ddf531586d6180520f619ee0ca8afca4c020764e3ff22e24019445d3acdff8f89b7751f3c11e9c7659771a3993f3bdd5e1c","transfers":[{"type":"ERC20_TRANSFER","executionDate":"2023-10-20T14:24:47Z","blockNumber":18392111,"transactionHash":"0x2973dbefd6d445ecfaf6bbdede1d8596eb156ea6f34a01bcf524e44a44b27398","to":"0x91c32893216dE3eA0a55ABb9851f581d4503d39b","value":"53169968986328358230","tokenId":null,"tokenAddress":"0x5aFE3855358E112B5647B952709E6165e1c1eEEe","transferId":"e2973dbefd6d445ecfaf6bbdede1d8596eb156ea6f34a01bcf524e44a44b27398263","tokenInfo":{"type":"ERC20","address":"0x5aFE3855358E112B5647B952709E6165e1c1eEEe","name":"Safe Token","symbol":"SAFE","decimals":18,"logoUri":"https://safe-transaction-assets.safe.global/tokens/logos/0x5aFE3855358E112B5647B952709E6165e1c1eEEe.png","trusted":true},"from":"0xA0b937D5c8E32a80E3a8ed4227CD020221544ee6"},{"type":"ERC20_TRANSFER","executionDate":"2023-10-20T14:24:47Z","blockNumber":18392111,"transactionHash":"0x2973dbefd6d445ecfaf6bbdede1d8596eb156ea6f34a01bcf524e44a44b27398","to":"0x91c32893216dE3eA0a55ABb9851f581d4503d39b","value":"474518709196754661950","tokenId":null,"tokenAddress":"0x5aFE3855358E112B5647B952709E6165e1c1eEEe","transferId":"e2973dbefd6d445ecfaf6bbdede1d8596eb156ea6f34a01bcf524e44a44b27398257","tokenInfo":{"type":"ERC20","address":"0x5aFE3855358E112B5647B952709E6165e1c1eEEe","name":"Safe Token","symbol":"SAFE","decimals":18,"logoUri":"https://safe-transaction-assets.safe.global/tokens/logos/0x5aFE3855358E112B5647B952709E6165e1c1eEEe.png","trusted":true},"from":"0xC0fde70A65C7569Fe919bE57492228DEE8cDb585"}],"txType":"MULTISIG_TRANSACTION"},{"safe":"0x91c32893216dE3eA0a55ABb9851f581d4503d39b","to":"0xA0b86991c6218b36c1d19D4a2e9Eb0cE3606eB48","value":"0","data":"0xa9059cbb000000000000000000000000c2bc2f890067c511215f9463a064221577a53e100000000000000000000000000000000000000000000000000000000b68a0aa00","operation":0,"gasToken":"0x0000000000000000000000000000000000000000","safeTxGas":0,"baseGas":0,"gasPrice":"0","refundReceiver":"0x0000000000000000000000000000000000000000","nonce":58,"executionDate":"2023-10-09T15:38:59Z","submissionDate":"2023-10-09T10:23:08.079578Z","modified":"2023-10-09T15:39:13.172645Z","blockNumber":18313863,"transactionHash":"0xecbd2bdee72a2636e1e0e91267a714f0e2c200cc90e039e47090fe0c1df2bd14","safeTxHash":"0x7066ac609be6fb48dd66cadd0143fff6b907ea716879a74ebd39a0b25255316f","proposer":null,"executor":"0x0B8B1ed2594B36aedbF44DD17674f4686eDFeE6B","isExecuted":true,"isSuccessful":true,"ethGasPrice":"11493808821","maxFeePerGas":"12000000000","maxPriorityFeePerGas":"1500000000","gasUsed":102136,"fee":"1173931657741656","origin":"{}","dataDecoded":{"method":"transfer","parameters":[{"name":"to","type":"address","value":"0xC2bc2F890067C511215f9463a064221577a53E10"},{"name":"value","type":"uint256","value":"49000000000"}]},"confirmationsRequired":3,"confirmations":[{"owner":"0xb8c2C29ee19D8307cb7255e1Cd9CbDE883A267d5","submissionDate":"2023-10-09T10:23:08.115074Z","transactionHash":null,"signature":"0xbb54ebce26f228c910752514ae773f776a6e44828922a45a31f0662b0322dbf61c39be2eea0cd441f682d34edf3f7a9e07bb31c1e8986405a213d2d1b8108a411c","signatureType":"EOA"},{"owner":"0x7024E5e2241eE7C6d09048547A410a3c4294b884","submissionDate":"2023-10-09T14:22:31.105250Z","transactionHash":null,"signature":"0xca7779a7a5ac572f7971299094462f79b376a99d4f12560f1b3d6bf10eddcb680b0f856a8c18f84da4e766ff15c954f17f0927474919ead245807bb024b94edb1b","signatureType":"EOA"},{"owner":"0x0B8B1ed2594B36aedbF44DD17674f4686eDFeE6B","submissionDate":"2023-10-09T15:33:31.734509Z","transactionHash":null,"signature":"0x0000000000000000000000000b8b1ed2594b36aedbf44dd17674f4686edfee6b000000000000000000000000000000000000000000000000000000000000000001","signatureType":"APPROVED_HASH"}],"trusted":true,"signatures":"0x0000000000000000000000000b8b1ed2594b36aedbf44dd17674f4686edfee6b000000000000000000000000000000000000000000000000000000000000000001ca7779a7a5ac572f7971299094462f79b376a99d4f12560f1b3d6bf10eddcb680b0f856a8c18f84da4e766ff15c954f17f0927474919ead245807bb024b94edb1bbb54ebce26f228c910752514ae773f776a6e44828922a45a31f0662b0322dbf61c39be2eea0cd441f682d34edf3f7a9e07bb31c1e8986405a213d2d1b8108a411c","transfers":[{"type":"ERC20_TRANSFER","executionDate":"2023-10-09T15:38:59Z","blockNumber":18313863,"transactionHash":"0xecbd2bdee72a2636e1e0e91267a714f0e2c200cc90e039e47090fe0c1df2bd14","to":"0xC2bc2F890067C511215f9463a064221577a53E10","value":"49000000000","tokenId":null,"tokenAddress":"0xA0b86991c6218b36c1d19D4a2e9Eb0cE3606eB48","transferId":"eecbd2bdee72a2636e1e0e91267a714f0e2c200cc90e039e47090fe0c1df2bd14175","tokenInfo":{"type":"ERC20","address":"0xA0b86991c6218b36c1d19D4a2e9Eb0cE3606eB48","name":"USD Coin","symbol":"USDC","decimals":6,"logoUri":"https://safe-transaction-assets.safe.global/tokens/logos/0xA0b86991c6218b36c1d19D4a2e9Eb0cE3606eB48.png","trusted":true},"from":"0x91c32893216dE3eA0a55ABb9851f581d4503d39b"}],"txType":"MULTISIG_TRANSACTION"},{"executionDate":"2023-10-07T21:42:59Z","to":"0xb8ac53AFCCEBc44AaC33D0C30E2Ae0783E7fde5f","data":"0x729ad39e000000000000000000000000000000000000000000000000000000000000002000000000000000000000000000000000000000000000000000000000000003e800000000000000000000000005c5395e2d27ddfa1cb42fb3578771264f7db7d40000000000000000000000007a60a97f074906300279bc3339e25eda89686a9d0000000000000000000000001ee9f3123ebff72d90eb5fb3095d9508e0e1afac000000000000000000000000d451a2005bc5a2469416fdb9faf7eeb62bc2a262000000000000000000000000f85e7ac8b86685c92c8731a283a46ca58115c38000000000000000000000000020bad827c5ea706effddc210c70d32fcab202103000000000000000000000000eb217f5cfe41c3f790d001649cb24000f4a2c8790000000000000000000000006ba8ae31334854aaed2c1ae99a78c5dc8403ce940000000000000000000000000b6471e30ad463f53ef42caec20b59541fec06d100000000000000000000000099773c732dca317506518f75068347aedb6a971300000000000000000000000029bc45d01111e78442335439851a2b2bfcd57e9000000000000000000000000014e62ada457a36aa41f64beaff1cb8a87597cd40000000000000000000000000c9860f58ddd09b789056a80bb9af5d69665f3311000000000000000000000000d4f7ef23e24abe57f7308d9225944655b1c6a26a0000000000000000000000008b47e7daa3c7471f446f6500243be9b59fd574510000000000000000000000008e6794145ca0e1d187d418716dd9245d1a29edc400000000000000000000000002d7114d48c8ada299cabf44177b7d1f4f7253960000000000000000000000002fa4c2262f042441f1f627dde3cd499fb3fc1341000000000000000000000000ea11345468ccede7d08711e2764577843c7dce1c000000000000000000000000cb13354afa22c04f656d411a77939cd8944b3b9e000000000000000000000000c233123eccf55d883eef2174bed501ea10f63c950000000000000000000000005e97104f602648adcb9f75f5f3b852cac2dc4576000000000000000000000000856afc7acdcceb97f3fb4ca44703598fce1a2b8000000000000000000000000064c443c612a3e642297f65ed3472a6e40ed5c745000000000000000000000000659fc56e2fd475dbc11c23144e310056c17a8bd80000000000000000000000008734e1e785c143cd5d9cb31a2d7f1e85f8538685000000000000000000000000b104e4c3c1c4963e177e23b97baa6e61ab2c3b20000000000000000000000000ca8eec02331aa100d114818cbf39a51f5812e1f00000000000000000000000008bc7396fc4ba6f7027b1706bda148bb65eed3b86000000000000000000000000a14f061fb87afb394d812020a71996ab90d936f3000000000000000000000000d79df9dfdaafb194d4a9f1536af5a7a3b37ed8f8000000000000000000000000648f05a88221785bb91a414ecad6bfd841296e050000000000000000000000003657c5f86847d4a5219e089206c913e4cb00b618000000000000000000000000003eb864477c8858bec0916e23785aca46f6ba340000000000000000000000000ac7c118e5d5ee24b4a085dfffb60717c94d557b00000000000000000000000050bd70ba4174105d2873a8b485f2fe2326e33dcb000000000000000000000000c6bb2b2463f876060a91b86e794f53c3f174edb100000000000000000000000059a23dc754f4b8682adb63a6d926d05d06efc8960000000000000000000000000119721f5662d05970dbd05cf2170490efa45522000000000000000000000000693253fbdcebf6015ef85915af2b65d0240242ee00000000000000000000000056b358d997b77c78e348045f5a62b7c3721a192c000000000000000000000000f09a08d14668898aab7a8c778615e0282ab23b0a000000000000000000000000ca447536b751105012b79c0b919f919d0898022b00000000000000000000000036d99d4b1e850c7b8768a1cfc242657a2c8b0908000000000000000000000000ebfeae43a841ee689d904273a2996dd60a0ad7de000000000000000000000000529bcdbc69d92fe1192b3061d691ba9aae06ebad00000000000000000000000084b10c201fc4bf72f6cabb0d44621cee11d576b5000000000000000000000000ac5876cf537cc8cec1002b7014b49f2ecffe5fb50000000000000000000000004359a053a0de8592b919116963699a9201e6f64f0000000000000000000000005a8aad41121923d341aae92635fe271d14daf400000000000000000000000000d2f56156f3c35da7789dc99b876710e56ea4485500000000000000000000000091c32893216de3ea0a55abb9851f581d4503d39b0000000000000000000000006b473c25e0a9b38863421e54f12ffdb9b67f90630000000000000000000000006aa5dc541a66036f4a79ccf7c93b0ce0c03ea8ba00000000000000000000000022e816b0e9c3985d5d0c5ebc65d061a308976969000000000000000000000000d8e745b07bc7fb767fb08fffd6271ba5271cedad0000000000000000000000005607ddb73a4fd938beefc36bcc25786fc3a8a7b7000000000000000000000000aea0e57f03de7160ceea4fc13b68eb3ffcecab85000000000000000000000000a15dee7b58172f1e530dbc321c6cfab8d8a8c72d000000000000000000000000a76902af6e89f789a183d8874044f430484b7bd3000000000000000000000000b9579e5c4614bee1d5e38b8a226fdcede65836580000000000000000000000005984ba8d76f986d3bfc870caa81b6071efaece9d000000000000000000000000ad5dccc00ff61b229d8b35fa226489f4c7cbc387000000000000000000000000f701da0f8087610e763b4227d2d2703ff4ccc3e3000000000000000000000000a0025b8c1c82be938b668adb6d1107e4b14b3bec0000000000000000000000003e9598a5f8faa9e360befd18f397f29e254dcea000000000000000000000000028b11ce040128657d568d1b544e8946b22ffc7dd000000000000000000000000dc5275ece033049af119614bc17ee83d5a09291c000000000000000000000000cc213192510b145ed0db20fe6150c380ca5c6f3d000000000000000000000000fe0fb5fcf4fe913fc4365f7f1cbc753d46696cf200000000000000000000000028a1af243539563530dcd49aee2d8855b3285790000000000000000000000000b4c7bdf310d8d77a5729255252b6d55e42e1eaf1000000000000000000000000f4da606ae94b1fdce1e65aabdf40ff44bb883b37000000000000000000000000473e60066eb555b817c07aa140fba6cf3dab8f06000000000000000000000000d3264e123dcac72d43d7c54f1e0a560514a356630000000000000000000000009a7ff3d28113acdb9169e9cb45e123e603a5a785000000000000000000000000863db441a667a6558d5d5bbdbcee58eb4a1c2f9900000000000000000000000058e9bdd8324fc6a468cf191c7cc73c6b9e5fed36000000000000000000000000af3e6776aa1d2615bf4fc592ab55e5f600eaf4ac0000000000000000000000006818bd912f08f1d3f9682fc7e022ae4e933ed711000000000000000000000000d566a2e5d20eb382bb0facfc51f23ec95782ce0500000000000000000000000012efd46a26c4b50ced142be4ea89803f7d921c0e0000000000000000000000005d95f5dcf62fddb3995c97d4b0cee09a1495c5d500000000000000000000000075bff91af9878f5ec3fede9b52d51159afc2430a0000000000000000000000001cf94662067fcd0d2159f910d36d71f40965648500000000000000000000000035e1f2a41caba71c4848d9d7838d697501b8a668000000000000000000000000090d4613473dee047c3f2706764f49e0821d256e0000000000000000000000006b13b538ad4e7afcac2e3f0b28115cec67bf257b0000000000000000000000001f50a239221ebe19445b9d399fe4867454712b19000000000000000000000000102864d7c214aefde8361c1415831ae7a3c91e93000000000000000000000000688dfc5a9feed56351f5a1942f433cb6f68059cf000000000000000000000000ceeafbee01c254a7a012f8db84db8f446ff148cf000000000000000000000000326247339d928c753a0412a7aaa3d93bf8d6100e00000000000000000000000023b71d188b798b1606d2bb3f6c7181913202f7ff000000000000000000000000baee373001060dfeb53f155e87b7ae207116dd0b00000000000000000000000064943f9e85fde4c0fab271081b7bcf0ccabc8ec400000000000000000000000037d7701c235e748d529368b14671aca06c678d1d0000000000000000000000001685ffcc5b7235a6419d2be0335e0612f9cf2d440000000000000000000000002ee5727b4c795d38da3f11339cdb42a252a3ac7500000000000000000000000050de0b69aa08eb9ba6dbefb6841e9b15e405eabc00000000000000000000000032d8d9b37b6449a2c30983c7a6b3a1e5b23361ce000000000000000000000000c68438c4f55491f2d2e832b22276e6b103f1ed64000000000000000000000000b24c177cb0f6869995ece9ff569bb08efe0538f30000000000000000000000000bbb5a9799b78c5cd3389147d321ead928a625ec000000000000000000000000a383bef34d73a7353297acfc5b5cde716ddf4ba50000000000000000000000002eb349bf7fedd20ddfcc5cdd1acd506e2713965c000000000000000000000000a6bb6b2a9f9c3fda558f6a63d201be53c5576bcb0000000000000000000000008418b1a136da1692606967b0b0f798624ba201ec000000000000000000000000678e79c6697ec9259c1ba089ff7945d183b164450000000000000000000000002d82d83b77864cb5f00fd29d59e48b639a9aa60a000000000000000000000000547b1e08a037be78f243c06077d0fe25290c8834000000000000000000000000f0f0fcda832415b935802c6dad0a6da2c7eaed8f000000000000000000000000d2fe5513f3247b745a643d8c83c5b035706069bd000000000000000000000000094bf626e9823b7c762f837b2d2b955dac5a7b510000000000000000000000007bd6ea51d343e7fa32ad544f023f50e65e324a2e000000000000000000000000d83cd0536b5f27ee0ea222959481522102e596c2000000000000000000000000059b99abc4b93edc445af6416b985402c6ee419800000000000000000000000044c12f483410b405934b29d8e4ca574a0f2b6f73000000000000000000000000d54a1287fddee64298af7fc7cf81bf127c258cf80000000000000000000000009d5bbcd864f1aeb5c5b660987c59d59fb0d2dbde00000000000000000000000031aeec9c30f782245f53303965d211f65f0ac13200000000000000000000000081dd52d454c819b7921756e77aa0c5f29ec558e40000000000000000000000001a654d41fd7a2c31dc7ec5461d95b1f051d7bb01000000000000000000000000b4da79593fe638c467d6d51e59633c5d38b24ffa000000000000000000000000cafda2fff0d8a780534a5e18bc92f832f5e4125d0000000000000000000000005e2db7a535898b7e6681491cc42b4c8e33c9ce2d000000000000000000000000cf1734d7d89a8f225e18c17b6d87e6c193e419350000000000000000000000003d0d4e1642276c1d29541c43262eb5caee34cddd00000000000000000000000065d21d337c3970a186e9a18ba19e1186a62dc706000000000000000000000000d1d52370b390482dc40ba7499af114b77dfb1c000000000000000000000000009e159541e942ffde26818fcd94bc403d08d5ad8f0000000000000000000000008874d74a33cc394060d35e22a3def30c5110a57f000000000000000000000000590779dd163efd3121f9c344842dd4f63454b09d000000000000000000000000ddf578e38f52ac8aeb9cba9518af27a4255c2a6000000000000000000000000074a9501d0d4fdb7217abecbbd5521fb13b6ab10400000000000000000000000051c08687e412e361457b93bd45533d4ec5f95c32000000000000000000000000a539af96fd0b17cd29a335ed72df9f3e0516865500000000000000000000000069f6bdd72d17e65c95e1f0e07ca6a4861ee938cc000000000000000000000000ba426fea1a8abf138224f69a920a1e1c77ead81e0000000000000000000000006a5d782976bb9082c5460cb117e7ee639cac912d0000000000000000000000008f40cc8eb4637ca72557a4b89f0fa1b20044934e000000000000000000000000b9737ad2818f7284e655b395d1ecf219a7070674000000000000000000000000ab72d84af763a4c7a5b08c93e30f8c6efd4ced1c000000000000000000000000b266afa5235752b9c405721dde5a6d52e23f1a2200000000000000000000000031da9d52efa213b9f8de7edc94414c52552403c500000000000000000000000079ab3e36b3f8262327fee5c9dc5dc5bdcd48d0980000000000000000000000008d0630f5f4010d84ddc1e184a65a39d4f98aff76000000000000000000000000d8fc703974eaac5ce858a50d7c9a13a6fbc8e7b9000000000000000000000000e7ffd3ce8bfcee5c376abae4b54389b045dea939000000000000000000000000678ba7731735a66f11ee5b531564193ea0caf8ae000000000000000000000000ea3e33fc49ad319f6464ac80c96078683bd153690000000000000000000000007589cea7293bc0d824e78760ef160922de7ac5570000000000000000000000006d3ea6696999a4b8da773ce8366dafe1d111692d0000000000000000000000002b05b501a35769477e60682d68dd1fb2ea6bb0920000000000000000000000005e8e0b01a8baa5fdc9de60877c967e6103716ba0000000000000000000000000bd8e53832b781f6a45e7d996aa6fc671ebcf35930000000000000000000000003f0050ef0d0219d6b96b8b1c0481f93451575913000000000000000000000000796a4e231d483a38d867512a70322b1d73a35dc6000000000000000000000000a98c09ae4c558ca01d66865d1d1ee66d9f61503d000000000000000000000000b348341387b2e8b4f7e97fd5b862b170930e4ef70000000000000000000000006c735dcc6c013e94934e12457603ec3cd71fb9980000000000000000000000000c4e05fd3762022b787e8fe58ca20c20cdc33ae80000000000000000000000008cb94e661e2d4b358619148d63c27e17a7a203850000000000000000000000001ee0332f9e32cb36343e46ca6dca2a4fcdc0292b0000000000000000000000008ff69c15a41caa0b0ceffd280aec04319eba1e080000000000000000000000005e6f5bcab15e587f5fa3cf2604be05c0b72321ae00000000000000000000000072f4b70313025f8c5c5df02e069a17baa64ca3a500000000000000000000000024c4100fb4acffde20892866791a82ebe474f1a30000000000000000000000007aed5b599c8903815f62bbec7d002a44ada1a0290000000000000000000000006f8307c1f7ff1f90dd7830e5b778d42d0b4039c50000000000000000000000002418fdc8a7e19661f1ad136c1090ddb59dce6803000000000000000000000000fbc42b6d570e9e9f14a1bf0a39c85ad2b8f03ba50000000000000000000000007a950cabca836e3661a3a12f19e8153bbeaee39c0000000000000000000000009914120d8dcf9db05d86075e5917109f02e259b6000000000000000000000000858b35b4ed0a44a1a3fb5e3aeb2495ee817e34a400000000000000000000000054a92b6a38a2c9e7799546782e4fcc656312acb1000000000000000000000000523dcd5df7db6de147aa438593288fb00b9362d30000000000000000000000000d7ca236a7cfc8c766ecc3631f74e0f5a168e555000000000000000000000000710364b39b37b55faaf7a6a2299bea1a31aa07e50000000000000000000000007e23738d73873c9483b8a4609d39c05b4d25af500000000000000000000000005ccb1d21d8f1a979ab56e13c59f86abfa688173c0000000000000000000000006cc0dc1e0ab4d3d690229b5c018d756535a8aa1b000000000000000000000000ca5c4ff13888f9da89b43040ca911e9b185dc32b0000000000000000000000008b55ded5f4c27f3fcf0ae7d9d3f5290dc88c863d00000000000000000000000090e5154306455c5984b79310217600c85da33b96000000000000000000000000ad250a8b0bff6d918fbb0eeb04dc7c507cce68b9000000000000000000000000b0f7ba60051d0cfe182697f710ae06c1d92c2bb00000000000000000000000007b96f24886da6667021aa9e58724b5c243a9b8360000000000000000000000004185bad3305e4144739e47ac63ebfa3abc97a2320000000000000000000000001f286d0353c38b2962b7c2e8c8903e94ee661a320000000000000000000000002c170e22829671bae287ef295de86610646359ea000000000000000000000000a8cd0c3757b49fdc46d1b1d0b4489083287ce2c7000000000000000000000000f33b75cef3f6bf2380976640b7b04048a1b766fa00000000000000000000000041b8da0c04fbcd7457d9090986f5b4745cf0b771000000000000000000000000d01bf3aa694b90b292ff56e2f0d238b30839ac08000000000000000000000000e78eed078f2465fa16ffb14d6309ba8f1c30d0b10000000000000000000000003bca2f227da207a818293411964e004d854e82e2000000000000000000000000dae64abb47ca602230366408656ebd079cf1d844000000000000000000000000d02b45bd3f295027d2f35eda43ff1059960134d1000000000000000000000000568b8f04bbf426c604197e2be7d9ec2ad9c5c1b90000000000000000000000003b012f33df5e3aac3ab09a9e841d35faa2e6491c000000000000000000000000e7bb48db4768c2e9ae94397141c7770bb2105bb10000000000000000000000007d5488782fbed1066f5d011906027ca473873c6d000000000000000000000000ce8e926eecd3f8a924f4c7f090126e4cb976444c0000000000000000000000001c2e86aa7fd1b1bb626515212bfa285c9ed622a6000000000000000000000000805fb2f6e4c6ed596323b7f64d3350f7173d7410000000000000000000000000c291095a415a1f389a5d0ba9de0bbe43db5fb0c3000000000000000000000000a4b7a02e3ab80e0c380272111c3851b795baa04f000000000000000000000000df1aee47e5485a41678f8e891a4d6eaecfef6adc0000000000000000000000002ec5a19833462c6c4490bc42700c54db4b9fa5c30000000000000000000000002f0b424e241c7aa94913271a8e0778709170ab650000000000000000000000004e47bb93e5f132e9379ce511e4630c3893f5f685000000000000000000000000ba3b03fe6ef48bf0897e23a3ef37a50284bc848d000000000000000000000000be1873aeca2bb7b5e9b7736b6d484fc1f743030c0000000000000000000000006fa0f9bb01d7469a6a893c33dedff29c8ed02a5b000000000000000000000000ab9df1a6cb00f7af743aeac51ae200205e436c18000000000000000000000000b95460a673746e69dd9eb757b8583901b5ab51bd0000000000000000000000004208cbb68b41bcfe09a399d3c4257afcc0ef98120000000000000000000000008c324f6640d90fb027a64e85909f57d06881974a00000000000000000000000040661d746dd832cdd5c7321aa41dc598dc751ee5000000000000000000000000ce6b5ed014d4f0c4b804711088a721623b254a2b0000000000000000000000009319c54a7297137327fd6bded697c0c0f73815aa000000000000000000000000006d5bf20ecd3dcac096bf76b5dbab98dc5c678d0000000000000000000000006f1b8f19ce821961dc537921f04cafeaf4aab6b00000000000000000000000001c3ef61f87ce24ed1c33597ad2e20d742202f50b000000000000000000000000ee70252078fb6d0c7db714b8272b90eb9f5a58fb0000000000000000000000005e51fd779d6579ee7a9fb0ab7dc4944a92677af40000000000000000000000005790ef86983647e3b26b1f3bf8bf878a8844e36c0000000000000000000000008cf401e918bc744a33c611f6000066aea378a658000000000000000000000000ce306e2950cb2fb4e8a398a6fc560e78743d6730000000000000000000000000506446493ead2f3d9ef4b1b509cd92ac862a2ba60000000000000000000000004e8c798acb4d720d961f0148dc3ecbbc8d5c5c6f000000000000000000000000db6cd079f1c10dae0bf4702de8cb53d8b14906d8000000000000000000000000e2678448a4bf361ff50ffd943560665491e5c9c1000000000000000000000000e931ba71b8469946621f9e5e7f72aebf797969b6000000000000000000000000fee1ed2c9b2afe9f28911a31c8c9ccd8cfc4c10000000000000000000000000069caef7c15e249c0d8cb6bea209ab5bae17a53e70000000000000000000000001fff762d455fa6ee4f5663873de7ec1ac46c7bb40000000000000000000000005a59e92c2493be939504b68db3a9107f9c457fbd0000000000000000000000001ebf9ab98514ce7c315df53ae7c534ccb68dfbdd000000000000000000000000a0912e16c62e2b9a6a3aabebc4cb88d139b6b152000000000000000000000000500d0569584289f9022dd2f94a90e06ff3cf28c7000000000000000000000000143a91fc0260b4d5d95841cf63e31e5ec3a0b0a1000000000000000000000000befad017044cdf8b5da77a2c9c147361c9a3c3fb000000000000000000000000ed7370343f308586da66173d14d548cfbb9b1cbb000000000000000000000000d59981d2c8a9c066b1669048b6881e9e5ee9bacc0000000000000000000000009b66d003301e5839982ad9e477bf6a228327170e000000000000000000000000c16a098c91b0070bb62d9fb0adcc08f2a08f8d7d000000000000000000000000e0d1da761289fb0fad5501a8d4a079362a7c14e600000000000000000000000051e370199c25849a7fc4527e0276c7de57002ca70000000000000000000000009facccb60a8f5e86856336a095372fc43b4ab4c400000000000000000000000031371f7971520a6af47b9374bc32edefe87c0374000000000000000000000000b36e5ea5ace6af9e090c46079d62377aaa33876e000000000000000000000000b807e588b041d01b17e3f945ddd5fd05bbb2aef30000000000000000000000000ef8bf7d7ca6679269bdc05152d81f7463a7e1fb000000000000000000000000b6d2b614657494bff247d23f46819118626f12030000000000000000000000004acae04cd6891a8d275734f523cb995189318ac9000000000000000000000000cc2e741853fdbd287d21e5a9fc51f741da04c0a10000000000000000000000003c1f74ce14faed29dd2b0048e57ee110f4f16a37000000000000000000000000bcd4bfb285a3081a8d1396c4beaa972aede12bc8000000000000000000000000ba1750916c0a42ed446a0bd369fdd83b553e140a0000000000000000000000008e68900f56ad5cf05422b1c27da8f47ba8bb81a500000000000000000000000044b564292f295719716216fc4660faee8e381ada000000000000000000000000b0bd08e0c2209c607b0f0006311966e0af6b2e9e0000000000000000000000000b9305e2984ea351513f497655a4e3dddaf24f2000000000000000000000000098cb45e0ec4b111d8464adfad23b2ed5d6ca2954000000000000000000000000ef023ec22fa103a6a4f4afe40a2703c3bc831b7400000000000000000000000071e867d0f74241a1bf213ace263b386e66753dec0000000000000000000000007ad83b448e034fd446f27a30ee848513b46440a90000000000000000000000006e5672c767e354fb73958b47b32bf25ce360bd38000000000000000000000000af4479c198312eb267fc6c6ead28436e7c177c89000000000000000000000000fdb546d1e9dcd213a25bd7a086ba1c017497c261000000000000000000000000b0c22d8d350c67420f06f48936654f567c73e8c8000000000000000000000000612637fc4bb4870d391e8a5e4fdceecd4d1619250000000000000000000000001406ce597bda9a13945a1877cabe85ac34ae7590000000000000000000000000c161a8e18ecb144326e252dd2f0c1d0974abef79000000000000000000000000c17f2992c8f094b7567406d642c9813438631be300000000000000000000000038aa83265c397576bb85b9455251c688411c15a7000000000000000000000000eb1805a21c12598e0305ba5fd5e318aab2f803f8000000000000000000000000acbf3c973eeec20c573ec930ce31198afb4ad0d500000000000000000000000042d74cc63681b7a41606e0bb500a63bfe43860b600000000000000000000000036513fa653577f7914a6376b7fd781351d00664d000000000000000000000000c592b3f042aa9329aabedf6b65aa070926b41a000000000000000000000000005c4ffe9bb67c496049ecd03ea542eed8d948925e000000000000000000000000cc2ca22aaefe22a0144a0260731a40a725affff00000000000000000000000009f5f57a88372004423e6c8cb855f70e17be36fcf0000000000000000000000005ec4cca257a97c7d9859e5695e745b7b12568ada000000000000000000000000997a9eaa6ebb681c12af0867d922ff18c5f564c700000000000000000000000037133312e157dbdf9923cab5fc1cc9657c44f94b0000000000000000000000006bab2b0d689726922007ec8ddfe1f292885d7fe2000000000000000000000000c3651a24bde1b3d43c35d9cf0e34ea4634fa2a56000000000000000000000000eb33a955e143d5f8adcaf4dd303a8c7e6045015a000000000000000000000000192c42635cf0d0e2d50026fb4df50deddc80afdf0000000000000000000000006143019dcd6f4e4f33207d1a7aeb596194c29fc3000000000000000000000000f836a9268d39c89c9c8533bf97e93c00e25dc13e000000000000000000000000eb35e6481117e8aeb64fd9af2becda90f1716b7e000000000000000000000000774c92d1a0e406c4d0e8cf93a8a8af291386dd48000000000000000000000000ab1e76b1e3e983d5efb3a4349cbc295ba824eb1f000000000000000000000000ceeea60aaf53955d15507a5f4190240dccf49136000000000000000000000000cff068f399252ab82b6e48ec6c2cceaacbf8dd3c000000000000000000000000dbb38db020939cc010c431238c6d84496067e463000000000000000000000000e4052186034abfaced791f1fa8556dbf13b2782f000000000000000000000000b440ed3fbe190f3ebed1ebdc4ed207493a3e41100000000000000000000000004bfa57ed945a1452b375fa2911d3d26a5d990fd7000000000000000000000000fe00c07260927abeb35e709d6ee4862d8a093e3b00000000000000000000000047f8da0bda55675e5545dbd618423ce9d665e3d30000000000000000000000008b5f4a486bf71a35679c4005d6286c530cf30f36000000000000000000000000fdfc8f2997d326d206e64bb888b3726077dd41c5000000000000000000000000dae35d3168bd7285a566c3a716d084a41a6b2b40000000000000000000000000b5620a11b434d21c06ced89eb89f07a72bbdb33e000000000000000000000000b8ad24574907c4de75db6b01bd182905beb03b4f000000000000000000000000f149f2889715ee9ee788517370d140309ae6c4d2000000000000000000000000c027559860d3b1922d577de6fa7ac15f518c28ae0000000000000000000000006f9fcc5de0553e10b60724befd00d3c86792833a000000000000000000000000dc8f8d8522135a5a3aad2087bace35314a9ecf96000000000000000000000000ebcbfdf4c5df24e68acd7aa3eadcab402e96bd080000000000000000000000004f5b0652d24f8e6e6a514a57e7c143d992b14660000000000000000000000000c216575ead11a93ebb3f4e54b435a3f4fd3e33ee0000000000000000000000002677a56905249552e4261aa34ca2fa115a392e4c00000000000000000000000053eb68186677c5a7f1a02139ab09f3440bc8c40f0000000000000000000000005c7b2e22c58fca76a0468830b98486cf874259dd00000000000000000000000082e93faea8ce67bc4b5ee40f6f47a32d7ca603a30000000000000000000000000952011abf1f5de10c1f716b21abba709b62f6a600000000000000000000000046f59b22842c7f0ccf1a99411d22f64e54caf44d000000000000000000000000636af797fbd68a67b57704b4ea59349950a1a8740000000000000000000000009daeb0a1849d57f6bebe0e5969644950f0689936000000000000000000000000db53e56f1150334b1b4ac79955939213769162d900000000000000000000000020bc802dfb973d35cef890d3140cdbbe4996f951000000000000000000000000bd223173713e8de1db4607671a19f214fa1625ff000000000000000000000000ae861a6aa8d267ec200c905f0245915d57b5569a000000000000000000000000d571944004433449b209fd529e7be8c6c083351a00000000000000000000000066957d37c009060cec05e58d853081c89d4d34e600000000000000000000000005a60a8c9e2e70fb1bc17b03d0ecbd5ecae092550000000000000000000000006baa5db3cd9d461705945e0051b87d3b32ab85b5000000000000000000000000d12cd7cab5775500893ff3a95eedc9786a14e62700000000000000000000000092ba83bcc5060bf136605e8dc781945e112531230000000000000000000000004777339286ea5fe00de0ed0d6cd217636fb6635c000000000000000000000000302bcc58d913bcc3cfe584d929533b58c5188fa0000000000000000000000000a9567e77bd0343a60592f591d744b40fded6359c00000000000000000000000046995449959ec152228943fe755527f59dfbed02000000000000000000000000a39f923e175ffa142ec2ac0e2e04cdeac0f8c73c000000000000000000000000b0793d3573d28801d4dfecc4eec6293318711abc000000000000000000000000f34e618176a40c7999610a5c4ea691733186cbb10000000000000000000000007d90a10daeb8676b9c93b996016d2842a3ff0db3000000000000000000000000ae35de7807fd2cf38dac553955a3fc970ed90d6e00000000000000000000000063c75a234b655219fbcca5b437996aca50042cbb000000000000000000000000ffcc8f1797ddc1614e02779711eddc037c7b6b7100000000000000000000000080506b645e87b9e164b1b6d90f9f4d39b5c69e5b0000000000000000000000006132ad120ff5e8b7920c8ea954d9d3f66acb9e7500000000000000000000000018916cb519895c78e786fa6dfc26795e0065ffec000000000000000000000000b75c8f1f42073ab9362513a56d38b4e2330664700000000000000000000000008c784958aa4814637ad075c9e76a1278849c66e200000000000000000000000048c52a7e115a099c04569eccbac91771e149b87c0000000000000000000000003ff651ac6e99f476fad92bac76307d78914116650000000000000000000000002bde2407ccc88c4dd9fe48ab26e25f63e92a58fe0000000000000000000000005beecd1f429c7475f4df0891b3be8a29a4e310f0000000000000000000000000772fb11c6146fb8ae2f068805e250a594eb938f9000000000000000000000000ee477d9fb8b8b8671cee4079af0f2e75dc1aa2ab000000000000000000000000890d3b9a2d7d5ed9c51464107d78867c9cb65511000000000000000000000000ca72c59fcb00e1df0a0d3ae2f48cc6bdc0d148a30000000000000000000000006d52d6746f3923ff3b013a5c963832f29c9a20ac000000000000000000000000c64c35975ebeac01a71181049ec46bf798f5fa13000000000000000000000000bef44250d9ca38ca06031673956f1dff9cff8fb100000000000000000000000060a31a0fb37fff3ddb31f59e0165b8e012da482e000000000000000000000000a68e012cc60c9f4f51588089cda943392081c4b00000000000000000000000004fc402d011efdb468a2ac5d1bd17f76041f95b980000000000000000000000007ac604b48fa081abec544798205b6ec98d5654600000000000000000000000000a02f64009bc3731df4b71422cb39bb09f7c27ce000000000000000000000000ef06738131425c59569397e2c31c75ceeb1550ba000000000000000000000000d3ad46b7b5b4e9bc674e8db71d81cbbea4ba1a8c000000000000000000000000392027fdc620d397ca27f0c1c3dcb592f27a4dc3000000000000000000000000dce2f4bc457d832e1fc9ec440827ce7440598857000000000000000000000000983680b6a449f0da067a20d68508effddfa9de1d00000000000000000000000071e6be6d8cc9010b9a0d2532e7454adb2be76ef30000000000000000000000000954f540d09ca6037016322e1730faebf533256000000000000000000000000052028c8c763d9b83c4a5a3705d58d12d95bc7aba00000000000000000000000000eef679c71c1203fcab94e343494689fe4368cf0000000000000000000000003de402f83ca76499730eaae05851bab04e62279a000000000000000000000000dc3d377319b92c51e8bb91f6b30a5ccf253d0b4e000000000000000000000000ec2a84d5c246e8a53093e6efc913e6a5da57966d000000000000000000000000e6e62a07f27bbb98ed69324540508e88d5f38c4600000000000000000000000079779522cd0eaae0c2b90e74ce898ad79060135600000000000000000000000055dbcba09d2e230f413b4bf7aea1b0feb3fcfaef0000000000000000000000001fb8a97321bd69c782d54cb4feca063e5c2785ac0000000000000000000000002e6b3b01ff71fccca719f156ea1859aaaa12927b000000000000000000000000aba970511ac623e9847733c4b642bb3e6910ca300000000000000000000000000ff55c60269487ad977f2fb2fa942115651b2505000000000000000000000000b290c21107c8a92b653d812d33c91b106ae49cf200000000000000000000000059c41e7d52e47860b9d48c0c0d0d3927924ae2e0000000000000000000000000ba2b58db9cbd2eead024b0950ec053b8f1e99db6000000000000000000000000af503e23084289c937e9f96e0a13dad9a928cd09000000000000000000000000c39736586f197ff132d44c7e57099ce8712351110000000000000000000000009c48d7b9e2dc3c625b5ad89cdcbae6b9d256fcc2000000000000000000000000f69e834a815eed20f3a892ce4ccfd397ba59fc1f00000000000000000000000015e6bb23186d8c1f3ae87a3cdba315fa5524757f00000000000000000000000071533a5b3e46d17fee8448ba30b317a63c2422a8000000000000000000000000c6b7b444e192b9f4c7967cb9cd62e1443578370a0000000000000000000000004fd38368b54be22c6e63d7252747f1a12a35d6040000000000000000000000006c5d12442a7b11490967fdb7053c6fa92d05fb9d000000000000000000000000bae23614b49ec83ca5018ac5d26c10fe5b8e40d10000000000000000000000008db8dba458e5c0199ed3553c61384d2825928a6f00000000000000000000000059bca1597814382d717e5dc3d4e8b1bf5a776174000000000000000000000000c64670f87c0a297dc2f6ed870a569bbbe1fef280000000000000000000000000aabd072f63272accbe76a227e87a9210f63102a000000000000000000000000000d3c8d9ddda97a5186fd68fd54b7e9efee1473b000000000000000000000000ec9eb6afe0902d1691ac5b1dace80ba7d81bc2cd000000000000000000000000107964fbc03b2db76c4bf16c1c81a946f980df800000000000000000000000008202de37c55b187630efc3d1c4f1dcefdc8e48b60000000000000000000000003fb18f5cdd31811f70dbeb3679ccc2debb486e8400000000000000000000000039a6a92227744122c602302e8abe651c96ab79ef00000000000000000000000039f70dfcaf33b82aa0fc054e813a7e06555f1b080000000000000000000000000add80b418ecc7df963d40bb85e90bd1b09700d00000000000000000000000000c43ce10de3c6cd2ce6ce7c86f8267a6dbc4b8690000000000000000000000005e50af9144a930b749bb687f9cf1deab95bdfde3000000000000000000000000fd09af2fc623b2add122b1678fd355973775918400000000000000000000000061200eb87466162a93f9ff5a4a1a02b1748480ea000000000000000000000000ef28bb352c37b16711c8cefbf8731094b2105744000000000000000000000000264b31d613e5bc860cc3eb6fda540dedec7293c4000000000000000000000000176815735e1da2e031c704292dbeb23f4df13963000000000000000000000000e99bd512e489c3a2e2b16da4093cc6ef006a599900000000000000000000000004f3dcca086a7610d9f5b9631cd23c0951d5756d000000000000000000000000fd330e1a04c4bcf2e1a2040150cfe5c2007351090000000000000000000000009ad2ed6fe56fc3e2882853610e9dbbee3a046ab4000000000000000000000000d4d8b451030640f0542153c4552bad437ced68c3000000000000000000000000dc4eb74f59fb262aba83969c12933ae3707eae7a0000000000000000000000004f88e9a1cf7c175fcbbde78a06f88bdf15e0d10e0000000000000000000000008b98ed28fb050c14434d9ad8d2e28999ae344c0d000000000000000000000000855d0420395377ef60963175c959435ff4652c8800000000000000000000000054b2a9d9213d5c7d767b45e3eccbe14294385fc60000000000000000000000006f29740880e0b0e78b2c6c320fa446eeba130fe5000000000000000000000000fefc8ce6ffe02e8534275278bf3bc8fe73883c7b0000000000000000000000007bc023c532418f027a031a39eed9014c8fb4529f000000000000000000000000b42471d6ee63aca70c9d94f44cf17380b9592354000000000000000000000000efb4323c50f6acb94b7427504ad2ba7fb71fb61f0000000000000000000000006426db6bdafdb09ccc9e0879ff4f4d58bbce5cc300000000000000000000000067e86364d3e1aab1c678c4b7e6b7c980919c11d80000000000000000000000001eed63efba5f81d95bfe37d82c8e736b974f477b000000000000000000000000552b4f7bc06fd26b4f821071a78a3830b4722aad0000000000000000000000006503810d4dd3d4713864f99c91a2848e7f6449b3000000000000000000000000efd8ad10be340fc83c9f338a8c3af35063ccbdff00000000000000000000000097f085041d72c3b72f2a50e1574c19135c3c1afb000000000000000000000000b230cf75f8d4a02abe49f67357083c6a9bdfcf86000000000000000000000000365643c7d6f2eb3b56f4100c84035289f328e46a00000000000000000000000000501d506fde6dd789de4a4d2c7dfaa044a9edf20000000000000000000000006f2ca7a2ad3179978f63386629b5869107c97853000000000000000000000000f10a027b7981b310f0eb8435d47c7ce04e3cb6c3000000000000000000000000b33895ed42ef50a719880c6e950e1a6df7cc65650000000000000000000000006c1bda5294aadad316da71d98d78a4e337d63de6000000000000000000000000d58922080a045d87acca799663bed5e843e70a450000000000000000000000002c6d7383a8f110cec57dc0f2c222723453c0eac6000000000000000000000000a493571b03691205f2162a88336f296b06a3d94000000000000000000000000043c3f313150762b33e11b125b177f0c839bc392500000000000000000000000014dd44a58071e7e84071939e150ea863ceeef2220000000000000000000000006967ca9e3faafdf010563abe116c1e8061a43259000000000000000000000000549ea804a645ea031129ea91c87c40d42afdf93e00000000000000000000000069da5bbba5611ad583e76e631e3644dbb7f4c51f000000000000000000000000d51189511d1cea2453e5a28b46c6999c1d5e52cf000000000000000000000000d1152edfd262c6d61f1929e30534b3577d70600d000000000000000000000000589f18d325762a739c698ed30691a7ae008dbaab000000000000000000000000f40691fdda0779a52fc566e33fc69230eb796de0000000000000000000000000d3c80282a45a5e1dcbe9345bd51e59ee518d43ce0000000000000000000000008a7196ed1247bef7e25c7f2a1e0fbc58aa3caaf3000000000000000000000000b01ebb44cc95b44e061af018b8e6058823a21fd6000000000000000000000000ce5e5709fcb573ce5c2649e53ac88094318033d1000000000000000000000000aea10f2198b79277d7b497aed41d8ed6218af83300000000000000000000000020083a483001235cea55e2e661bef043b4f4acff000000000000000000000000f686bb41251bd31a2d064fcefb299879444a54b100000000000000000000000015020a25ebb690e597f03c58082b04db3411a1f7000000000000000000000000def48625d23eb9f7ec074c475e67a842eab924de0000000000000000000000005b093e459bb526a8461548274a2db6c57e04aa2900000000000000000000000047d9f2a134464bfc8568cd67ea49b8b4d786791c000000000000000000000000a1dd95f6b437593517591feecb5c019e289cc5630000000000000000000000002b3ec75f727489aab1768a4ef92c40a67cb12e320000000000000000000000005a91a19cb1f38b9663d7292adc9a006bf51440b500000000000000000000000087309bbecaf78e488a5e8ff521343bad72ace7b90000000000000000000000005fd570ac6a6e35c19698af5b06b12a7e91a4852f000000000000000000000000ef56e231e550e2a8342c81d2d52d70ad260548f0000000000000000000000000abeccc4046294c9d7e41dd5fd8086efd81f673d90000000000000000000000001947adb67ca4a04de66672a6dfd247529cf60cf70000000000000000000000009171f864cd0725b43452e2c949d64c4d2482297b0000000000000000000000002a7f52fbe650aa06cb96ee58a7c8d550204e578900000000000000000000000026f08302646dce5ece3f37d3cbf11e263008ec2a00000000000000000000000086cd88c3283b2fe6aa951d0af430cc637f52c32c0000000000000000000000000702be7f91520307ff6dfc4c39f6b59f54b12103000000000000000000000000dec4c4dfdea3c8e923ec51e7b6b367845bf75b1f0000000000000000000000001c578067d0e02088820bc9aa1ca19719dd2f4d3a0000000000000000000000006de6e7c7f616d0d36317fa30672e867c22ead06c000000000000000000000000cd692a3e60781b8d746390e8bc760118269d96c400000000000000000000000014d11bb6bb765eb1cf3d3a146a689f30f6110559000000000000000000000000f14823a368278f1591ac115d6a4b7eba7ee9757f000000000000000000000000ef1bca0204df0a4be151e8502650947c73bf237e00000000000000000000000064f05db68e5c6edb29fe2cbcfe4043260be04293000000000000000000000000125b169dfd6dbd898561165d99b5abf8d99a9e98000000000000000000000000b298fcc15d8bebe1cd74b4175807f4c0faefc8ac000000000000000000000000fd19240fbd90fab7764c97cdd4dbbcbea2b999bc0000000000000000000000004063a6b80a1de438b427296ba98f1d6256694d440000000000000000000000001b31ab0becd2dbeac492c6102784ddf5bf954ca1000000000000000000000000c2386b7ec498d8b67dba58a94dd6f1d0ad2d44980000000000000000000000009f185ad56241185387fe497b51d89ff3d0092d3c000000000000000000000000d1873b0dbfad0ef858095c2db96ca6de33032b6400000000000000000000000080d4f9bfd1e950f9dc4a6059e8b84e68400791f2000000000000000000000000f0e66ec47608b99c6378e28fe395590d989b283e0000000000000000000000000ea93f6cc128725e77e18f1719884dc674825c12000000000000000000000000c9f01e3777bb79acd5d86185a05c050638c9bf22000000000000000000000000cef12c75c1dcdbbe64817c17eed3d8b1013a0a69000000000000000000000000ba4852abe291cb276cee700f998bcffe6169acee000000000000000000000000df36c0b1b66558c90089f21dbba9fa5446d832e00000000000000000000000000dff3ddc94e9298264695b1bacc5a7e5adcc77c8000000000000000000000000480cdedaf75089e43d7afd550e4a1428bd1a017b000000000000000000000000d3d3f5ecbdd8522bad17d9a94608132e0b0a1797000000000000000000000000d85c3f2e71d7d7590f5ed136b499dd47fd9bdd2f000000000000000000000000ff23f1b94a0f87c989128ab2d3c9bae3ca2e89ad0000000000000000000000007513041c02dae53f4964c7abb25ac60ffb46266400000000000000000000000029bdb4e092866ff8e6d736313d4484bb45345cea000000000000000000000000286fbaed1ed5aeebf441c862eb6ce602a7582aa000000000000000000000000056c16836fd60ebec70e7dd61a63a63fd24fc360a00000000000000000000000057d75bc5525c38232f75c722efda6134bc343ca3000000000000000000000000349e9dd023bc416c189e82030a3fc38fc81f284500000000000000000000000041aa29ada6b297b28925738cdfcede0f6b0a61640000000000000000000000004db57f1c7ff8013225132d1bcae2a5ddb5cc86c30000000000000000000000005c8a1086ab38cfe9453cd7dd95419baccc372b420000000000000000000000007a2224dd7c7e002716b71aaedeaaa2d2a1a61acf00000000000000000000000070ec896d911b0d2df83bdbb712bc751fa230106a0000000000000000000000009cdf328ea950bfdb6856bf6d445340a6fbdbbea8000000000000000000000000769d7391bf5f2b0d9871288480b1294d307d4f07000000000000000000000000f0e8bc9294101b2256613929ca9625243851f16a000000000000000000000000ddf45e75472b8ecb402a4880ddfe14000c6a560100000000000000000000000040a2c4f62e14f0011125ef14556d877625e82c8100000000000000000000000086ebdfa9860b7a9b85bb900c907085f2e8074f9a000000000000000000000000acd4706afc1977653666a65167cda2239071fe740000000000000000000000005cf103265f1b4ebf477795c670ce77912ad61ea9000000000000000000000000d928662e88f6aad0c97274de54663750cb2a57e0000000000000000000000000e5b04a92f29e753ac98e0fbbe5be13bd6f448d6700000000000000000000000022506b05a6fe2cdbb7dcf1d704d0b6a3ad052483000000000000000000000000933b454f831b6a43b38952f04f990dd34332f3fb000000000000000000000000de9f358a3be8d3ba131c70bf391b7a8ea052518c000000000000000000000000802fe1c688d0500a1a07240e8333b788dbfc2256000000000000000000000000b172f686674ce5a9b7c94121589bfb65223898c20000000000000000000000005aea44472f61a79e7b9fa6289f10b70107ec6cce000000000000000000000000fef23898e636560e0c2cfbad9607898d9c323ffa00000000000000000000000082fdce9c6177954cccbf20847cfdb8247b4c33d40000000000000000000000008de2ca742d64df0b8e78853a1c0aac9d30c9edba000000000000000000000000f2814308b1c1d3d993f0734a95ed919eec43d06a000000000000000000000000ff3e651d9fdd3ede68112682fd1eff4ee638b1e5000000000000000000000000fbcaae132b5d2783e88d1b5284bc6e28b02d61d200000000000000000000000025a08abe2054f11bc227ddfd18a883d1c5c290f0000000000000000000000000ac3195cc23f33b2e0952e2df08024e25ebacf2dc000000000000000000000000b2fd7b2a3acb14d98ea835e2fec9bb8682641c410000000000000000000000008d0a7ae5db319bd8ded628f5a4535650785a90f1000000000000000000000000495cd0fa9cb7c79dade1f6d57674dea14a0b42760000000000000000000000001452f1016291d0d6ade7a41e9644d799999391940000000000000000000000001ab711ab5fb35dc475206a6f833a925e6a4d69e7000000000000000000000000ac1e3cb6c427ca695bbd8c66665d5ba5c4f45909000000000000000000000000969e00bda3be944f0342cb3bafdefdcadf63c87400000000000000000000000057be7d6beafc22e9c992db5668b65c0b49471f0e0000000000000000000000009e707ae5e3b7e90f40c8501c035f9354f77d225b00000000000000000000000072a6a50fbec4779995a8f1f377741e6b443532e0000000000000000000000000399aff38fdb2f361c4846009a667f793ed1d3988000000000000000000000000b05174ba85d325e5bc00fbc610760ba2c0c71bce00000000000000000000000075308b2819f6e5d324cc37e479a60da597d2a83a000000000000000000000000c7f6030d9f4e2f1b328ecbc0d1c4cb1aa65b907f00000000000000000000000039b067f381e8051264ede438f0b8a01860720da5000000000000000000000000dece7266033df74def1c53922a7aa3dcc404ce35000000000000000000000000976499c89a0257c69d378301dc57653d4fe4eff60000000000000000000000001e5324d1517e04fabaea97fcb79993a02e3093c5000000000000000000000000fc11fee4a484770452b68ce744a3c8ddaa75f24a0000000000000000000000003035839457eb272a7630ac4d27941279c739d0b40000000000000000000000009a07e1a60aa92b02e8ee974670d6796a1fb4d45c0000000000000000000000007f0b1da43d33e3e31b3fd53d78cc568a0bf85e4a0000000000000000000000006a4e94ee867bdc2df4e15f10fb445823ca38ba30000000000000000000000000647f700937a2f8e139453cd5ce62c1fe6126b31a000000000000000000000000fafe7a735b6b27aea570f2aebb65d2c022970d650000000000000000000000001a344e1eb0f1ae358d7ab7580c43e292cd176b1b000000000000000000000000c4529eab9c49a37dfcdba6d667c15c09d3ef4c1c00000000000000000000000046924ae1f7db4bb800632a10db2f5f3f63cf4f460000000000000000000000001ed5b46a8c708425308bcf3239ff1a57e7cacd09000000000000000000000000e266ce1bd751e12ae518cab9ab541140ed22b323000000000000000000000000b02f0bc80b5dfd0e4492cde714ee876ba9edb4a3000000000000000000000000162b4879ae7b6fe26425d5ef1be9998eec282f0b0000000000000000000000003fd7d5654bff9c7d31c5f63dec404154b31e837b0000000000000000000000008b2fc99687a032f5770500293f78a453dc8e255200000000000000000000000053e57ba3abdb29126cd6d6ba9ae32bcd3c75acc6000000000000000000000000255fe185aa6972451e13f3ab9fd4439ab029a3360000000000000000000000009196706c6a889f8028975c537e576a08d3f3270a0000000000000000000000001c8d19f91dea22b70a555da8769653e0bdc88dbc000000000000000000000000bd1ffc762f55f15085bacfe60100b114e654303b000000000000000000000000e302288564b995f61b4caa201613e771969b9fb8000000000000000000000000a4543fe71c95b2af2b3396c98230216cf8841c68000000000000000000000000d706bda8b0e3ccc56f347fdd350cea068448ac3d000000000000000000000000a85707c88d6e9bb6d694ab2112dd3338ad513071000000000000000000000000beac40952c671ce9ca697353ae89add5d2f914070000000000000000000000005bb27ebbc94cf3a66422484bb2e3dd68de0b4b07000000000000000000000000107a10faa04f9ecebf57d90a52ba53e0c0dd1ddc000000000000000000000000dc0ea4fd61cf25fcaf120669076486b97164237800000000000000000000000030806c1f86e1bf81600206bf0701a91a961b8c95000000000000000000000000eff56310a6c112a124c5c96562fdc030497d76a5000000000000000000000000a6b1c88fd0f658bbb3b972a0d681e134a475528500000000000000000000000027b5c7fdcfac250cb5401217050dfe027f27f86f0000000000000000000000006581bad04cab2a376857fa591e9eb68c40cd6cae000000000000000000000000270ce70ffc9952e42e1b87d8e4ba51d0c9307a41000000000000000000000000481a333c281d6bee6e9d5423036e5788f520cc2d0000000000000000000000003f63c1184713acdb94a6a58873a86414eb14a56e0000000000000000000000000b00da11fb0d6578f20521e7b96b50b9ef63319a00000000000000000000000055eda984161792cc7d0447c599d0396b1ebe80d50000000000000000000000006b49a2cd100492699135868c32fe8df0154e2845000000000000000000000000a9ce1ac7a895ce9847d903448515a84fdf95cfa2000000000000000000000000d3d98c1850d78a6ed963f563fd4c8d09ab384509000000000000000000000000fb8dc4352e51fba8960c4a31f25f003d94645919000000000000000000000000b0426d8b1db5c07ee27db7cdada4670a099fc2bb00000000000000000000000053512c847a6b46be63f2af840fead086c7d13dde000000000000000000000000833f024d836408666b4b933e9c376f4cd7c63e0c000000000000000000000000d326d107b20e739f335d907e8002b4f02210709d000000000000000000000000c6a1b49450d411d3a8b92d7112911183f9d1f17d000000000000000000000000cb1de566fed53b1c87124460a06eb04338eaf81500000000000000000000000026f52803f1b9d3c949b3ec5b09387ea0734df65f0000000000000000000000005feae626e4c2816997eae1a6da9054aacb896da1000000000000000000000000c809738cbad0db48d382462744caf40a3c8fc3790000000000000000000000008cbf7a7f3826c9ed8b55ac41db997ba645e0809f0000000000000000000000001cc5d39c339e995050f74d5dac72e1b0237f166b0000000000000000000000003618c5ed88d3d009905b84379098d41077888f36000000000000000000000000569dc15b14c0e147b7d960a9e613050bd7caa4bb000000000000000000000000a634c1ed6df7a87e4bfbdddc23f936f7404171810000000000000000000000005d955e4e2253412681b04331200aa6c9390763fd000000000000000000000000cf5df270e86405e610c5963d07a5b15e33c723090000000000000000000000004e392c75359ec76193bdf8ed3e2b7d8d48f0517a00000000000000000000000079e30f779558fdbead224ba950a3f25873d876f80000000000000000000000001af7235275dd1193b6429572c2d90ead28da219900000000000000000000000041df3446d2879600eface954bda412c7d2dc164a00000000000000000000000021135ec0db68bb607c4257e3c2468af66d3888b80000000000000000000000004edc94151533009541b06b6462c70dafce149cf9000000000000000000000000d7aa1e95726b2022e6ecb65f520e698e18ae5aad00000000000000000000000008340160a96d0a3aab2888584bd2bfbaf855fc770000000000000000000000005871a53d9635850e3eb8dfc73d259126aff0bae50000000000000000000000003e4dd7e5c37fe838eaffc89a551e1c311b7d14f800000000000000000000000035fc9f9b6c0acd777e058f63a29fdbe3e8aee4cb000000000000000000000000260db26a5d85e9e6983257e8af71a60e95873d6b000000000000000000000000c6a5b3db64bb8cd16d38368525ce3b924e0ace68000000000000000000000000d23d6fedbd46f6fbdab8c414018833b782447d8d00000000000000000000000073afb9b04e5b1608fd73c1847c9692f4ded0afd700000000000000000000000089fb73145993506236c55e655aec6ae3191a4bae000000000000000000000000cd16d7b7e513ccf810a85a61fe15e0512ac146f3000000000000000000000000ec40c65e23b3d3881f7d56f7521232a8d34f5cdf0000000000000000000000002b65b92c87bb7a2e91b14308922a196d5246b6710000000000000000000000007fca6c5ba280ea76d219c42421c06b0a77eb05b10000000000000000000000001ae422c42e484333533ccea91065a03f1a6a4c8e000000000000000000000000ca386a9a28bca3fcdf19a1e0f9152ff4938a7b840000000000000000000000007f97f5d6a627f2f58b29e5b1bb4ffe160795920000000000000000000000000026f9dc5eef5465f84425a8c048e29d32102998a5000000000000000000000000a00a5a9b2509c4b4f7d47644a20ba6acc18d3eaf0000000000000000000000004af0e9640cfcce6c4e88dbae159ddd96441ee09900000000000000000000000008d7f3c61dd20907ed20451bdf361c8b86400dd3000000000000000000000000cb0a845638ae55a29540eacac2d7b804e5c6df8000000000000000000000000021e57912587d9035927b801bef9306d4f0be3500000000000000000000000000b5fdf6a742067abb2da4fbbfccbbc6379b3b57c9000000000000000000000000826bfcc559a1fb44e4278657a85d5348bfaf8422000000000000000000000000bb590677ad035d57eb96653e794e8de78a163f9a0000000000000000000000002d3414811ec1edaab2de93388f0f8ff3ce0b247a0000000000000000000000005ba75cf8e30e2e03380080e4241b4c38b1989c08000000000000000000000000b573d278e1d159f766fdaccbc7bf70190420a1d4000000000000000000000000d971e812a372b1b4569271768083e7b3e1c22af6000000000000000000000000ca48f98a3864f9703cf44438aff40db38e14288c000000000000000000000000461caf6c300339a7d785afe663e67e1dce7e37b30000000000000000000000007465fdf4982e3f6f986103e284634bc4758e6f95000000000000000000000000e69ef9b21a1ff31df8f4ca81dd3b82e7c429bee8000000000000000000000000864e3ec14216884320eefa7edd1753c1281209d1000000000000000000000000d00894b4a01e88ae038cdb528d3ce78afed9cef1000000000000000000000000c4b497f1be5100e41c5ebffe8089683b07b2801c0000000000000000000000007e9fba131d970ab39bd5a495969d075b080de12b000000000000000000000000363e8aa1469300b2abaa7bee116ff2a6d4f5bd1d000000000000000000000000e86e0271d0fd228ed2369dcae3f09b47ed0997bc0000000000000000000000003b0ec8631a45a08ce7ec4a5a93cf2b5fa59d03110000000000000000000000003c56dec9a2d970d123a83035245b1570ffbf7d0f0000000000000000000000001b1e85246b2bb59126d720080620020d094da174000000000000000000000000f0cbfd2adcd37fee0982553bd235659c452b400e00000000000000000000000079eaff1aa62696f977a104295de6a85d0c05b6ad0000000000000000000000004f4c69ba8fcf7f062d771ee42ec925faf8167a3000000000000000000000000008ba89259a189d003ca3ed90de025681bb06f3c50000000000000000000000007aae5105a4c75cf76160aa628dcee2b96b980a19000000000000000000000000927822f920f0330f9cc8e83dd29291f803a46ae0000000000000000000000000f618775679fa57c170ef7de62e87d6caa1c3ecaf0000000000000000000000005990b166c361f02a98b65783bc3128929e5c8eb6000000000000000000000000ba29bf851cbb31b772069d7fe57a2dd89266a5820000000000000000000000002b3b7c1378fbefe6786d1df748fee790f171e2a1000000000000000000000000399a3ec99259ecbe0c327a50d9862ccb68b92b14000000000000000000000000f8149d5b5c80907f0164afcf5e694e0f7262c847000000000000000000000000c88144af1834d28f92d4f723801061ba75220e4e000000000000000000000000079ebeebd194bea5bb70a655d38121bf6aa90ab9000000000000000000000000a707efaa78be0b3f874223f41f63cd9c5c644a2a000000000000000000000000f292e723cc1d45461f3fa1cbb33473666a611fe6000000000000000000000000d8e8bd348b6c959f15809320de90c5b0b8899e4b000000000000000000000000be20831d5c048ea39b172e5dc5ada7f6c21bbdaa000000000000000000000000b403051804924fb2515bba23fe24f6e97fe72bda0000000000000000000000003ff4467a36cd8a17dd7b080bb00133a86b22ab920000000000000000000000000b3ccbce9b724124e551055cbebcb7257932c6dd0000000000000000000000006c685eadcaae94d172d2d8616b12d3499406b5d0000000000000000000000000e0eefd7079f7b6cef7598d1b9a47f659d048c3020000000000000000000000004994eb3d39f704e1e67b6142e427e14069986b8f000000000000000000000000317303d2e2fdb59ff187a363c45cb0d5d3f28309000000000000000000000000747f475a83a68d32ba92c6337460f95cd5a74d60000000000000000000000000cf1dcefa3286216ee88cc1335359e3a53ce5b6ac00000000000000000000000050127f7f822f919036a730cd39e6fbe4d95c3466000000000000000000000000c44c85bad61ca1ae6544fcce9a82d6d8571a74b500000000000000000000000013f5a5a20272adc8cc4b1f1c69ffcc950f17a12200000000000000000000000040663fc18db6e1c80c24ea4cbc8242a00f4fc0180000000000000000000000005eebe8ffd9b3ce734f8c6b0fbb7f6643c218b88e00000000000000000000000016a6f44c51a2b0e24181672bddd07b487b2bee840000000000000000000000007db1308c78b9bde44a23311e208f7b2cf709ce2a000000000000000000000000af94dbd34903e38070fdf79609f2567904407a3b0000000000000000000000000e6b6e83486cc28fd2ca880abd0672d775f2fce8000000000000000000000000462a9abd10046871a9e0c1ea93ab437d882b5df5000000000000000000000000d55e0497e24fbb56acadb74718868e3cba037d18000000000000000000000000b3d459d798e4e8588deada22319b2a1ae07c6fca000000000000000000000000168070969deea72ea29941a85cb6bbd77d3d8953000000000000000000000000524720bdd5bf0a318544c814156ff26da8d7810c00000000000000000000000043760cb61bbb1194bbdc7872fc7adfdaf1e287f200000000000000000000000033c67ae4adad7568a2dae5840695bfe5c0cceb0f0000000000000000000000009722189660ce9ef4cf6d6d87c859e1468ec204c40000000000000000000000001fe917bd462e1ecb1da61a1a9163ccf695f0bd5c000000000000000000000000772795facba9a347ab16648648bf7511e81f2e40000000000000000000000000233a3f9e46e90cd8f5c04fef1f980566cd0a1026000000000000000000000000434cac886f61d953d9f7a1b007e9e98fed5fb604000000000000000000000000850f31a17fa553095df7490b4a09c777fb965622000000000000000000000000417c1ade5741e00d0925bb0d3c844ade59eeca81000000000000000000000000cfa8a6b8a2b929d7909493680f4421b0610438cc000000000000000000000000dcd9f83f9f6d9f2f7e23132fe6dfffaf85aa0ea90000000000000000000000002bb468fa62e9075c996029be7636286fd94182b4000000000000000000000000d6ee2ce949ad28bd18cdead03ed23846a2ce11e3000000000000000000000000a53bdb730c12754e04407857489edd3cafcc2a43000000000000000000000000a8fdfbf8e5fa6a53aea4d81bdfac9bed4bb1a573000000000000000000000000811f7607e515c9eb860df3d53e94f3327e61ca7f000000000000000000000000e400b37b77cba200b8eaad1ca0cd9af12645c217000000000000000000000000638d90d1269afa742d9fd56d67908944abc84373000000000000000000000000ed0c951f21ed1e09ac39b0cee151087ad772bba60000000000000000000000000e6d0051d3c71b700205010f5c7108a91097722900000000000000000000000045e1a05caf00f968bf275fb931dd8d74d39bfa31000000000000000000000000e5f517785e2d90a613e3b097872a6930bc002dbb000000000000000000000000cea8a4773e0f00fbd8e8fa8b58b23b64ecc9de110000000000000000000000002f764be542a460bb1a2eae99344c0637c057cb590000000000000000000000008f3f38a0536812b59c3ea1f2d4b9bd47a35f1afe0000000000000000000000002f4f3ccc38746e85c11f9f36b5f515eba0f0ab740000000000000000000000003c05a66c159ae30a646ae794f8ef96bcef84240100000000000000000000000077019534c4ad81f883f2013d344cb4ee64c880af00000000000000000000000047566c8e8b73a3604d7247eef2ed7557716425f4000000000000000000000000eab194111738a63c7752565a77000d015bcd34ed0000000000000000000000005d3b20e61151e66a52d8306c742247e36c695f3d000000000000000000000000d88448da1eb58e61cde675a8b4cf80718b0fcbb30000000000000000000000006415a952236c6c87b48ccd2572cdb2aba30aa622000000000000000000000000b75f3171ec26687b59e4db83a06b97c293582879000000000000000000000000fba68afaee6fd07ff1f656495f52b3040bbce876000000000000000000000000c8616b4ec09128cdff39d6e4b9ac86eec471d5f2000000000000000000000000537befe4eafeb4c2bdcd739cda38e2b3e24cc7950000000000000000000000000d198c40e068b352e53066b92f7d6b7c500f0d62000000000000000000000000497ac92f48d3f4b00299652c7b038f7a498069e40000000000000000000000006ce2807ad591f5885aace95bad0ccae9f33c7b8b000000000000000000000000534d9390c913e24cc5f86c75880964f9fa744b11000000000000000000000000aaa27b502bdf994c8ad6548814f217cfc930866000000000000000000000000098562a6c68bfc0cd813eda6c9d7df1b9bbe4fbf40000000000000000000000002c68dbdeeb6f6f794cfb9f2198877bde3c9b91e500000000000000000000000018eb03e6b7741cec0022a36828e09ff5087877ab0000000000000000000000003d95b093f0d655ecfab5be428539dea7c77b1837000000000000000000000000c5828c9fef17f883654b66c459ddb07526b894f4000000000000000000000000e408ce7287fa58b0e80afd66491cc4eeac7e5019000000000000000000000000b29bfb202ea4780990088e0bfcff55758fa5d0370000000000000000000000006b4a2a3d10bc74fa9871ec95113ae7f9393f1e6f0000000000000000000000006dc93e9dba758d01fb72f3e65f82992800a9fcec0000000000000000000000001fe82b1932c22a399bbd4d0bdfb0d24c14d3f7020000000000000000000000005f580eafd3dc1a219b529b8758a40a6fce91fc24000000000000000000000000482007d0e97962f4a2cacf791b65439e85268c220000000000000000000000003e5525cc9bfdabdf98bc44cf3ee9792139ebc5850000000000000000000000004804e6f101318037cb5942d6930ba5f06a1c13d20000000000000000000000006a213cf4dfc72ee2a45b0e8bdf462ada2c05c0790000000000000000000000007c61cc7a9e5c0f4db10251b699961bd3db8d1eb80000000000000000000000007886426dc6597430ea8616b7ec080318ffc548760000000000000000000000005e0339a432322cdb89692b7fe2173383a6fcaf620000000000000000000000003e9065b6ea5bca9633d344b7713eccca1409d0fa000000000000000000000000efd78075740e455d53de904b9e72c004281dade80000000000000000000000004eb743131276d484c30219539409d72a1a6340a200000000000000000000000066bc6d36e4d4aa59d933cac70549a828ce389a840000000000000000000000003072abd64adb81d963d97b7e4af214854c84fb1c0000000000000000000000005eb85bac77423c7ee0c504d21d596e2c20ca57ab000000000000000000000000ee03377d75460b10a760893670fea1f42cc41a4c000000000000000000000000a1a40dfaecf8fb19bc250c5a37a6d6a272fcd737000000000000000000000000f48d8e123606c0fca6151fa1e32dea984e42a6190000000000000000000000000c6e73aba19e0b6b808773f33b73ee5b7c4fa475000000000000000000000000ce33d9c9329e42d7724c3fbde05043ab9b9bdd7b000000000000000000000000ce7da3203f7bdf82d6ffbdad04081b4145e1cc5f000000000000000000000000685d74163f1bb8dd2234d41512e4d279edf46e9b000000000000000000000000ee74b4207a1be3d3e4b720d38b21294155bf82ca0000000000000000000000008c01716ed04572997572adc4a7f739029b68b591000000000000000000000000804ab2582c826122bb8a5dc0c6663a53e84af90e000000000000000000000000f3bb4bae7d87b8a2fd409afc25496b71e48621b7000000000000000000000000df8608b6b717bd392dfdaeaef33cad5700e1cffb0000000000000000000000007f18e6bef879465f5b04e0d7f4509116c2de29cb0000000000000000000000002f927cc34782dd53c5dfbeb1553abcbd59690ab10000000000000000000000004b716b5ea27d13e196d7ed264bfcef6c5020a62300000000000000000000000080084a3490429413a87c5c3ceed1a92210a980b30000000000000000000000002119b7faadf53abc4c9993b7b66afa0c88bcabd5000000000000000000000000f895e2fc66cf67fde60015962a6c6f6cc22b1872000000000000000000000000dece4ee3422274ffc6c6d0c0e2f2e35ef9f6a63500000000000000000000000028af94522b3aca0afe342f2f9f60d2d13f86dd000000000000000000000000007021e0e2d083cf200077663e84ecfc55f88a811c000000000000000000000000f4a8eb801bdbac1a406fc4aeb394858440c874ce0000000000000000000000007dbdaf5700d0f613d382d4786a8cf0e9c345ee9e00000000000000000000000088d59b1dc02115014ab21239b041f6adb0fba68f000000000000000000000000d3408246639620462cf92a73dcbb1ee33263f512000000000000000000000000a90953e73547c4e99de0cdd174caa3ddeee7b080000000000000000000000000c3bd2a15a2917b9de4ad57c81cf28bb6e453a21d0000000000000000000000000d1db9c39e58b237afee6ebdc6bb181e6ec6938b000000000000000000000000db565d7a82f075f41a4390ba06a7ca0ed6a21032000000000000000000000000ca338dc05ef69d52f21f0b7ca82e4a8d3ef8bb250000000000000000000000008d9f491a636d647c8e00b96df1e21fbbb476002f0000000000000000000000008748aa906baa1835f985435e9ea41679cb9cae19000000000000000000000000daa5311cba6092e75d71596681d4e7be39a53ab7000000000000000000000000870c6418f76ed1e0164835071a24059385294826000000000000000000000000e76c112c019b33e814eea69a8c10e7e39ae94846000000000000000000000000e0e33b918fb2a7780fa88add2800f5273453cbee000000000000000000000000a3fa7338ddcaa25d9beb156293915913bea61d3b0000000000000000000000008caf156a7c5d4da08e07358508a86969279959a500000000000000000000000012f72221236f69b729de5129dfc29a325c80c222000000000000000000000000de142d881d174a432a2d30568e51596ff07b5c91000000000000000000000000a26e3b7489442c54c64512652e333bd367228875000000000000000000000000dd790b52a79deb8919dfce506a69a469b573e8cf000000000000000000000000db8cc1b8a2149e13417c8b21ecd76bf428790eb2000000000000000000000000f488f594be17b79e14fa39962fe77698698027000000000000000000000000001f6030ecd07dcf3d57fd6334d2ad83177beed5f2000000000000000000000000c19964f4f1972a901ca31e92de95609abde8e9f1000000000000000000000000dbbf775c0f8ea1fb65663c0c994b7543d73932cb00000000000000000000000053de5a7b03dc24ff5d25ccf7ad337a0425dfd8d1000000000000000000000000f4a99cc52ac9bad9ce3ea0a89d834f7eea5feae9000000000000000000000000d79aa9ce78666a478bac8fbdf4065337da72a2070000000000000000000000003ed9560200be7cceaf18bc2cbdac7c72f178c6500000000000000000000000009f019873794914e3611e1ae55db3365c04d08b84000000000000000000000000e68cb4a925e6e7f73cec2e81763304947605ed3b000000000000000000000000a5e202ba33e336d6495f7dd97b6e15cf8938602400000000000000000000000048da5fcf9c324521053f55f445aacc80411be9ef000000000000000000000000dad1971fe99b115fa6e357c4de78ebacb623e23b0000000000000000000000008aa80defee4411ba9727be84b5fddf7b6d2f463e0000000000000000000000001b67a93cebadcb1aed94fad4c13a2f15ebd5402c000000000000000000000000df5555d5ba13610ae7379c2624a977aecf273d8d000000000000000000000000aa58afd4c9e179b52c209f2bc14ff99d7a0f076f0000000000000000000000004c2865a031bbfd240f7fc2d0f118e044702a913b0000000000000000000000005061dfd9725290fa40f67fe56e3444c7917479aa000000000000000000000000492d9e014855d3f3462a2a4583f961e385fbeed7000000000000000000000000676c374949b6b7736d4713d8beece10cb97e4f58000000000000000000000000237013aa58566c457e0783a52f92cc1beaafcbaf00000000000000000000000018e1c3e1d943ca4669925c6319fe644d42448485000000000000000000000000319679b3ad00ba361ce8be09f9e8b3ee5d4159930000000000000000000000005dcbd56067db5aa3c336374d287dfe0c766bb177000000000000000000000000db497130034918165d62b274ecce2c98352704ca00000000000000000000000040ef5b0cd62245c437083e83c41af4ba3cfab912000000000000000000000000e6090e5f073a85d77b5cf9333bffbd5b3e44a014000000000000000000000000d0268fb6c5a1344f5b4b96db6573c3787ba6f61e00000000000000000000000000004590f889b58e13370986c7e555482a48967f0000000000000000000000000163af1a2f958eda8dd4020c6656165e8ad58822000000000000000000000000d033c7a8588636631b4a4153a1d94f2fd435336d000000000000000000000000e93e4cb37aeebc8092088d7e2f916922c4629049000000000000000000000000cf1d5127b51c7193d0c2fdc09706d826186f96a100000000000000000000000006a059b4c3b49624913a1d5765fffa1c7c523006000000000000000000000000f93b30566b7a79bd091af649f0a3ee9507db28580000000000000000000000003371b84fb8e223780ba420c958152d85f0beb583000000000000000000000000de6ccd70471cd41c8a33a6efc848e1e4ed0b2294000000000000000000000000dd83f407b1a991eee9663c264bdc6e82114ab75c000000000000000000000000524096f1f2ec66f5890919d72dbd7013d52463bf00000000000000000000000050c19949aacb04d1a037b34c40bd245572522de50000000000000000000000009d144d667daba606c7c0c6c34fea439ee80d3f36000000000000000000000000b84f0997dfe31b9d5031d2a06c32985f907c2e500000000000000000000000002bf21d6bbcfc341285b54e03f789991983ab4f3b000000000000000000000000cfc64db31f4dd0eefe0056fb19e5bec90d95b56a00000000000000000000000007445c2eb662ee82993d8646cc23b4fbc9686075000000000000000000000000015f305d3c3aa86907492110660707477af24bff000000000000000000000000227ed352556537fe0f228a2c08ef4ab67bff3ec8000000000000000000000000bf1262a910c17bbefb1a44162f76f12a7d57f479000000000000000000000000b1e012755a35645dbc011d3f06aac631a252c49e0000000000000000000000004ffffcffb22b72d655a8abf76623323a63ccc3c4000000000000000000000000cb533610d720aed5950a50adb3665ddc4b142455000000000000000000000000163bc8bfe67dcd07d777cb0614008116c2a2aaba00000000000000000000000044894c9a3fcd68c20ffe536278201091b3dfb50e00000000000000000000000031beec683aa8b4d844b57589d07daebbba194179000000000000000000000000aa12a7da3053d2801832c409f118cbcaec37f105000000000000000000000000a5e3dc044c54d5161a030e02a387b77c2ad50e8b000000000000000000000000d4cdca701ad0720bd95c9489b16992561e50e5180000000000000000000000001d8504b87df3959c8d8400658d71d490832fd6a5000000000000000000000000b30b6d1f9c31f24445505dcc64b59e17b185ab82000000000000000000000000fd1d0e6ab0c6c128fa9300385e59483b5bae8cf80000000000000000000000008787f49c225704f9bd5cb20e1e9e4fe208c01423000000000000000000000000bddc7d700c049fd07980018e18ba378cd4d5b8bf0000000000000000000000001a495a5f645cf5b68b90d35fa94927a1b605f190000000000000000000000000fa9ce0c7d109d5881a46db47b8e98d30b1f33c020000000000000000000000004c0b83fd3d9e696b33b59e5120b4a4f7e1d9939700000000000000000000000040e85c9c436c7b62104c11632a1b08eb5dd74c3f0000000000000000000000009e11c30c7be64b2f5f850df09e82ceb3ec30f1820000000000000000000000000216a3d6da51898c317f0e57443c3d7d9bc22ecf000000000000000000000000390348a5739b689fac59de9bd5b3508e3960545e000000000000000000000000463cbdb1c8731b1b4cb584e721f26d99005abde60000000000000000000000008af57f73beaf54a0ee624cda93913e0b4d32e2bd0000000000000000000000003a1c302287a5bab280484e677f41f9e59c4e12c7000000000000000000000000e3040d9942dfb8341072e82cbc45f0eba875b8540000000000000000000000001b5de352fa4d872a36bf74a536af6b307798a408000000000000000000000000ad93ec3ad4862077212f604d6c0eb57bf1bb1bc7000000000000000000000000e9dfacb007ddca6821aec172de8f45800e225627000000000000000000000000ecd27d818bc2bccb160ffcb3fa70873309a70d96000000000000000000000000b702d83af0247b280dd0dd0604241d1cc855a75e0000000000000000000000003fcaf0f48afc9b53cd32baa9a17bfe5de6e744050000000000000000000000005c11d8cf2473ca40327f55abf4c4bb4ba2b73be3000000000000000000000000435b196eda604e05507a151dbbf95b8e9f3102ac000000000000000000000000e2e32b08c355e4a422092544d14c6abe54259c6b0000000000000000000000002773ef5739ebc44a3c1abdc85caa2d64d57cb98b000000000000000000000000fb07850ec328b8f6f24b9f8b102d93d1904392ac000000000000000000000000d6e3cfca81ca84a205c5433ea0864045439f68b7000000000000000000000000ef7ba21c049eb32783fc970eff39084e35bcf0300000000000000000000000006a8289377a80bbc22eec6bda909e1eb16f4dd5320000000000000000000000009e8a2286f3c5812f790ac0c7fd4fcefa94281c3800000000000000000000000063da4d9be2cb8c08ffa4bfc41374bf65c254e34f00000000000000000000000057912f2668bcd6a150d9e9af87b316e8d3b533d3000000000000000000000000924041613b7b51d7293178a0072d9428a6d2c31d000000000000000000000000438b5e448a9e34e67794fcce2545dea4660a69c60000000000000000000000007df65c480be5254d63183fa8bbc814a91a47d6700000000000000000000000005d6ea900c5456c4ed53aad4f55073e34993e1e020000000000000000000000007c0df14a80649f572f4592278f6dcfe511afc5870000000000000000000000007ba95ffe5cb9c675e52e9c265fa916c95192c30700000000000000000000000094398ca767b0aaf9f678a732baa2684db7acc066000000000000000000000000ec89b947f346f466d3d3d4ca70b7015f9c3039140000000000000000000000001903e18c9467b5a03faad8750f13cbf5fbdd719100000000000000000000000040add2ec384a826aa371a02af0229c484f487b4300000000000000000000000082c3c60fe1c88c6c6f5685cc30247012a68533b1000000000000000000000000ceb5eecc4747b50267a2b19bfa71cd18210faa490000000000000000000000001353446d49eedbb94734b985c741fd0c42415fd8000000000000000000000000e21e3108480ebb2c4300f4a82ecdfe90e4b1ab9200000000000000000000000063e0fa3cf7e8e77e930f233d2eb485969b2749930000000000000000000000009c9e62812b4b1a82e68cdf038398bb239cce3f810000000000000000000000009378e57d417d9df8d695859eba0deee34464f15300000000000000000000000010749bf3e3d810e9555be90551fa0750d25d62d50000000000000000000000005ead82e959d8218f6003526ab8d457972b679c410000000000000000000000002c3745db097602f72d26d1dfa4deaf6f6e71ce4a0000000000000000000000006df85a76795a0af392a2b9664b0f577ae217a3890000000000000000000000001fe96b78fd809e0035cc4ed1accfb74a59c6ef27000000000000000000000000b6436fc4fc06ad3af3d39cb0ef01582f245f12cf000000000000000000000000c61e47b133e8b2354e380dcab36dbb1eba8938aa000000000000000000000000cd35bc320e5c8ed2914cbdf0a4e665267f1c51a1000000000000000000000000c7e2d248020cdb1eb03f77578e162bb46273aad2000000000000000000000000b2dac9b2d9e3d9c2828d49e3c81df5ff91446a42000000000000000000000000ec3ddc71e49151cae4da1ceade5336967e8e32110000000000000000000000004b5a3589e7e128b132d654a311c767c304798ed4000000000000000000000000708adda12012549516ecf823d4ce80b10a225cf8000000000000000000000000c468695181d72a53517a868b0529c589b5861464000000000000000000000000671ad7d04c91f808af4fb304c56e0547821526590000000000000000000000000b6bc4724f717a3e03b5ac2f18c7164732b75fb0000000000000000000000000b58276df81b5858f598e94bbed4b03eb121ee644000000000000000000000000cdc18f39a2dce545460a78420e65eccfc72ae356000000000000000000000000d22de466c935708d3a994e1ab97198fae80b40c3000000000000000000000000c63e651efe439b0bc182bd3bb926600eeba8a438000000000000000000000000aa095d50c9d5bfa82bd9691d846395ccd068e6db0000000000000000000000006e495ae1a2fa01841567734c598b4edea3f067f20000000000000000000000001cf32e9623eab6b754c552dd0dc323ea0df9abf70000000000000000000000003d3cb765078756ad8606f0493f1e04131fc04d410000000000000000000000003828dabeab44881876d218a2ccfd4c377bf27a8700000000000000000000000013394005c1012e708fce1eb974f1130fdc73a5ce000000000000000000000000053e7c0c4f641ab9a1e6f181373fb2d30451ea87000000000000000000000000472da6dfafdd57c2bca07349ca7ac9084862bc62000000000000000000000000908f14c0cb06ec9aabd06fbc060e2a65f0482ee700000000000000000000000057c76df6a0f416a8b8a1c2ce3b5e1c3b072637560000000000000000000000003c90b4b321887aac19ce20324f45375ab6b6eda3000000000000000000000000b16f460cdcbe7072cacb553c10a3953385c259b6000000000000000000000000a4b042045d9ffefb0ef0cae02f9064b64b307b6e000000000000000000000000c7a4ebbc927083f6d37a1e19db7baa0bfad9729f0000000000000000000000008b0a2ef339ea3e06b5dc36596ffd3bde74ec2bfb00000000000000000000000025038f84210fd1d6fb0f4ccb827d13b6a52f3b86000000000000000000000000ca684e8999f3e45521f0306b1a9a5df4c97ca08d00000000000000000000000092bc9903658b49b2ea1b4d942bc5763060ce1c6f000000000000000000000000f0409814887ff5f2fc990fc9dacefa5188510a82000000000000000000000000dd0e63d921e25aeed6362ff7943b5e6bad80de2f00000000000000000000000090dbdd8ea2b8b53ec969db83de68e156a4640ba70000000000000000000000008907be082f295b6bc8f737ecca473a18bd33c67f0000000000000000000000007936085e046c7def68e526b09d48deafbc46a84e00000000000000000000000013422f8683804e75c23b9c4c3c6745e8ec24a050000000000000000000000000e4bf71eb07b7b5cbfe6701f2510c81b5d5c309330000000000000000000000001ab66fc823a1194825d6afaa05a35539f91adef7000000000000000000000000ac4abf7ebaa5ec9f9541da6ec14636b280090e9a000000000000000000000000627428b0592ce9da684e6a0d54819e40393c91f100000000000000000000000068761a48a815f9e475401154cef9900fb59a74ba0000000000000000000000006e1efeffda7cbb0711d3306d9a7e78484ecf7caf000000000000000000000000f6060ce3fc3df2640f72e42441355f50f195d96a000000000000000000000000c8e1e19946b810222b19d82789513978ad24e92a000000000000000000000000e3369ec6000856f196633c1f211d71fa18b7a38e00000000000000000000000011641f48ca768d4d779a80faf548585c514d2999000000000000000000000000551e878ae8f8e1c2cf712e53834619bf55eecf4a000000000000000000000000b318835178b55fccd71337f50e6ea61766a45dd9000000000000000000000000f0321e7c791d22f2ace0464c5b860cff659cecaa000000000000000000000000f0f3741cfc829784b7a028713037ba2a2cb0b1e4000000000000000000000000a60a3f22698becc70ec57a20d20355d50a9ed3ad00000000000000000000000034696b0f67d052831add3bc762f42e5797dbcc990000000000000000000000006e97eaee7bd2392b4fa22a7f1279a031a318286d00000000000000000000000004e9c8f75648602542c9f2d92f2c660f554b8c6e0000000000000000000000009a554a2fa3dbfef8e0e48f604c01a81164db2970000000000000000000000000b3a937e0603059902881fe977542bd6ccd287a370000000000000000000000000943d67847a0e3bb89ecb7a7e0a1d5c8c2c6e75e000000000000000000000000ba771702ae0f0c2785cac412cff3d26a3fa33545000000000000000000000000ee7f673d66396b28afef6ea5b05d3c93bdcbe3ab0000000000000000000000002df2098a4350a7d73e78d1718f3913af0d2f034e000000000000000000000000bf89092fc297c07417f90073c6b18a16bf666f37","txHash":"0x9b3aac58209874a3630666bf857569d3092fc8b9daff0ff07825dec428346051","blockNumber":18301366,"transfers":[{"type":"ERC20_TRANSFER","executionDate":"2023-10-07T21:42:59Z","blockNumber":18301366,"transactionHash":"0x9b3aac58209874a3630666bf857569d3092fc8b9daff0ff07825dec428346051","to":"0x91c32893216dE3eA0a55ABb9851f581d4503d39b","value":"3999990000","tokenId":null,"tokenAddress":"0xb8ac53AFCCEBc44AaC33D0C30E2Ae0783E7fde5f","transferId":"e9b3aac58209874a3630666bf857569d3092fc8b9daff0ff07825dec4283460514214","tokenInfo":{"type":"ERC20","address":"0xb8ac53AFCCEBc44AaC33D0C30E2Ae0783E7fde5f","name":"Visit https://get-usdc.net to claim rewards","symbol":"# get-usdc.net","decimals":6,"logoUri":"https://safe-transaction-assets.safe.global/tokens/logos/0xb8ac53AFCCEBc44AaC33D0C30E2Ae0783E7fde5f.png","trusted":false},"from":"0xA0b86991c6218b36c1d19D4a2e9Eb0cE3606eB48"}],"txType":"ETHEREUM_TRANSACTION","from":"0xAA25290530407885699Ca7074Dac3a4bD1f80077"},{"executionDate":"2023-10-07T02:55:11Z","to":"0x323A76393544d5ecca80cd6ef2A560C6a395b7E3","data":"0x2656227d000000000000000000000000000000000000000000000000000000000000008000000000000000000000000000000000000000000000000000000000000000c00000000000000000000000000000000000000000000000000000000000000100bae55fce31018cad17af50a4e35cc2eb99e9a06bcb0c8ed3ccb965f29f8ba554000000000000000000000000000000000000000000000000000000000000000100000000000000000000000091c32893216de3ea0a55abb9851f581d4503d39b000000000000000000000000000000000000000000000000000000000000000100000000000000000000000000000000000000000000000657b3801b80b40000000000000000000000000000000000000000000000000000000000000000000100000000000000000000000000000000000000000000000000000000000000200000000000000000000000000000000000000000000000000000000000000000","txHash":"0xe108b7bc381b6e01fe32cea8f5e4f74fd43dddecae16d08377a75da7e8c1fbf7","blockNumber":18295763,"transfers":[{"type":"ETHER_TRANSFER","executionDate":"2023-10-07T02:55:11Z","blockNumber":18295763,"transactionHash":"0xe108b7bc381b6e01fe32cea8f5e4f74fd43dddecae16d08377a75da7e8c1fbf7","to":"0x91c32893216dE3eA0a55ABb9851f581d4503d39b","value":"117000000000000000000","tokenId":null,"tokenAddress":null,"transferId":"ie108b7bc381b6e01fe32cea8f5e4f74fd43dddecae16d08377a75da7e8c1fbf72,0","tokenInfo":null,"from":"0xFe89cc7aBB2C4183683ab71653C4cdc9B02D44b7"}],"txType":"ETHEREUM_TRANSACTION","from":"0x6473428C33331f182b2DeA80D3Db194694d347De"},{"executionDate":"2023-09-30T13:01:59Z","to":"0x9279B5d5c550BDD9Af968aE561c6BA4Bf74093CB","data":"0x2c4167760000000000000000000000000000000000000000000000000000000000000020000000000000000000000000000000000000000000000000000000000000000a000000000000000000000000000000000000000000000000000000000000014000000000000000000000000000000000000000000000000000000000000003400000000000000000000000000000000000000000000000000000000000000540000000000000000000000000000000000000000000000000000000000000074000000000000000000000000000000000000000000000000000000000000009400000000000000000000000000000000000000000000000000000000000000b400000000000000000000000000000000000000000000000000000000000000d400000000000000000000000000000000000000000000000000000000000000f40000000000000000000000000000000000000000000000000000000000000114000000000000000000000000000000000000000000000000000000000000013400000000000000000000000000000000000000000000000000000000000000080000000000000000000000000000000000000000000000000000000000000001c4ff010cf2bd3cd575b668f3038e80ffad494e4bdc753889284b9cae2435d3a7748d8fa78c6e3758a27da62ec188caa46a270e5af12292409b01945409067065d00000000000000000000000000000000000000000000000000000000000000e0000000000000000000000000000000000000000000000000000000000000014000000000000000000000000091c32893216de3ea0a55abb9851f581d4503d39b000000000000000000000000a7860e99e3ce0752d1ac53b974e309fff80277c6000000000000000000000000a0b86991c6218b36c1d19d4a2e9eb0ce3606eb480000000000000000000000000000000000000000000000000000000147d357000000000000000000000000000000000000000000000000000000000000000000000000000000000000000000000000000000000000000000000000000000002462653039623030302d303132662d343962362d393636322d33316634333765346461343300000000000000000000000000000000000000000000000000000000000000000000000000000000000000000000000000000000000000000000001b35202d2028392f33302f323032332030393a303020414d2045542900000000000000000000000000000000000000000000000000000000000000000000000080000000000000000000000000000000000000000000000000000000000000001cdbe56c2df46945d26e356123ac1a6ca8571d1f80641289343565db9c8c9b86a728bc05575d90a10791999f41eda92551dae92dc40a617ab884bec09f70c7eda000000000000000000000000000000000000000000000000000000000000000e0000000000000000000000000000000000000000000000000000000000000014000000000000000000000000091c32893216de3ea0a55abb9851f581d4503d39b000000000000000000000000d2cc2e47c2aecd01c87b83290c0ee76ba67a7211000000000000000000000000a0b86991c6218b36c1d19d4a2e9eb0ce3606eb4800000000000000000000000000000000000000000000000000000001004ccb000000000000000000000000000000000000000000000000000000000000000000000000000000000000000000000000000000000000000000000000000000002466613965643862322d613663392d346335312d396430662d35633135633762386662346500000000000000000000000000000000000000000000000000000000000000000000000000000000000000000000000000000000000000000000001b31202d2028392f33302f323032332030393a303020414d2045542900000000000000000000000000000000000000000000000000000000000000000000000080000000000000000000000000000000000000000000000000000000000000001cae02873c396bda75de50c1bec0c9e4c0f59a56726866cbf48df4ba170b46e9cc116b4a66245e181b22c78874c28c8fddaec960516e4bc36afc47819f6e4a6b2e00000000000000000000000000000000000000000000000000000000000000e0000000000000000000000000000000000000000000000000000000000000014000000000000000000000000091c32893216de3ea0a55abb9851f581d4503d39b00000000000000000000000054becc7560a7be76d72ed76a1f5fee6c5a2a7ab6000000000000000000000000a0b86991c6218b36c1d19d4a2e9eb0ce3606eb4800000000000000000000000000000000000000000000000000000000773594000000000000000000000000000000000000000000000000000000000000000000000000000000000000000000000000000000000000000000000000000000002435303366663266372d653338312d346463342d393565302d35663466653465393062306100000000000000000000000000000000000000000000000000000000000000000000000000000000000000000000000000000000000000000000001b32202d2028392f33302f323032332030393a303020414d2045542900000000000000000000000000000000000000000000000000000000000000000000000080000000000000000000000000000000000000000000000000000000000000001cbd21777f0a89beaac21c4c642285cb65c981043d93e25405e4c7c9e464c02f282a616bb79876c7dde75968d1f45aba89327d89dd9c5857741f56862cc640d9da00000000000000000000000000000000000000000000000000000000000000e0000000000000000000000000000000000000000000000000000000000000014000000000000000000000000091c32893216de3ea0a55abb9851f581d4503d39b0000000000000000000000001d921dff757610fbdb0073479e12c0a07d382677000000000000000000000000a0b86991c6218b36c1d19d4a2e9eb0ce3606eb4800000000000000000000000000000000000000000000000000000000773594000000000000000000000000000000000000000000000000000000000000000000000000000000000000000000000000000000000000000000000000000000002464343766356334372d613135362d343262622d626331632d32356538326236303465656400000000000000000000000000000000000000000000000000000000000000000000000000000000000000000000000000000000000000000000001b33202d2028392f33302f323032332030393a303020414d2045542900000000000000000000000000000000000000000000000000000000000000000000000080000000000000000000000000000000000000000000000000000000000000001c7e20ad162a42994f0f7e3c3317e44a04c3b2229804545cf1df14c8379141ca64138e39c3d177f27d1a723b77fa243bd71fb3e1259b0cdd832b6fc1a7c30c56ce00000000000000000000000000000000000000000000000000000000000000e0000000000000000000000000000000000000000000000000000000000000014000000000000000000000000091c32893216de3ea0a55abb9851f581d4503d39b0000000000000000000000007024e5e2241ee7c6d09048547a410a3c4294b884000000000000000000000000a0b86991c6218b36c1d19d4a2e9eb0ce3606eb4800000000000000000000000000000000000000000000000000000000ee6b28000000000000000000000000000000000000000000000000000000000000000000000000000000000000000000000000000000000000000000000000000000002462633137656131312d353734342d346163632d613537392d31653065663765646462636300000000000000000000000000000000000000000000000000000000000000000000000000000000000000000000000000000000000000000000001b34202d2028392f33302f323032332030393a303020414d2045542900000000000000000000000000000000000000000000000000000000000000000000000080000000000000000000000000000000000000000000000000000000000000001b21d3c38005ca57238c3b3d5c1112e5473feda1c607acbe157e124d777a50b0d33677b62e7decbc389a6a2aa153f0166a669a768ca11656a0087d62cd9a0b637f00000000000000000000000000000000000000000000000000000000000000e0000000000000000000000000000000000000000000000000000000000000014000000000000000000000000091c32893216de3ea0a55abb9851f581d4503d39b000000000000000000000000f413a13c4f2c213ee403eef16eff41d29a907222000000000000000000000000a0b86991c6218b36c1d19d4a2e9eb0ce3606eb4800000000000000000000000000000000000000000000000000000000d09dc3000000000000000000000000000000000000000000000000000000000000000000000000000000000000000000000000000000000000000000000000000000002430633733656462382d663238372d343831362d616165662d62386265623564646265623300000000000000000000000000000000000000000000000000000000000000000000000000000000000000000000000000000000000000000000001b36202d2028392f33302f323032332030393a303020414d2045542900000000000000000000000000000000000000000000000000000000000000000000000080000000000000000000000000000000000000000000000000000000000000001b35c0affef07a5dbc5a537d1ff40665d989c232d1c32c128db790c59e9e3c86815f52d058479c767d139d37006f706f8f80b12fa9b4cb9f701c6a7a52c955d3f500000000000000000000000000000000000000000000000000000000000000e0000000000000000000000000000000000000000000000000000000000000014000000000000000000000000091c32893216de3ea0a55abb9851f581d4503d39b000000000000000000000000b9a0fb254aea7bcec79c7bd8052dcd902a5388ff000000000000000000000000a0b86991c6218b36c1d19d4a2e9eb0ce3606eb4800000000000000000000000000000000000000000000000000000001836e21000000000000000000000000000000000000000000000000000000000000000000000000000000000000000000000000000000000000000000000000000000002462306162333435662d666436662d346132332d396536312d39373238313761616231616400000000000000000000000000000000000000000000000000000000000000000000000000000000000000000000000000000000000000000000001b37202d2028392f33302f323032332030393a303020414d2045542900000000000000000000000000000000000000000000000000000000000000000000000080000000000000000000000000000000000000000000000000000000000000001cde0f864dc96ffa9225dbf7fcb072e93e44e1ccd68688b446b0514c9e71d9dd2f10f2a11c05c4a57a1da39779de110d7abeec24bacb21b032108ff58fe6d9896700000000000000000000000000000000000000000000000000000000000000e0000000000000000000000000000000000000000000000000000000000000014000000000000000000000000091c32893216de3ea0a55abb9851f581d4503d39b000000000000000000000000a7860e99e3ce0752d1ac53b974e309fff80277c6000000000000000000000000a0b86991c6218b36c1d19d4a2e9eb0ce3606eb4800000000000000000000000000000000000000000000000000000000b2d05e000000000000000000000000000000000000000000000000000000000000000000000000000000000000000000000000000000000000000000000000000000002437633461663862642d303766322d343233662d393034302d66373666333336613163366500000000000000000000000000000000000000000000000000000000000000000000000000000000000000000000000000000000000000000000001b38202d2028392f33302f323032332030393a303020414d2045542900000000000000000000000000000000000000000000000000000000000000000000000080000000000000000000000000000000000000000000000000000000000000001bfaeb0e86c2f3ea2a4bcfc047db378d6ad1e53db837bc0b7a3fb7e5c9c578232734f6df93f778c01f0201d23436e10437074dd1b7ea16ac1e1b73cc37ac3f304a00000000000000000000000000000000000000000000000000000000000000e0000000000000000000000000000000000000000000000000000000000000014000000000000000000000000091c32893216de3ea0a55abb9851f581d4503d39b000000000000000000000000c28de09ad1a20737b92834943558ddfcc88d020d000000000000000000000000a0b86991c6218b36c1d19d4a2e9eb0ce3606eb4800000000000000000000000000000000000000000000000000000000b2d05e000000000000000000000000000000000000000000000000000000000000000000000000000000000000000000000000000000000000000000000000000000002432396164616535392d316339642d346337312d386466322d36666561633663616333326500000000000000000000000000000000000000000000000000000000000000000000000000000000000000000000000000000000000000000000001b39202d2028392f33302f323032332030393a303020414d2045542900000000000000000000000000000000000000000000000000000000000000000000000080000000000000000000000000000000000000000000000000000000000000001cd93bde9a047eaa1108bb61f2d045b7adbccdbb67b1749b61a798f7524b8c041c0c8f89629f9b95f4c84a06378dcf8570ef31386246c2f1f153c0316b813b9af700000000000000000000000000000000000000000000000000000000000000e0000000000000000000000000000000000000000000000000000000000000014000000000000000000000000013aee52c1c688d3554a15556c5353cb0c3696ea200000000000000000000000060dbf50076206f60bcc2edf9295f5734561b8d77000000000000000000000000a0b86991c6218b36c1d19d4a2e9eb0ce3606eb480000000000000000000000000000000000000000000000000000000059682f000000000000000000000000000000000000000000000000000000000000000000000000000000000000000000000000000000000000000000000000000000002461333931643931352d383866342d343030322d393263642d38316430376239623134373100000000000000000000000000000000000000000000000000000000000000000000000000000000000000000000000000000000000000000000001b31202d2028392f33302f323032332030393a303020414d204554290000000000","txHash":"0xa104b4299c8407c8be83dc757a3cdb6c4e3769b26014b7f3f0b45bcd5ecf5ac3","blockNumber":18248689,"transfers":[{"type":"ERC20_TRANSFER","executionDate":"2023-09-30T13:01:59Z","blockNumber":18248689,"transactionHash":"0xa104b4299c8407c8be83dc757a3cdb6c4e3769b26014b7f3f0b45bcd5ecf5ac3","to":"0x7024E5e2241eE7C6d09048547A410a3c4294b884","value":"4000000000","tokenId":null,"tokenAddress":"0xA0b86991c6218b36c1d19D4a2e9Eb0cE3606eB48","transferId":"ea104b4299c8407c8be83dc757a3cdb6c4e3769b26014b7f3f0b45bcd5ecf5ac3154","tokenInfo":{"type":"ERC20","address":"0xA0b86991c6218b36c1d19D4a2e9Eb0cE3606eB48","name":"USD Coin","symbol":"USDC","decimals":6,"logoUri":"https://safe-transaction-assets.safe.global/tokens/logos/0xA0b86991c6218b36c1d19D4a2e9Eb0cE3606eB48.png","trusted":true},"from":"0x91c32893216dE3eA0a55ABb9851f581d4503d39b"},{"type":"ERC20_TRANSFER","executionDate":"2023-09-30T13:01:59Z","blockNumber":18248689,"transactionHash":"0xa104b4299c8407c8be83dc757a3cdb6c4e3769b26014b7f3f0b45bcd5ecf5ac3","to":"0x1d921dff757610FbDB0073479e12c0a07d382677","value":"2000000000","tokenId":null,"tokenAddress":"0xA0b86991c6218b36c1d19D4a2e9Eb0cE3606eB48","transferId":"ea104b4299c8407c8be83dc757a3cdb6c4e3769b26014b7f3f0b45bcd5ecf5ac3152","tokenInfo":{"type":"ERC20","address":"0xA0b86991c6218b36c1d19D4a2e9Eb0cE3606eB48","name":"USD Coin","symbol":"USDC","decimals":6,"logoUri":"https://safe-transaction-assets.safe.global/tokens/logos/0xA0b86991c6218b36c1d19D4a2e9Eb0cE3606eB48.png","trusted":true},"from":"0x91c32893216dE3eA0a55ABb9851f581d4503d39b"},{"type":"ERC20_TRANSFER","executionDate":"2023-09-30T13:01:59Z","blockNumber":18248689,"transactionHash":"0xa104b4299c8407c8be83dc757a3cdb6c4e3769b26014b7f3f0b45bcd5ecf5ac3","to":"0x54BeCc7560a7Be76d72ED76a1f5fee6C5a2A7Ab6","value":"2000000000","tokenId":null,"tokenAddress":"0xA0b86991c6218b36c1d19D4a2e9Eb0cE3606eB48","transferId":"ea104b4299c8407c8be83dc757a3cdb6c4e3769b26014b7f3f0b45bcd5ecf5ac3150","tokenInfo":{"type":"ERC20","address":"0xA0b86991c6218b36c1d19D4a2e9Eb0cE3606eB48","name":"USD Coin","symbol":"USDC","decimals":6,"logoUri":"https://safe-transaction-assets.safe.global/tokens/logos/0xA0b86991c6218b36c1d19D4a2e9Eb0cE3606eB48.png","trusted":true},"from":"0x91c32893216dE3eA0a55ABb9851f581d4503d39b"},{"type":"ERC20_TRANSFER","executionDate":"2023-09-30T13:01:59Z","blockNumber":18248689,"transactionHash":"0xa104b4299c8407c8be83dc757a3cdb6c4e3769b26014b7f3f0b45bcd5ecf5ac3","to":"0xd2cc2e47c2Aecd01C87B83290c0Ee76BA67a7211","value":"4300000000","tokenId":null,"tokenAddress":"0xA0b86991c6218b36c1d19D4a2e9Eb0cE3606eB48","transferId":"ea104b4299c8407c8be83dc757a3cdb6c4e3769b26014b7f3f0b45bcd5ecf5ac3148","tokenInfo":{"type":"ERC20","address":"0xA0b86991c6218b36c1d19D4a2e9Eb0cE3606eB48","name":"USD Coin","symbol":"USDC","decimals":6,"logoUri":"https://safe-transaction-assets.safe.global/tokens/logos/0xA0b86991c6218b36c1d19D4a2e9Eb0cE3606eB48.png","trusted":true},"from":"0x91c32893216dE3eA0a55ABb9851f581d4503d39b"},{"type":"ERC20_TRANSFER","executionDate":"2023-09-30T13:01:59Z","blockNumber":18248689,"transactionHash":"0xa104b4299c8407c8be83dc757a3cdb6c4e3769b26014b7f3f0b45bcd5ecf5ac3","to":"0xA7860E99e3ce0752D1ac53b974E309fFf80277C6","value":"5500000000","tokenId":null,"tokenAddress":"0xA0b86991c6218b36c1d19D4a2e9Eb0cE3606eB48","transferId":"ea104b4299c8407c8be83dc757a3cdb6c4e3769b26014b7f3f0b45bcd5ecf5ac3146","tokenInfo":{"type":"ERC20","address":"0xA0b86991c6218b36c1d19D4a2e9Eb0cE3606eB48","name":"USD Coin","symbol":"USDC","decimals":6,"logoUri":"https://safe-transaction-assets.safe.global/tokens/logos/0xA0b86991c6218b36c1d19D4a2e9Eb0cE3606eB48.png","trusted":true},"from":"0x91c32893216dE3eA0a55ABb9851f581d4503d39b"},{"type":"ERC20_TRANSFER","executionDate":"2023-09-30T13:01:59Z","blockNumber":18248689,"transactionHash":"0xa104b4299c8407c8be83dc757a3cdb6c4e3769b26014b7f3f0b45bcd5ecf5ac3","to":"0xc28de09AD1a20737B92834943558DdfcC88d020D","value":"3000000000","tokenId":null,"tokenAddress":"0xA0b86991c6218b36c1d19D4a2e9Eb0cE3606eB48","transferId":"ea104b4299c8407c8be83dc757a3cdb6c4e3769b26014b7f3f0b45bcd5ecf5ac3162","tokenInfo":{"type":"ERC20","address":"0xA0b86991c6218b36c1d19D4a2e9Eb0cE3606eB48","name":"USD Coin","symbol":"USDC","decimals":6,"logoUri":"https://safe-transaction-assets.safe.global/tokens/logos/0xA0b86991c6218b36c1d19D4a2e9Eb0cE3606eB48.png","trusted":true},"from":"0x91c32893216dE3eA0a55ABb9851f581d4503d39b"},{"type":"ERC20_TRANSFER","executionDate":"2023-09-30T13:01:59Z","blockNumber":18248689,"transactionHash":"0xa104b4299c8407c8be83dc757a3cdb6c4e3769b26014b7f3f0b45bcd5ecf5ac3","to":"0xA7860E99e3ce0752D1ac53b974E309fFf80277C6","value":"3000000000","tokenId":null,"tokenAddress":"0xA0b86991c6218b36c1d19D4a2e9Eb0cE3606eB48","transferId":"ea104b4299c8407c8be83dc757a3cdb6c4e3769b26014b7f3f0b45bcd5ecf5ac3160","tokenInfo":{"type":"ERC20","address":"0xA0b86991c6218b36c1d19D4a2e9Eb0cE3606eB48","name":"USD Coin","symbol":"USDC","decimals":6,"logoUri":"https://safe-transaction-assets.safe.global/tokens/logos/0xA0b86991c6218b36c1d19D4a2e9Eb0cE3606eB48.png","trusted":true},"from":"0x91c32893216dE3eA0a55ABb9851f581d4503d39b"},{"type":"ERC20_TRANSFER","executionDate":"2023-09-30T13:01:59Z","blockNumber":18248689,"transactionHash":"0xa104b4299c8407c8be83dc757a3cdb6c4e3769b26014b7f3f0b45bcd5ecf5ac3","to":"0xB9a0fB254Aea7Bcec79c7bd8052dcd902a5388Ff","value":"6500000000","tokenId":null,"tokenAddress":"0xA0b86991c6218b36c1d19D4a2e9Eb0cE3606eB48","transferId":"ea104b4299c8407c8be83dc757a3cdb6c4e3769b26014b7f3f0b45bcd5ecf5ac3158","tokenInfo":{"type":"ERC20","address":"0xA0b86991c6218b36c1d19D4a2e9Eb0cE3606eB48","name":"USD Coin","symbol":"USDC","decimals":6,"logoUri":"https://safe-transaction-assets.safe.global/tokens/logos/0xA0b86991c6218b36c1d19D4a2e9Eb0cE3606eB48.png","trusted":true},"from":"0x91c32893216dE3eA0a55ABb9851f581d4503d39b"},{"type":"ERC20_TRANSFER","executionDate":"2023-09-30T13:01:59Z","blockNumber":18248689,"transactionHash":"0xa104b4299c8407c8be83dc757a3cdb6c4e3769b26014b7f3f0b45bcd5ecf5ac3","to":"0xf413a13C4F2c213eE403eEF16EfF41D29A907222","value":"3500000000","tokenId":null,"tokenAddress":"0xA0b86991c6218b36c1d19D4a2e9Eb0cE3606eB48","transferId":"ea104b4299c8407c8be83dc757a3cdb6c4e3769b26014b7f3f0b45bcd5ecf5ac3156","tokenInfo":{"type":"ERC20","address":"0xA0b86991c6218b36c1d19D4a2e9Eb0cE3606eB48","name":"USD Coin","symbol":"USDC","decimals":6,"logoUri":"https://safe-transaction-assets.safe.global/tokens/logos/0xA0b86991c6218b36c1d19D4a2e9Eb0cE3606eB48.png","trusted":true},"from":"0x91c32893216dE3eA0a55ABb9851f581d4503d39b"}],"txType":"ETHEREUM_TRANSACTION","from":"0x902c0954eB12B2e351199604AB488E24092dfA31"}]}